{
	"contracts/real_estate.sol": {
		"RealEstate": {
			"abi": [
				{
					"inputs": [
						{
							"internalType": "address",
							"name": "_seller",
							"type": "address"
						},
						{
							"internalType": "address",
							"name": "_buyer",
							"type": "address"
						},
						{
							"internalType": "string",
							"name": "_propertyAddress",
							"type": "string"
						},
						{
							"internalType": "uint256",
							"name": "_finalPrice",
							"type": "uint256"
						},
						{
							"internalType": "uint256",
							"name": "_downPayment",
							"type": "uint256"
						},
						{
							"internalType": "uint256",
							"name": "_downPaymentDeadline",
							"type": "uint256"
						},
						{
							"internalType": "uint256",
							"name": "_transferDeadline",
							"type": "uint256"
						}
					],
					"stateMutability": "nonpayable",
					"type": "constructor"
				},
				{
					"anonymous": false,
					"inputs": [
						{
							"indexed": true,
							"internalType": "address",
							"name": "buyer",
							"type": "address"
						},
						{
							"indexed": false,
							"internalType": "uint256",
							"name": "amount",
							"type": "uint256"
						}
					],
					"name": "DownPaymentMade",
					"type": "event"
				},
				{
					"anonymous": false,
					"inputs": [
						{
							"indexed": true,
							"internalType": "address",
							"name": "seller",
							"type": "address"
						},
						{
							"indexed": true,
							"internalType": "address",
							"name": "buyer",
							"type": "address"
						},
						{
							"indexed": false,
							"internalType": "uint256",
							"name": "amount",
							"type": "uint256"
						}
					],
					"name": "PropertyTransferred",
					"type": "event"
				},
				{
					"inputs": [],
					"name": "buyer",
					"outputs": [
						{
							"internalType": "address",
							"name": "",
							"type": "address"
						}
					],
					"stateMutability": "view",
					"type": "function"
				},
				{
					"inputs": [],
					"name": "downPayment",
					"outputs": [
						{
							"internalType": "uint256",
							"name": "",
							"type": "uint256"
						}
					],
					"stateMutability": "view",
					"type": "function"
				},
				{
					"inputs": [],
					"name": "downPaymentDeadline",
					"outputs": [
						{
							"internalType": "uint256",
							"name": "",
							"type": "uint256"
						}
					],
					"stateMutability": "view",
					"type": "function"
				},
				{
					"inputs": [],
					"name": "downPaymentMade",
					"outputs": [
						{
							"internalType": "bool",
							"name": "",
							"type": "bool"
						}
					],
					"stateMutability": "view",
					"type": "function"
				},
				{
					"inputs": [],
					"name": "finalPrice",
					"outputs": [
						{
							"internalType": "uint256",
							"name": "",
							"type": "uint256"
						}
					],
					"stateMutability": "view",
					"type": "function"
				},
				{
					"inputs": [],
					"name": "finalizeSale",
					"outputs": [],
					"stateMutability": "nonpayable",
					"type": "function"
				},
				{
					"inputs": [],
					"name": "makeDownPayment",
					"outputs": [],
					"stateMutability": "payable",
					"type": "function"
				},
				{
					"inputs": [],
					"name": "propertyAddress",
					"outputs": [
						{
							"internalType": "string",
							"name": "",
							"type": "string"
						}
					],
					"stateMutability": "view",
					"type": "function"
				},
				{
					"inputs": [],
					"name": "propertyTransferred",
					"outputs": [
						{
							"internalType": "bool",
							"name": "",
							"type": "bool"
						}
					],
					"stateMutability": "view",
					"type": "function"
				},
				{
					"inputs": [],
					"name": "refundDownPayment",
					"outputs": [],
					"stateMutability": "nonpayable",
					"type": "function"
				},
				{
					"inputs": [],
					"name": "seller",
					"outputs": [
						{
							"internalType": "address",
							"name": "",
							"type": "address"
						}
					],
					"stateMutability": "view",
					"type": "function"
				},
				{
					"inputs": [],
					"name": "transferDeadline",
					"outputs": [
						{
							"internalType": "uint256",
							"name": "",
							"type": "uint256"
						}
					],
					"stateMutability": "view",
					"type": "function"
				},
				{
					"inputs": [],
					"name": "transferProperty",
					"outputs": [],
					"stateMutability": "nonpayable",
					"type": "function"
				}
			],
			"devdoc": {
				"kind": "dev",
				"methods": {},
				"version": 1
			},
			"evm": {
				"assembly": "    /* \"contracts/real_estate.sol\":60:2846  contract RealEstate {... */\n  mstore(0x40, 0x80)\n    /* \"contracts/real_estate.sol\":560:1156  constructor(... */\n  callvalue\n  dup1\n  iszero\n  tag_1\n  jumpi\n  0x00\n  dup1\n  revert\ntag_1:\n  pop\n  mload(0x40)\n  sub(codesize, bytecodeSize)\n  dup1\n  bytecodeSize\n  dup4\n  codecopy\n  dup2\n  dup2\n  add\n  0x40\n  mstore\n  dup2\n  add\n  swap1\n  tag_2\n  swap2\n  swap1\n  tag_3\n  jump\t// in\ntag_2:\n    /* \"contracts/real_estate.sol\":827:834  _seller */\n  dup7\n    /* \"contracts/real_estate.sol\":818:824  seller */\n  0x00\n  dup1\n    /* \"contracts/real_estate.sol\":818:834  seller = _seller */\n  0x0100\n  exp\n  dup2\n  sload\n  dup2\n  0xffffffffffffffffffffffffffffffffffffffff\n  mul\n  not\n  and\n  swap1\n  dup4\n  0xffffffffffffffffffffffffffffffffffffffff\n  and\n  mul\n  or\n  swap1\n  sstore\n  pop\n    /* \"contracts/real_estate.sol\":853:859  _buyer */\n  dup6\n    /* \"contracts/real_estate.sol\":845:850  buyer */\n  0x01\n  0x00\n    /* \"contracts/real_estate.sol\":845:859  buyer = _buyer */\n  0x0100\n  exp\n  dup2\n  sload\n  dup2\n  0xffffffffffffffffffffffffffffffffffffffff\n  mul\n  not\n  and\n  swap1\n  dup4\n  0xffffffffffffffffffffffffffffffffffffffff\n  and\n  mul\n  or\n  swap1\n  sstore\n  pop\n    /* \"contracts/real_estate.sol\":888:904  _propertyAddress */\n  dup5\n    /* \"contracts/real_estate.sol\":870:885  propertyAddress */\n  0x02\n    /* \"contracts/real_estate.sol\":870:904  propertyAddress = _propertyAddress */\n  swap1\n  dup2\n  tag_6\n  swap2\n  swap1\n  tag_7\n  jump\t// in\ntag_6:\n  pop\n    /* \"contracts/real_estate.sol\":928:939  _finalPrice */\n  dup4\n    /* \"contracts/real_estate.sol\":915:925  finalPrice */\n  0x03\n    /* \"contracts/real_estate.sol\":915:939  finalPrice = _finalPrice */\n  dup2\n  swap1\n  sstore\n  pop\n    /* \"contracts/real_estate.sol\":964:976  _downPayment */\n  dup3\n    /* \"contracts/real_estate.sol\":950:961  downPayment */\n  0x04\n    /* \"contracts/real_estate.sol\":950:976  downPayment = _downPayment */\n  dup2\n  swap1\n  sstore\n  pop\n    /* \"contracts/real_estate.sol\":1009:1029  _downPaymentDeadline */\n  dup2\n    /* \"contracts/real_estate.sol\":987:1006  downPaymentDeadline */\n  0x05\n    /* \"contracts/real_estate.sol\":987:1029  downPaymentDeadline = _downPaymentDeadline */\n  dup2\n  swap1\n  sstore\n  pop\n    /* \"contracts/real_estate.sol\":1059:1076  _transferDeadline */\n  dup1\n    /* \"contracts/real_estate.sol\":1040:1056  transferDeadline */\n  0x06\n    /* \"contracts/real_estate.sol\":1040:1076  transferDeadline = _transferDeadline */\n  dup2\n  swap1\n  sstore\n  pop\n    /* \"contracts/real_estate.sol\":1105:1110  false */\n  0x00\n    /* \"contracts/real_estate.sol\":1087:1102  downPaymentMade */\n  0x07\n  0x00\n    /* \"contracts/real_estate.sol\":1087:1110  downPaymentMade = false */\n  0x0100\n  exp\n  dup2\n  sload\n  dup2\n  0xff\n  mul\n  not\n  and\n  swap1\n  dup4\n  iszero\n  iszero\n  mul\n  or\n  swap1\n  sstore\n  pop\n    /* \"contracts/real_estate.sol\":1143:1148  false */\n  0x00\n    /* \"contracts/real_estate.sol\":1121:1140  propertyTransferred */\n  0x07\n  0x01\n    /* \"contracts/real_estate.sol\":1121:1148  propertyTransferred = false */\n  0x0100\n  exp\n  dup2\n  sload\n  dup2\n  0xff\n  mul\n  not\n  and\n  swap1\n  dup4\n  iszero\n  iszero\n  mul\n  or\n  swap1\n  sstore\n  pop\n    /* \"contracts/real_estate.sol\":560:1156  constructor(... */\n  pop\n  pop\n  pop\n  pop\n  pop\n  pop\n  pop\n    /* \"contracts/real_estate.sol\":60:2846  contract RealEstate {... */\n  jump(tag_8)\n    /* \"#utility.yul\":7:82   */\ntag_9:\n    /* \"#utility.yul\":40:46   */\n  0x00\n    /* \"#utility.yul\":73:75   */\n  0x40\n    /* \"#utility.yul\":67:76   */\n  mload\n    /* \"#utility.yul\":57:76   */\n  swap1\n  pop\n    /* \"#utility.yul\":7:82   */\n  swap1\n  jump\t// out\n    /* \"#utility.yul\":88:205   */\ntag_10:\n    /* \"#utility.yul\":197:198   */\n  0x00\n    /* \"#utility.yul\":194:195   */\n  dup1\n    /* \"#utility.yul\":187:199   */\n  revert\n    /* \"#utility.yul\":211:328   */\ntag_11:\n    /* \"#utility.yul\":320:321   */\n  0x00\n    /* \"#utility.yul\":317:318   */\n  dup1\n    /* \"#utility.yul\":310:322   */\n  revert\n    /* \"#utility.yul\":334:460   */\ntag_12:\n    /* \"#utility.yul\":371:378   */\n  0x00\n    /* \"#utility.yul\":411:453   */\n  0xffffffffffffffffffffffffffffffffffffffff\n    /* \"#utility.yul\":404:409   */\n  dup3\n    /* \"#utility.yul\":400:454   */\n  and\n    /* \"#utility.yul\":389:454   */\n  swap1\n  pop\n    /* \"#utility.yul\":334:460   */\n  swap2\n  swap1\n  pop\n  jump\t// out\n    /* \"#utility.yul\":466:562   */\ntag_13:\n    /* \"#utility.yul\":503:510   */\n  0x00\n    /* \"#utility.yul\":532:556   */\n  tag_53\n    /* \"#utility.yul\":550:555   */\n  dup3\n    /* \"#utility.yul\":532:556   */\n  tag_12\n  jump\t// in\ntag_53:\n    /* \"#utility.yul\":521:556   */\n  swap1\n  pop\n    /* \"#utility.yul\":466:562   */\n  swap2\n  swap1\n  pop\n  jump\t// out\n    /* \"#utility.yul\":568:690   */\ntag_14:\n    /* \"#utility.yul\":641:665   */\n  tag_55\n    /* \"#utility.yul\":659:664   */\n  dup2\n    /* \"#utility.yul\":641:665   */\n  tag_13\n  jump\t// in\ntag_55:\n    /* \"#utility.yul\":634:639   */\n  dup2\n    /* \"#utility.yul\":631:666   */\n  eq\n    /* \"#utility.yul\":621:684   */\n  tag_56\n  jumpi\n    /* \"#utility.yul\":680:681   */\n  0x00\n    /* \"#utility.yul\":677:678   */\n  dup1\n    /* \"#utility.yul\":670:682   */\n  revert\n    /* \"#utility.yul\":621:684   */\ntag_56:\n    /* \"#utility.yul\":568:690   */\n  pop\n  jump\t// out\n    /* \"#utility.yul\":696:839   */\ntag_15:\n    /* \"#utility.yul\":753:758   */\n  0x00\n    /* \"#utility.yul\":784:790   */\n  dup2\n    /* \"#utility.yul\":778:791   */\n  mload\n    /* \"#utility.yul\":769:791   */\n  swap1\n  pop\n    /* \"#utility.yul\":800:833   */\n  tag_58\n    /* \"#utility.yul\":827:832   */\n  dup2\n    /* \"#utility.yul\":800:833   */\n  tag_14\n  jump\t// in\ntag_58:\n    /* \"#utility.yul\":696:839   */\n  swap3\n  swap2\n  pop\n  pop\n  jump\t// out\n    /* \"#utility.yul\":845:962   */\ntag_16:\n    /* \"#utility.yul\":954:955   */\n  0x00\n    /* \"#utility.yul\":951:952   */\n  dup1\n    /* \"#utility.yul\":944:956   */\n  revert\n    /* \"#utility.yul\":968:1085   */\ntag_17:\n    /* \"#utility.yul\":1077:1078   */\n  0x00\n    /* \"#utility.yul\":1074:1075   */\n  dup1\n    /* \"#utility.yul\":1067:1079   */\n  revert\n    /* \"#utility.yul\":1091:1193   */\ntag_18:\n    /* \"#utility.yul\":1132:1138   */\n  0x00\n    /* \"#utility.yul\":1183:1185   */\n  0x1f\n    /* \"#utility.yul\":1179:1186   */\n  not\n    /* \"#utility.yul\":1174:1176   */\n  0x1f\n    /* \"#utility.yul\":1167:1172   */\n  dup4\n    /* \"#utility.yul\":1163:1177   */\n  add\n    /* \"#utility.yul\":1159:1187   */\n  and\n    /* \"#utility.yul\":1149:1187   */\n  swap1\n  pop\n    /* \"#utility.yul\":1091:1193   */\n  swap2\n  swap1\n  pop\n  jump\t// out\n    /* \"#utility.yul\":1199:1379   */\ntag_19:\n    /* \"#utility.yul\":1247:1324   */\n  0x4e487b7100000000000000000000000000000000000000000000000000000000\n    /* \"#utility.yul\":1244:1245   */\n  0x00\n    /* \"#utility.yul\":1237:1325   */\n  mstore\n    /* \"#utility.yul\":1344:1348   */\n  0x41\n    /* \"#utility.yul\":1341:1342   */\n  0x04\n    /* \"#utility.yul\":1334:1349   */\n  mstore\n    /* \"#utility.yul\":1368:1372   */\n  0x24\n    /* \"#utility.yul\":1365:1366   */\n  0x00\n    /* \"#utility.yul\":1358:1373   */\n  revert\n    /* \"#utility.yul\":1385:1666   */\ntag_20:\n    /* \"#utility.yul\":1468:1495   */\n  tag_64\n    /* \"#utility.yul\":1490:1494   */\n  dup3\n    /* \"#utility.yul\":1468:1495   */\n  tag_18\n  jump\t// in\ntag_64:\n    /* \"#utility.yul\":1460:1466   */\n  dup2\n    /* \"#utility.yul\":1456:1496   */\n  add\n    /* \"#utility.yul\":1598:1604   */\n  dup2\n    /* \"#utility.yul\":1586:1596   */\n  dup2\n    /* \"#utility.yul\":1583:1605   */\n  lt\n    /* \"#utility.yul\":1562:1580   */\n  0xffffffffffffffff\n    /* \"#utility.yul\":1550:1560   */\n  dup3\n    /* \"#utility.yul\":1547:1581   */\n  gt\n    /* \"#utility.yul\":1544:1606   */\n  or\n    /* \"#utility.yul\":1541:1629   */\n  iszero\n  tag_65\n  jumpi\n    /* \"#utility.yul\":1609:1627   */\n  tag_66\n  tag_19\n  jump\t// in\ntag_66:\n    /* \"#utility.yul\":1541:1629   */\ntag_65:\n    /* \"#utility.yul\":1649:1659   */\n  dup1\n    /* \"#utility.yul\":1645:1647   */\n  0x40\n    /* \"#utility.yul\":1638:1660   */\n  mstore\n    /* \"#utility.yul\":1428:1666   */\n  pop\n    /* \"#utility.yul\":1385:1666   */\n  pop\n  pop\n  jump\t// out\n    /* \"#utility.yul\":1672:1801   */\ntag_21:\n    /* \"#utility.yul\":1706:1712   */\n  0x00\n    /* \"#utility.yul\":1733:1753   */\n  tag_68\n  tag_9\n  jump\t// in\ntag_68:\n    /* \"#utility.yul\":1723:1753   */\n  swap1\n  pop\n    /* \"#utility.yul\":1762:1795   */\n  tag_69\n    /* \"#utility.yul\":1790:1794   */\n  dup3\n    /* \"#utility.yul\":1782:1788   */\n  dup3\n    /* \"#utility.yul\":1762:1795   */\n  tag_20\n  jump\t// in\ntag_69:\n    /* \"#utility.yul\":1672:1801   */\n  swap2\n  swap1\n  pop\n  jump\t// out\n    /* \"#utility.yul\":1807:2115   */\ntag_22:\n    /* \"#utility.yul\":1869:1873   */\n  0x00\n    /* \"#utility.yul\":1959:1977   */\n  0xffffffffffffffff\n    /* \"#utility.yul\":1951:1957   */\n  dup3\n    /* \"#utility.yul\":1948:1978   */\n  gt\n    /* \"#utility.yul\":1945:2001   */\n  iszero\n  tag_71\n  jumpi\n    /* \"#utility.yul\":1981:1999   */\n  tag_72\n  tag_19\n  jump\t// in\ntag_72:\n    /* \"#utility.yul\":1945:2001   */\ntag_71:\n    /* \"#utility.yul\":2019:2048   */\n  tag_73\n    /* \"#utility.yul\":2041:2047   */\n  dup3\n    /* \"#utility.yul\":2019:2048   */\n  tag_18\n  jump\t// in\ntag_73:\n    /* \"#utility.yul\":2011:2048   */\n  swap1\n  pop\n    /* \"#utility.yul\":2103:2107   */\n  0x20\n    /* \"#utility.yul\":2097:2101   */\n  dup2\n    /* \"#utility.yul\":2093:2108   */\n  add\n    /* \"#utility.yul\":2085:2108   */\n  swap1\n  pop\n    /* \"#utility.yul\":1807:2115   */\n  swap2\n  swap1\n  pop\n  jump\t// out\n    /* \"#utility.yul\":2121:2260   */\ntag_23:\n    /* \"#utility.yul\":2210:2216   */\n  dup3\n    /* \"#utility.yul\":2205:2208   */\n  dup2\n    /* \"#utility.yul\":2200:2203   */\n  dup4\n    /* \"#utility.yul\":2194:2217   */\n  mcopy\n    /* \"#utility.yul\":2251:2252   */\n  0x00\n    /* \"#utility.yul\":2242:2248   */\n  dup4\n    /* \"#utility.yul\":2237:2240   */\n  dup4\n    /* \"#utility.yul\":2233:2249   */\n  add\n    /* \"#utility.yul\":2226:2253   */\n  mstore\n    /* \"#utility.yul\":2121:2260   */\n  pop\n  pop\n  pop\n  jump\t// out\n    /* \"#utility.yul\":2266:2700   */\ntag_24:\n    /* \"#utility.yul\":2355:2360   */\n  0x00\n    /* \"#utility.yul\":2380:2446   */\n  tag_76\n    /* \"#utility.yul\":2396:2445   */\n  tag_77\n    /* \"#utility.yul\":2438:2444   */\n  dup5\n    /* \"#utility.yul\":2396:2445   */\n  tag_22\n  jump\t// in\ntag_77:\n    /* \"#utility.yul\":2380:2446   */\n  tag_21\n  jump\t// in\ntag_76:\n    /* \"#utility.yul\":2371:2446   */\n  swap1\n  pop\n    /* \"#utility.yul\":2469:2475   */\n  dup3\n    /* \"#utility.yul\":2462:2467   */\n  dup2\n    /* \"#utility.yul\":2455:2476   */\n  mstore\n    /* \"#utility.yul\":2507:2511   */\n  0x20\n    /* \"#utility.yul\":2500:2505   */\n  dup2\n    /* \"#utility.yul\":2496:2512   */\n  add\n    /* \"#utility.yul\":2545:2548   */\n  dup5\n    /* \"#utility.yul\":2536:2542   */\n  dup5\n    /* \"#utility.yul\":2531:2534   */\n  dup5\n    /* \"#utility.yul\":2527:2543   */\n  add\n    /* \"#utility.yul\":2524:2549   */\n  gt\n    /* \"#utility.yul\":2521:2633   */\n  iszero\n  tag_78\n  jumpi\n    /* \"#utility.yul\":2552:2631   */\n  tag_79\n  tag_17\n  jump\t// in\ntag_79:\n    /* \"#utility.yul\":2521:2633   */\ntag_78:\n    /* \"#utility.yul\":2642:2694   */\n  tag_80\n    /* \"#utility.yul\":2687:2693   */\n  dup5\n    /* \"#utility.yul\":2682:2685   */\n  dup3\n    /* \"#utility.yul\":2677:2680   */\n  dup6\n    /* \"#utility.yul\":2642:2694   */\n  tag_23\n  jump\t// in\ntag_80:\n    /* \"#utility.yul\":2361:2700   */\n  pop\n    /* \"#utility.yul\":2266:2700   */\n  swap4\n  swap3\n  pop\n  pop\n  pop\n  jump\t// out\n    /* \"#utility.yul\":2720:3075   */\ntag_25:\n    /* \"#utility.yul\":2787:2792   */\n  0x00\n    /* \"#utility.yul\":2836:2839   */\n  dup3\n    /* \"#utility.yul\":2829:2833   */\n  0x1f\n    /* \"#utility.yul\":2821:2827   */\n  dup4\n    /* \"#utility.yul\":2817:2834   */\n  add\n    /* \"#utility.yul\":2813:2840   */\n  slt\n    /* \"#utility.yul\":2803:2925   */\n  tag_82\n  jumpi\n    /* \"#utility.yul\":2844:2923   */\n  tag_83\n  tag_16\n  jump\t// in\ntag_83:\n    /* \"#utility.yul\":2803:2925   */\ntag_82:\n    /* \"#utility.yul\":2954:2960   */\n  dup2\n    /* \"#utility.yul\":2948:2961   */\n  mload\n    /* \"#utility.yul\":2979:3069   */\n  tag_84\n    /* \"#utility.yul\":3065:3068   */\n  dup5\n    /* \"#utility.yul\":3057:3063   */\n  dup3\n    /* \"#utility.yul\":3050:3054   */\n  0x20\n    /* \"#utility.yul\":3042:3048   */\n  dup7\n    /* \"#utility.yul\":3038:3055   */\n  add\n    /* \"#utility.yul\":2979:3069   */\n  tag_24\n  jump\t// in\ntag_84:\n    /* \"#utility.yul\":2970:3069   */\n  swap2\n  pop\n    /* \"#utility.yul\":2793:3075   */\n  pop\n    /* \"#utility.yul\":2720:3075   */\n  swap3\n  swap2\n  pop\n  pop\n  jump\t// out\n    /* \"#utility.yul\":3081:3158   */\ntag_26:\n    /* \"#utility.yul\":3118:3125   */\n  0x00\n    /* \"#utility.yul\":3147:3152   */\n  dup2\n    /* \"#utility.yul\":3136:3152   */\n  swap1\n  pop\n    /* \"#utility.yul\":3081:3158   */\n  swap2\n  swap1\n  pop\n  jump\t// out\n    /* \"#utility.yul\":3164:3286   */\ntag_27:\n    /* \"#utility.yul\":3237:3261   */\n  tag_87\n    /* \"#utility.yul\":3255:3260   */\n  dup2\n    /* \"#utility.yul\":3237:3261   */\n  tag_26\n  jump\t// in\ntag_87:\n    /* \"#utility.yul\":3230:3235   */\n  dup2\n    /* \"#utility.yul\":3227:3262   */\n  eq\n    /* \"#utility.yul\":3217:3280   */\n  tag_88\n  jumpi\n    /* \"#utility.yul\":3276:3277   */\n  0x00\n    /* \"#utility.yul\":3273:3274   */\n  dup1\n    /* \"#utility.yul\":3266:3278   */\n  revert\n    /* \"#utility.yul\":3217:3280   */\ntag_88:\n    /* \"#utility.yul\":3164:3286   */\n  pop\n  jump\t// out\n    /* \"#utility.yul\":3292:3435   */\ntag_28:\n    /* \"#utility.yul\":3349:3354   */\n  0x00\n    /* \"#utility.yul\":3380:3386   */\n  dup2\n    /* \"#utility.yul\":3374:3387   */\n  mload\n    /* \"#utility.yul\":3365:3387   */\n  swap1\n  pop\n    /* \"#utility.yul\":3396:3429   */\n  tag_90\n    /* \"#utility.yul\":3423:3428   */\n  dup2\n    /* \"#utility.yul\":3396:3429   */\n  tag_27\n  jump\t// in\ntag_90:\n    /* \"#utility.yul\":3292:3435   */\n  swap3\n  swap2\n  pop\n  pop\n  jump\t// out\n    /* \"#utility.yul\":3441:4905   */\ntag_3:\n    /* \"#utility.yul\":3575:3581   */\n  0x00\n    /* \"#utility.yul\":3583:3589   */\n  dup1\n    /* \"#utility.yul\":3591:3597   */\n  0x00\n    /* \"#utility.yul\":3599:3605   */\n  dup1\n    /* \"#utility.yul\":3607:3613   */\n  0x00\n    /* \"#utility.yul\":3615:3621   */\n  dup1\n    /* \"#utility.yul\":3623:3629   */\n  0x00\n    /* \"#utility.yul\":3672:3675   */\n  0xe0\n    /* \"#utility.yul\":3660:3669   */\n  dup9\n    /* \"#utility.yul\":3651:3658   */\n  dup11\n    /* \"#utility.yul\":3647:3670   */\n  sub\n    /* \"#utility.yul\":3643:3676   */\n  slt\n    /* \"#utility.yul\":3640:3760   */\n  iszero\n  tag_92\n  jumpi\n    /* \"#utility.yul\":3679:3758   */\n  tag_93\n  tag_10\n  jump\t// in\ntag_93:\n    /* \"#utility.yul\":3640:3760   */\ntag_92:\n    /* \"#utility.yul\":3799:3800   */\n  0x00\n    /* \"#utility.yul\":3824:3888   */\n  tag_94\n    /* \"#utility.yul\":3880:3887   */\n  dup11\n    /* \"#utility.yul\":3871:3877   */\n  dup3\n    /* \"#utility.yul\":3860:3869   */\n  dup12\n    /* \"#utility.yul\":3856:3878   */\n  add\n    /* \"#utility.yul\":3824:3888   */\n  tag_15\n  jump\t// in\ntag_94:\n    /* \"#utility.yul\":3814:3888   */\n  swap8\n  pop\n    /* \"#utility.yul\":3770:3898   */\n  pop\n    /* \"#utility.yul\":3937:3939   */\n  0x20\n    /* \"#utility.yul\":3963:4027   */\n  tag_95\n    /* \"#utility.yul\":4019:4026   */\n  dup11\n    /* \"#utility.yul\":4010:4016   */\n  dup3\n    /* \"#utility.yul\":3999:4008   */\n  dup12\n    /* \"#utility.yul\":3995:4017   */\n  add\n    /* \"#utility.yul\":3963:4027   */\n  tag_15\n  jump\t// in\ntag_95:\n    /* \"#utility.yul\":3953:4027   */\n  swap7\n  pop\n    /* \"#utility.yul\":3908:4037   */\n  pop\n    /* \"#utility.yul\":4097:4099   */\n  0x40\n    /* \"#utility.yul\":4086:4095   */\n  dup9\n    /* \"#utility.yul\":4082:4100   */\n  add\n    /* \"#utility.yul\":4076:4101   */\n  mload\n    /* \"#utility.yul\":4128:4146   */\n  0xffffffffffffffff\n    /* \"#utility.yul\":4120:4126   */\n  dup2\n    /* \"#utility.yul\":4117:4147   */\n  gt\n    /* \"#utility.yul\":4114:4231   */\n  iszero\n  tag_96\n  jumpi\n    /* \"#utility.yul\":4150:4229   */\n  tag_97\n  tag_11\n  jump\t// in\ntag_97:\n    /* \"#utility.yul\":4114:4231   */\ntag_96:\n    /* \"#utility.yul\":4255:4329   */\n  tag_98\n    /* \"#utility.yul\":4321:4328   */\n  dup11\n    /* \"#utility.yul\":4312:4318   */\n  dup3\n    /* \"#utility.yul\":4301:4310   */\n  dup12\n    /* \"#utility.yul\":4297:4319   */\n  add\n    /* \"#utility.yul\":4255:4329   */\n  tag_25\n  jump\t// in\ntag_98:\n    /* \"#utility.yul\":4245:4329   */\n  swap6\n  pop\n    /* \"#utility.yul\":4047:4339   */\n  pop\n    /* \"#utility.yul\":4378:4380   */\n  0x60\n    /* \"#utility.yul\":4404:4468   */\n  tag_99\n    /* \"#utility.yul\":4460:4467   */\n  dup11\n    /* \"#utility.yul\":4451:4457   */\n  dup3\n    /* \"#utility.yul\":4440:4449   */\n  dup12\n    /* \"#utility.yul\":4436:4458   */\n  add\n    /* \"#utility.yul\":4404:4468   */\n  tag_28\n  jump\t// in\ntag_99:\n    /* \"#utility.yul\":4394:4468   */\n  swap5\n  pop\n    /* \"#utility.yul\":4349:4478   */\n  pop\n    /* \"#utility.yul\":4517:4520   */\n  0x80\n    /* \"#utility.yul\":4544:4608   */\n  tag_100\n    /* \"#utility.yul\":4600:4607   */\n  dup11\n    /* \"#utility.yul\":4591:4597   */\n  dup3\n    /* \"#utility.yul\":4580:4589   */\n  dup12\n    /* \"#utility.yul\":4576:4598   */\n  add\n    /* \"#utility.yul\":4544:4608   */\n  tag_28\n  jump\t// in\ntag_100:\n    /* \"#utility.yul\":4534:4608   */\n  swap4\n  pop\n    /* \"#utility.yul\":4488:4618   */\n  pop\n    /* \"#utility.yul\":4657:4660   */\n  0xa0\n    /* \"#utility.yul\":4684:4748   */\n  tag_101\n    /* \"#utility.yul\":4740:4747   */\n  dup11\n    /* \"#utility.yul\":4731:4737   */\n  dup3\n    /* \"#utility.yul\":4720:4729   */\n  dup12\n    /* \"#utility.yul\":4716:4738   */\n  add\n    /* \"#utility.yul\":4684:4748   */\n  tag_28\n  jump\t// in\ntag_101:\n    /* \"#utility.yul\":4674:4748   */\n  swap3\n  pop\n    /* \"#utility.yul\":4628:4758   */\n  pop\n    /* \"#utility.yul\":4797:4800   */\n  0xc0\n    /* \"#utility.yul\":4824:4888   */\n  tag_102\n    /* \"#utility.yul\":4880:4887   */\n  dup11\n    /* \"#utility.yul\":4871:4877   */\n  dup3\n    /* \"#utility.yul\":4860:4869   */\n  dup12\n    /* \"#utility.yul\":4856:4878   */\n  add\n    /* \"#utility.yul\":4824:4888   */\n  tag_28\n  jump\t// in\ntag_102:\n    /* \"#utility.yul\":4814:4888   */\n  swap2\n  pop\n    /* \"#utility.yul\":4768:4898   */\n  pop\n    /* \"#utility.yul\":3441:4905   */\n  swap3\n  swap6\n  swap9\n  swap2\n  swap5\n  swap8\n  pop\n  swap3\n  swap6\n  pop\n  jump\t// out\n    /* \"#utility.yul\":4911:5010   */\ntag_29:\n    /* \"#utility.yul\":4963:4969   */\n  0x00\n    /* \"#utility.yul\":4997:5002   */\n  dup2\n    /* \"#utility.yul\":4991:5003   */\n  mload\n    /* \"#utility.yul\":4981:5003   */\n  swap1\n  pop\n    /* \"#utility.yul\":4911:5010   */\n  swap2\n  swap1\n  pop\n  jump\t// out\n    /* \"#utility.yul\":5016:5196   */\ntag_30:\n    /* \"#utility.yul\":5064:5141   */\n  0x4e487b7100000000000000000000000000000000000000000000000000000000\n    /* \"#utility.yul\":5061:5062   */\n  0x00\n    /* \"#utility.yul\":5054:5142   */\n  mstore\n    /* \"#utility.yul\":5161:5165   */\n  0x22\n    /* \"#utility.yul\":5158:5159   */\n  0x04\n    /* \"#utility.yul\":5151:5166   */\n  mstore\n    /* \"#utility.yul\":5185:5189   */\n  0x24\n    /* \"#utility.yul\":5182:5183   */\n  0x00\n    /* \"#utility.yul\":5175:5190   */\n  revert\n    /* \"#utility.yul\":5202:5522   */\ntag_31:\n    /* \"#utility.yul\":5246:5252   */\n  0x00\n    /* \"#utility.yul\":5283:5284   */\n  0x02\n    /* \"#utility.yul\":5277:5281   */\n  dup3\n    /* \"#utility.yul\":5273:5285   */\n  div\n    /* \"#utility.yul\":5263:5285   */\n  swap1\n  pop\n    /* \"#utility.yul\":5330:5331   */\n  0x01\n    /* \"#utility.yul\":5324:5328   */\n  dup3\n    /* \"#utility.yul\":5320:5332   */\n  and\n    /* \"#utility.yul\":5351:5369   */\n  dup1\n    /* \"#utility.yul\":5341:5422   */\n  tag_106\n  jumpi\n    /* \"#utility.yul\":5407:5411   */\n  0x7f\n    /* \"#utility.yul\":5399:5405   */\n  dup3\n    /* \"#utility.yul\":5395:5412   */\n  and\n    /* \"#utility.yul\":5385:5412   */\n  swap2\n  pop\n    /* \"#utility.yul\":5341:5422   */\ntag_106:\n    /* \"#utility.yul\":5469:5471   */\n  0x20\n    /* \"#utility.yul\":5461:5467   */\n  dup3\n    /* \"#utility.yul\":5458:5472   */\n  lt\n    /* \"#utility.yul\":5438:5456   */\n  dup2\n    /* \"#utility.yul\":5435:5473   */\n  sub\n    /* \"#utility.yul\":5432:5516   */\n  tag_107\n  jumpi\n    /* \"#utility.yul\":5488:5506   */\n  tag_108\n  tag_30\n  jump\t// in\ntag_108:\n    /* \"#utility.yul\":5432:5516   */\ntag_107:\n    /* \"#utility.yul\":5253:5522   */\n  pop\n    /* \"#utility.yul\":5202:5522   */\n  swap2\n  swap1\n  pop\n  jump\t// out\n    /* \"#utility.yul\":5528:5669   */\ntag_32:\n    /* \"#utility.yul\":5577:5581   */\n  0x00\n    /* \"#utility.yul\":5600:5603   */\n  dup2\n    /* \"#utility.yul\":5592:5603   */\n  swap1\n  pop\n    /* \"#utility.yul\":5623:5626   */\n  dup2\n    /* \"#utility.yul\":5620:5621   */\n  0x00\n    /* \"#utility.yul\":5613:5627   */\n  mstore\n    /* \"#utility.yul\":5657:5661   */\n  0x20\n    /* \"#utility.yul\":5654:5655   */\n  0x00\n    /* \"#utility.yul\":5644:5662   */\n  keccak256\n    /* \"#utility.yul\":5636:5662   */\n  swap1\n  pop\n    /* \"#utility.yul\":5528:5669   */\n  swap2\n  swap1\n  pop\n  jump\t// out\n    /* \"#utility.yul\":5675:5768   */\ntag_33:\n    /* \"#utility.yul\":5712:5718   */\n  0x00\n    /* \"#utility.yul\":5759:5761   */\n  0x20\n    /* \"#utility.yul\":5754:5756   */\n  0x1f\n    /* \"#utility.yul\":5747:5752   */\n  dup4\n    /* \"#utility.yul\":5743:5757   */\n  add\n    /* \"#utility.yul\":5739:5762   */\n  div\n    /* \"#utility.yul\":5729:5762   */\n  swap1\n  pop\n    /* \"#utility.yul\":5675:5768   */\n  swap2\n  swap1\n  pop\n  jump\t// out\n    /* \"#utility.yul\":5774:5881   */\ntag_34:\n    /* \"#utility.yul\":5818:5826   */\n  0x00\n    /* \"#utility.yul\":5868:5873   */\n  dup3\n    /* \"#utility.yul\":5862:5866   */\n  dup3\n    /* \"#utility.yul\":5858:5874   */\n  shl\n    /* \"#utility.yul\":5837:5874   */\n  swap1\n  pop\n    /* \"#utility.yul\":5774:5881   */\n  swap3\n  swap2\n  pop\n  pop\n  jump\t// out\n    /* \"#utility.yul\":5887:6280   */\ntag_35:\n    /* \"#utility.yul\":5956:5962   */\n  0x00\n    /* \"#utility.yul\":6006:6007   */\n  0x08\n    /* \"#utility.yul\":5994:6004   */\n  dup4\n    /* \"#utility.yul\":5990:6008   */\n  mul\n    /* \"#utility.yul\":6029:6126   */\n  tag_113\n    /* \"#utility.yul\":6059:6125   */\n  0xffffffffffffffffffffffffffffffffffffffffffffffffffffffffffffffff\n    /* \"#utility.yul\":6048:6057   */\n  dup3\n    /* \"#utility.yul\":6029:6126   */\n  tag_34\n  jump\t// in\ntag_113:\n    /* \"#utility.yul\":6147:6186   */\n  tag_114\n    /* \"#utility.yul\":6177:6185   */\n  dup7\n    /* \"#utility.yul\":6166:6175   */\n  dup4\n    /* \"#utility.yul\":6147:6186   */\n  tag_34\n  jump\t// in\ntag_114:\n    /* \"#utility.yul\":6135:6186   */\n  swap6\n  pop\n    /* \"#utility.yul\":6219:6223   */\n  dup1\n    /* \"#utility.yul\":6215:6224   */\n  not\n    /* \"#utility.yul\":6208:6213   */\n  dup5\n    /* \"#utility.yul\":6204:6225   */\n  and\n    /* \"#utility.yul\":6195:6225   */\n  swap4\n  pop\n    /* \"#utility.yul\":6268:6272   */\n  dup1\n    /* \"#utility.yul\":6258:6266   */\n  dup7\n    /* \"#utility.yul\":6254:6273   */\n  and\n    /* \"#utility.yul\":6247:6252   */\n  dup5\n    /* \"#utility.yul\":6244:6274   */\n  or\n    /* \"#utility.yul\":6234:6274   */\n  swap3\n  pop\n    /* \"#utility.yul\":5963:6280   */\n  pop\n  pop\n    /* \"#utility.yul\":5887:6280   */\n  swap4\n  swap3\n  pop\n  pop\n  pop\n  jump\t// out\n    /* \"#utility.yul\":6286:6346   */\ntag_36:\n    /* \"#utility.yul\":6314:6317   */\n  0x00\n    /* \"#utility.yul\":6335:6340   */\n  dup2\n    /* \"#utility.yul\":6328:6340   */\n  swap1\n  pop\n    /* \"#utility.yul\":6286:6346   */\n  swap2\n  swap1\n  pop\n  jump\t// out\n    /* \"#utility.yul\":6352:6494   */\ntag_37:\n    /* \"#utility.yul\":6402:6411   */\n  0x00\n    /* \"#utility.yul\":6435:6488   */\n  tag_117\n    /* \"#utility.yul\":6453:6487   */\n  tag_118\n    /* \"#utility.yul\":6462:6486   */\n  tag_119\n    /* \"#utility.yul\":6480:6485   */\n  dup5\n    /* \"#utility.yul\":6462:6486   */\n  tag_26\n  jump\t// in\ntag_119:\n    /* \"#utility.yul\":6453:6487   */\n  tag_36\n  jump\t// in\ntag_118:\n    /* \"#utility.yul\":6435:6488   */\n  tag_26\n  jump\t// in\ntag_117:\n    /* \"#utility.yul\":6422:6488   */\n  swap1\n  pop\n    /* \"#utility.yul\":6352:6494   */\n  swap2\n  swap1\n  pop\n  jump\t// out\n    /* \"#utility.yul\":6500:6575   */\ntag_38:\n    /* \"#utility.yul\":6543:6546   */\n  0x00\n    /* \"#utility.yul\":6564:6569   */\n  dup2\n    /* \"#utility.yul\":6557:6569   */\n  swap1\n  pop\n    /* \"#utility.yul\":6500:6575   */\n  swap2\n  swap1\n  pop\n  jump\t// out\n    /* \"#utility.yul\":6581:6850   */\ntag_39:\n    /* \"#utility.yul\":6691:6730   */\n  tag_122\n    /* \"#utility.yul\":6722:6729   */\n  dup4\n    /* \"#utility.yul\":6691:6730   */\n  tag_37\n  jump\t// in\ntag_122:\n    /* \"#utility.yul\":6752:6843   */\n  tag_123\n    /* \"#utility.yul\":6801:6842   */\n  tag_124\n    /* \"#utility.yul\":6825:6841   */\n  dup3\n    /* \"#utility.yul\":6801:6842   */\n  tag_38\n  jump\t// in\ntag_124:\n    /* \"#utility.yul\":6793:6799   */\n  dup5\n    /* \"#utility.yul\":6786:6790   */\n  dup5\n    /* \"#utility.yul\":6780:6791   */\n  sload\n    /* \"#utility.yul\":6752:6843   */\n  tag_35\n  jump\t// in\ntag_123:\n    /* \"#utility.yul\":6746:6750   */\n  dup3\n    /* \"#utility.yul\":6739:6844   */\n  sstore\n    /* \"#utility.yul\":6657:6850   */\n  pop\n    /* \"#utility.yul\":6581:6850   */\n  pop\n  pop\n  pop\n  jump\t// out\n    /* \"#utility.yul\":6856:6929   */\ntag_40:\n    /* \"#utility.yul\":6901:6904   */\n  0x00\n    /* \"#utility.yul\":6856:6929   */\n  swap1\n  jump\t// out\n    /* \"#utility.yul\":6935:7124   */\ntag_41:\n    /* \"#utility.yul\":7012:7044   */\n  tag_127\n  tag_40\n  jump\t// in\ntag_127:\n    /* \"#utility.yul\":7053:7118   */\n  tag_128\n    /* \"#utility.yul\":7111:7117   */\n  dup2\n    /* \"#utility.yul\":7103:7109   */\n  dup5\n    /* \"#utility.yul\":7097:7101   */\n  dup5\n    /* \"#utility.yul\":7053:7118   */\n  tag_39\n  jump\t// in\ntag_128:\n    /* \"#utility.yul\":6988:7124   */\n  pop\n    /* \"#utility.yul\":6935:7124   */\n  pop\n  pop\n  jump\t// out\n    /* \"#utility.yul\":7130:7316   */\ntag_42:\n    /* \"#utility.yul\":7190:7310   */\ntag_130:\n    /* \"#utility.yul\":7207:7210   */\n  dup2\n    /* \"#utility.yul\":7200:7205   */\n  dup2\n    /* \"#utility.yul\":7197:7211   */\n  lt\n    /* \"#utility.yul\":7190:7310   */\n  iszero\n  tag_132\n  jumpi\n    /* \"#utility.yul\":7261:7300   */\n  tag_133\n    /* \"#utility.yul\":7298:7299   */\n  0x00\n    /* \"#utility.yul\":7291:7296   */\n  dup3\n    /* \"#utility.yul\":7261:7300   */\n  tag_41\n  jump\t// in\ntag_133:\n    /* \"#utility.yul\":7234:7235   */\n  0x01\n    /* \"#utility.yul\":7227:7232   */\n  dup2\n    /* \"#utility.yul\":7223:7236   */\n  add\n    /* \"#utility.yul\":7214:7236   */\n  swap1\n  pop\n    /* \"#utility.yul\":7190:7310   */\n  jump(tag_130)\ntag_132:\n    /* \"#utility.yul\":7130:7316   */\n  pop\n  pop\n  jump\t// out\n    /* \"#utility.yul\":7322:7865   */\ntag_43:\n    /* \"#utility.yul\":7423:7425   */\n  0x1f\n    /* \"#utility.yul\":7418:7421   */\n  dup3\n    /* \"#utility.yul\":7415:7426   */\n  gt\n    /* \"#utility.yul\":7412:7858   */\n  iszero\n  tag_135\n  jumpi\n    /* \"#utility.yul\":7457:7495   */\n  tag_136\n    /* \"#utility.yul\":7489:7494   */\n  dup2\n    /* \"#utility.yul\":7457:7495   */\n  tag_32\n  jump\t// in\ntag_136:\n    /* \"#utility.yul\":7541:7570   */\n  tag_137\n    /* \"#utility.yul\":7559:7569   */\n  dup5\n    /* \"#utility.yul\":7541:7570   */\n  tag_33\n  jump\t// in\ntag_137:\n    /* \"#utility.yul\":7531:7539   */\n  dup2\n    /* \"#utility.yul\":7527:7571   */\n  add\n    /* \"#utility.yul\":7724:7726   */\n  0x20\n    /* \"#utility.yul\":7712:7722   */\n  dup6\n    /* \"#utility.yul\":7709:7727   */\n  lt\n    /* \"#utility.yul\":7706:7755   */\n  iszero\n  tag_138\n  jumpi\n    /* \"#utility.yul\":7745:7753   */\n  dup2\n    /* \"#utility.yul\":7730:7753   */\n  swap1\n  pop\n    /* \"#utility.yul\":7706:7755   */\ntag_138:\n    /* \"#utility.yul\":7768:7848   */\n  tag_139\n    /* \"#utility.yul\":7824:7846   */\n  tag_140\n    /* \"#utility.yul\":7842:7845   */\n  dup6\n    /* \"#utility.yul\":7824:7846   */\n  tag_33\n  jump\t// in\ntag_140:\n    /* \"#utility.yul\":7814:7822   */\n  dup4\n    /* \"#utility.yul\":7810:7847   */\n  add\n    /* \"#utility.yul\":7797:7808   */\n  dup3\n    /* \"#utility.yul\":7768:7848   */\n  tag_42\n  jump\t// in\ntag_139:\n    /* \"#utility.yul\":7427:7858   */\n  pop\n  pop\n    /* \"#utility.yul\":7412:7858   */\ntag_135:\n    /* \"#utility.yul\":7322:7865   */\n  pop\n  pop\n  pop\n  jump\t// out\n    /* \"#utility.yul\":7871:7988   */\ntag_44:\n    /* \"#utility.yul\":7925:7933   */\n  0x00\n    /* \"#utility.yul\":7975:7980   */\n  dup3\n    /* \"#utility.yul\":7969:7973   */\n  dup3\n    /* \"#utility.yul\":7965:7981   */\n  shr\n    /* \"#utility.yul\":7944:7981   */\n  swap1\n  pop\n    /* \"#utility.yul\":7871:7988   */\n  swap3\n  swap2\n  pop\n  pop\n  jump\t// out\n    /* \"#utility.yul\":7994:8163   */\ntag_45:\n    /* \"#utility.yul\":8038:8044   */\n  0x00\n    /* \"#utility.yul\":8071:8122   */\n  tag_143\n    /* \"#utility.yul\":8119:8120   */\n  0x00\n    /* \"#utility.yul\":8115:8121   */\n  not\n    /* \"#utility.yul\":8107:8112   */\n  dup5\n    /* \"#utility.yul\":8104:8105   */\n  0x08\n    /* \"#utility.yul\":8100:8113   */\n  mul\n    /* \"#utility.yul\":8071:8122   */\n  tag_44\n  jump\t// in\ntag_143:\n    /* \"#utility.yul\":8067:8123   */\n  not\n    /* \"#utility.yul\":8152:8156   */\n  dup1\n    /* \"#utility.yul\":8146:8150   */\n  dup4\n    /* \"#utility.yul\":8142:8157   */\n  and\n    /* \"#utility.yul\":8132:8157   */\n  swap2\n  pop\n    /* \"#utility.yul\":8045:8163   */\n  pop\n    /* \"#utility.yul\":7994:8163   */\n  swap3\n  swap2\n  pop\n  pop\n  jump\t// out\n    /* \"#utility.yul\":8168:8463   */\ntag_46:\n    /* \"#utility.yul\":8244:8248   */\n  0x00\n    /* \"#utility.yul\":8390:8419   */\n  tag_145\n    /* \"#utility.yul\":8415:8418   */\n  dup4\n    /* \"#utility.yul\":8409:8413   */\n  dup4\n    /* \"#utility.yul\":8390:8419   */\n  tag_45\n  jump\t// in\ntag_145:\n    /* \"#utility.yul\":8382:8419   */\n  swap2\n  pop\n    /* \"#utility.yul\":8452:8455   */\n  dup3\n    /* \"#utility.yul\":8449:8450   */\n  0x02\n    /* \"#utility.yul\":8445:8456   */\n  mul\n    /* \"#utility.yul\":8439:8443   */\n  dup3\n    /* \"#utility.yul\":8436:8457   */\n  or\n    /* \"#utility.yul\":8428:8457   */\n  swap1\n  pop\n    /* \"#utility.yul\":8168:8463   */\n  swap3\n  swap2\n  pop\n  pop\n  jump\t// out\n    /* \"#utility.yul\":8468:9863   */\ntag_7:\n    /* \"#utility.yul\":8585:8622   */\n  tag_147\n    /* \"#utility.yul\":8618:8621   */\n  dup3\n    /* \"#utility.yul\":8585:8622   */\n  tag_29\n  jump\t// in\ntag_147:\n    /* \"#utility.yul\":8687:8705   */\n  0xffffffffffffffff\n    /* \"#utility.yul\":8679:8685   */\n  dup2\n    /* \"#utility.yul\":8676:8706   */\n  gt\n    /* \"#utility.yul\":8673:8729   */\n  iszero\n  tag_148\n  jumpi\n    /* \"#utility.yul\":8709:8727   */\n  tag_149\n  tag_19\n  jump\t// in\ntag_149:\n    /* \"#utility.yul\":8673:8729   */\ntag_148:\n    /* \"#utility.yul\":8753:8791   */\n  tag_150\n    /* \"#utility.yul\":8785:8789   */\n  dup3\n    /* \"#utility.yul\":8779:8790   */\n  sload\n    /* \"#utility.yul\":8753:8791   */\n  tag_31\n  jump\t// in\ntag_150:\n    /* \"#utility.yul\":8838:8905   */\n  tag_151\n    /* \"#utility.yul\":8898:8904   */\n  dup3\n    /* \"#utility.yul\":8890:8896   */\n  dup3\n    /* \"#utility.yul\":8884:8888   */\n  dup6\n    /* \"#utility.yul\":8838:8905   */\n  tag_43\n  jump\t// in\ntag_151:\n    /* \"#utility.yul\":8932:8933   */\n  0x00\n    /* \"#utility.yul\":8956:8960   */\n  0x20\n    /* \"#utility.yul\":8943:8960   */\n  swap1\n  pop\n    /* \"#utility.yul\":8988:8990   */\n  0x1f\n    /* \"#utility.yul\":8980:8986   */\n  dup4\n    /* \"#utility.yul\":8977:8991   */\n  gt\n    /* \"#utility.yul\":9005:9006   */\n  0x01\n    /* \"#utility.yul\":9000:9618   */\n  dup2\n  eq\n  tag_153\n  jumpi\n    /* \"#utility.yul\":9662:9663   */\n  0x00\n    /* \"#utility.yul\":9679:9685   */\n  dup5\n    /* \"#utility.yul\":9676:9753   */\n  iszero\n  tag_154\n  jumpi\n    /* \"#utility.yul\":9728:9737   */\n  dup3\n    /* \"#utility.yul\":9723:9726   */\n  dup8\n    /* \"#utility.yul\":9719:9738   */\n  add\n    /* \"#utility.yul\":9713:9739   */\n  mload\n    /* \"#utility.yul\":9704:9739   */\n  swap1\n  pop\n    /* \"#utility.yul\":9676:9753   */\ntag_154:\n    /* \"#utility.yul\":9779:9846   */\n  tag_155\n    /* \"#utility.yul\":9839:9845   */\n  dup6\n    /* \"#utility.yul\":9832:9837   */\n  dup3\n    /* \"#utility.yul\":9779:9846   */\n  tag_46\n  jump\t// in\ntag_155:\n    /* \"#utility.yul\":9773:9777   */\n  dup7\n    /* \"#utility.yul\":9766:9847   */\n  sstore\n    /* \"#utility.yul\":9635:9857   */\n  pop\n    /* \"#utility.yul\":8970:9857   */\n  jump(tag_152)\n    /* \"#utility.yul\":9000:9618   */\ntag_153:\n    /* \"#utility.yul\":9052:9056   */\n  0x1f\n    /* \"#utility.yul\":9048:9057   */\n  not\n    /* \"#utility.yul\":9040:9046   */\n  dup5\n    /* \"#utility.yul\":9036:9058   */\n  and\n    /* \"#utility.yul\":9086:9123   */\n  tag_156\n    /* \"#utility.yul\":9118:9122   */\n  dup7\n    /* \"#utility.yul\":9086:9123   */\n  tag_32\n  jump\t// in\ntag_156:\n    /* \"#utility.yul\":9145:9146   */\n  0x00\n    /* \"#utility.yul\":9159:9367   */\ntag_157:\n    /* \"#utility.yul\":9173:9180   */\n  dup3\n    /* \"#utility.yul\":9170:9171   */\n  dup2\n    /* \"#utility.yul\":9167:9181   */\n  lt\n    /* \"#utility.yul\":9159:9367   */\n  iszero\n  tag_159\n  jumpi\n    /* \"#utility.yul\":9252:9261   */\n  dup5\n    /* \"#utility.yul\":9247:9250   */\n  dup10\n    /* \"#utility.yul\":9243:9262   */\n  add\n    /* \"#utility.yul\":9237:9263   */\n  mload\n    /* \"#utility.yul\":9229:9235   */\n  dup3\n    /* \"#utility.yul\":9222:9264   */\n  sstore\n    /* \"#utility.yul\":9303:9304   */\n  0x01\n    /* \"#utility.yul\":9295:9301   */\n  dup3\n    /* \"#utility.yul\":9291:9305   */\n  add\n    /* \"#utility.yul\":9281:9305   */\n  swap2\n  pop\n    /* \"#utility.yul\":9350:9352   */\n  0x20\n    /* \"#utility.yul\":9339:9348   */\n  dup6\n    /* \"#utility.yul\":9335:9353   */\n  add\n    /* \"#utility.yul\":9322:9353   */\n  swap5\n  pop\n    /* \"#utility.yul\":9196:9200   */\n  0x20\n    /* \"#utility.yul\":9193:9194   */\n  dup2\n    /* \"#utility.yul\":9189:9201   */\n  add\n    /* \"#utility.yul\":9184:9201   */\n  swap1\n  pop\n    /* \"#utility.yul\":9159:9367   */\n  jump(tag_157)\ntag_159:\n    /* \"#utility.yul\":9395:9401   */\n  dup7\n    /* \"#utility.yul\":9386:9393   */\n  dup4\n    /* \"#utility.yul\":9383:9402   */\n  lt\n    /* \"#utility.yul\":9380:9559   */\n  iszero\n  tag_160\n  jumpi\n    /* \"#utility.yul\":9453:9462   */\n  dup5\n    /* \"#utility.yul\":9448:9451   */\n  dup10\n    /* \"#utility.yul\":9444:9463   */\n  add\n    /* \"#utility.yul\":9438:9464   */\n  mload\n    /* \"#utility.yul\":9496:9544   */\n  tag_161\n    /* \"#utility.yul\":9538:9542   */\n  0x1f\n    /* \"#utility.yul\":9530:9536   */\n  dup10\n    /* \"#utility.yul\":9526:9543   */\n  and\n    /* \"#utility.yul\":9515:9524   */\n  dup3\n    /* \"#utility.yul\":9496:9544   */\n  tag_45\n  jump\t// in\ntag_161:\n    /* \"#utility.yul\":9488:9494   */\n  dup4\n    /* \"#utility.yul\":9481:9545   */\n  sstore\n    /* \"#utility.yul\":9403:9559   */\n  pop\n    /* \"#utility.yul\":9380:9559   */\ntag_160:\n    /* \"#utility.yul\":9605:9606   */\n  0x01\n    /* \"#utility.yul\":9601:9602   */\n  0x02\n    /* \"#utility.yul\":9593:9599   */\n  dup9\n    /* \"#utility.yul\":9589:9603   */\n  mul\n    /* \"#utility.yul\":9585:9607   */\n  add\n    /* \"#utility.yul\":9579:9583   */\n  dup9\n    /* \"#utility.yul\":9572:9608   */\n  sstore\n    /* \"#utility.yul\":9007:9618   */\n  pop\n  pop\n  pop\n    /* \"#utility.yul\":8970:9857   */\ntag_152:\n  pop\n    /* \"#utility.yul\":8560:9863   */\n  pop\n  pop\n  pop\n    /* \"#utility.yul\":8468:9863   */\n  pop\n  pop\n  jump\t// out\n    /* \"contracts/real_estate.sol\":60:2846  contract RealEstate {... */\ntag_8:\n  dataSize(sub_0)\n  dup1\n  dataOffset(sub_0)\n  0x00\n  codecopy\n  0x00\n  return\nstop\n\nsub_0: assembly {\n        /* \"contracts/real_estate.sol\":60:2846  contract RealEstate {... */\n      mstore(0x40, 0x80)\n      jumpi(tag_1, lt(calldatasize, 0x04))\n      shr(0xe0, calldataload(0x00))\n      dup1\n      0x7150d8ae\n      gt\n      tag_15\n      jumpi\n      dup1\n      0x9fb2a15f\n      gt\n      tag_16\n      jumpi\n      dup1\n      0x9fb2a15f\n      eq\n      tag_11\n      jumpi\n      dup1\n      0xa6b513ee\n      eq\n      tag_12\n      jumpi\n      dup1\n      0xb0019c27\n      eq\n      tag_13\n      jumpi\n      dup1\n      0xbed6a602\n      eq\n      tag_14\n      jumpi\n      jump(tag_1)\n    tag_16:\n      dup1\n      0x7150d8ae\n      eq\n      tag_8\n      jumpi\n      dup1\n      0x756a85ed\n      eq\n      tag_9\n      jumpi\n      dup1\n      0x850c9f80\n      eq\n      tag_10\n      jumpi\n      jump(tag_1)\n    tag_15:\n      dup1\n      0x08551a53\n      eq\n      tag_2\n      jumpi\n      dup1\n      0x56f50473\n      eq\n      tag_3\n      jumpi\n      dup1\n      0x58a687ec\n      eq\n      tag_4\n      jumpi\n      dup1\n      0x6548e98a\n      eq\n      tag_5\n      jumpi\n      dup1\n      0x66440d71\n      eq\n      tag_6\n      jumpi\n      dup1\n      0x6fe48837\n      eq\n      tag_7\n      jumpi\n    tag_1:\n      0x00\n      dup1\n      revert\n        /* \"contracts/real_estate.sol\":87:108  address public seller */\n    tag_2:\n      callvalue\n      dup1\n      iszero\n      tag_17\n      jumpi\n      0x00\n      dup1\n      revert\n    tag_17:\n      pop\n      tag_18\n      tag_19\n      jump\t// in\n    tag_18:\n      mload(0x40)\n      tag_20\n      swap2\n      swap1\n      tag_21\n      jump\t// in\n    tag_20:\n      mload(0x40)\n      dup1\n      swap2\n      sub\n      swap1\n      return\n        /* \"contracts/real_estate.sol\":210:236  uint256 public downPayment */\n    tag_3:\n      callvalue\n      dup1\n      iszero\n      tag_22\n      jumpi\n      0x00\n      dup1\n      revert\n    tag_22:\n      pop\n      tag_23\n      tag_24\n      jump\t// in\n    tag_23:\n      mload(0x40)\n      tag_25\n      swap2\n      swap1\n      tag_26\n      jump\t// in\n    tag_25:\n      mload(0x40)\n      dup1\n      swap2\n      sub\n      swap1\n      return\n        /* \"contracts/real_estate.sol\":2576:2843  function finalizeSale() public onlyBuyer {... */\n    tag_4:\n      callvalue\n      dup1\n      iszero\n      tag_27\n      jumpi\n      0x00\n      dup1\n      revert\n    tag_27:\n      pop\n      tag_28\n      tag_29\n      jump\t// in\n    tag_28:\n      stop\n        /* \"contracts/real_estate.sol\":356:387  bool public propertyTransferred */\n    tag_5:\n      callvalue\n      dup1\n      iszero\n      tag_30\n      jumpi\n      0x00\n      dup1\n      revert\n    tag_30:\n      pop\n      tag_31\n      tag_32\n      jump\t// in\n    tag_31:\n      mload(0x40)\n      tag_33\n      swap2\n      swap1\n      tag_34\n      jump\t// in\n    tag_33:\n      mload(0x40)\n      dup1\n      swap2\n      sub\n      swap1\n      return\n        /* \"contracts/real_estate.sol\":142:171  string public propertyAddress */\n    tag_6:\n      callvalue\n      dup1\n      iszero\n      tag_35\n      jumpi\n      0x00\n      dup1\n      revert\n    tag_35:\n      pop\n      tag_36\n      tag_37\n      jump\t// in\n    tag_36:\n      mload(0x40)\n      tag_38\n      swap2\n      swap1\n      tag_39\n      jump\t// in\n    tag_38:\n      mload(0x40)\n      dup1\n      swap2\n      sub\n      swap1\n      return\n        /* \"contracts/real_estate.sol\":1427:1819  function makeDownPayment() public payable onlyBuyer {... */\n    tag_7:\n      tag_40\n      tag_41\n      jump\t// in\n    tag_40:\n      stop\n        /* \"contracts/real_estate.sol\":115:135  address public buyer */\n    tag_8:\n      callvalue\n      dup1\n      iszero\n      tag_42\n      jumpi\n      0x00\n      dup1\n      revert\n    tag_42:\n      pop\n      tag_43\n      tag_44\n      jump\t// in\n    tag_43:\n      mload(0x40)\n      tag_45\n      swap2\n      swap1\n      tag_21\n      jump\t// in\n    tag_45:\n      mload(0x40)\n      dup1\n      swap2\n      sub\n      swap1\n      return\n        /* \"contracts/real_estate.sol\":2291:2568  function refundDownPayment() public onlySeller {... */\n    tag_9:\n      callvalue\n      dup1\n      iszero\n      tag_46\n      jumpi\n      0x00\n      dup1\n      revert\n    tag_46:\n      pop\n      tag_47\n      tag_48\n      jump\t// in\n    tag_47:\n      stop\n        /* \"contracts/real_estate.sol\":322:349  bool public downPaymentMade */\n    tag_10:\n      callvalue\n      dup1\n      iszero\n      tag_49\n      jumpi\n      0x00\n      dup1\n      revert\n    tag_49:\n      pop\n      tag_50\n      tag_51\n      jump\t// in\n    tag_50:\n      mload(0x40)\n      tag_52\n      swap2\n      swap1\n      tag_34\n      jump\t// in\n    tag_52:\n      mload(0x40)\n      dup1\n      swap2\n      sub\n      swap1\n      return\n        /* \"contracts/real_estate.sol\":1827:2283  function transferProperty() public onlySeller {... */\n    tag_11:\n      callvalue\n      dup1\n      iszero\n      tag_53\n      jumpi\n      0x00\n      dup1\n      revert\n    tag_53:\n      pop\n      tag_54\n      tag_55\n      jump\t// in\n    tag_54:\n      stop\n        /* \"contracts/real_estate.sol\":178:203  uint256 public finalPrice */\n    tag_12:\n      callvalue\n      dup1\n      iszero\n      tag_56\n      jumpi\n      0x00\n      dup1\n      revert\n    tag_56:\n      pop\n      tag_57\n      tag_58\n      jump\t// in\n    tag_57:\n      mload(0x40)\n      tag_59\n      swap2\n      swap1\n      tag_26\n      jump\t// in\n    tag_59:\n      mload(0x40)\n      dup1\n      swap2\n      sub\n      swap1\n      return\n        /* \"contracts/real_estate.sol\":243:277  uint256 public downPaymentDeadline */\n    tag_13:\n      callvalue\n      dup1\n      iszero\n      tag_60\n      jumpi\n      0x00\n      dup1\n      revert\n    tag_60:\n      pop\n      tag_61\n      tag_62\n      jump\t// in\n    tag_61:\n      mload(0x40)\n      tag_63\n      swap2\n      swap1\n      tag_26\n      jump\t// in\n    tag_63:\n      mload(0x40)\n      dup1\n      swap2\n      sub\n      swap1\n      return\n        /* \"contracts/real_estate.sol\":284:315  uint256 public transferDeadline */\n    tag_14:\n      callvalue\n      dup1\n      iszero\n      tag_64\n      jumpi\n      0x00\n      dup1\n      revert\n    tag_64:\n      pop\n      tag_65\n      tag_66\n      jump\t// in\n    tag_65:\n      mload(0x40)\n      tag_67\n      swap2\n      swap1\n      tag_26\n      jump\t// in\n    tag_67:\n      mload(0x40)\n      dup1\n      swap2\n      sub\n      swap1\n      return\n        /* \"contracts/real_estate.sol\":87:108  address public seller */\n    tag_19:\n      0x00\n      dup1\n      sload\n      swap1\n      0x0100\n      exp\n      swap1\n      div\n      0xffffffffffffffffffffffffffffffffffffffff\n      and\n      dup2\n      jump\t// out\n        /* \"contracts/real_estate.sol\":210:236  uint256 public downPayment */\n    tag_24:\n      sload(0x04)\n      dup2\n      jump\t// out\n        /* \"contracts/real_estate.sol\":2576:2843  function finalizeSale() public onlyBuyer {... */\n    tag_29:\n        /* \"contracts/real_estate.sol\":1218:1223  buyer */\n      0x01\n      0x00\n      swap1\n      sload\n      swap1\n      0x0100\n      exp\n      swap1\n      div\n      0xffffffffffffffffffffffffffffffffffffffff\n      and\n        /* \"contracts/real_estate.sol\":1204:1223  msg.sender == buyer */\n      0xffffffffffffffffffffffffffffffffffffffff\n      and\n        /* \"contracts/real_estate.sol\":1204:1214  msg.sender */\n      caller\n        /* \"contracts/real_estate.sol\":1204:1223  msg.sender == buyer */\n      0xffffffffffffffffffffffffffffffffffffffff\n      and\n      eq\n        /* \"contracts/real_estate.sol\":1196:1266  require(msg.sender == buyer, \"Only the buyer can call this function.\") */\n      tag_69\n      jumpi\n      mload(0x40)\n      0x08c379a000000000000000000000000000000000000000000000000000000000\n      dup2\n      mstore\n      0x04\n      add\n      tag_70\n      swap1\n      tag_71\n      jump\t// in\n    tag_70:\n      mload(0x40)\n      dup1\n      swap2\n      sub\n      swap1\n      revert\n    tag_69:\n        /* \"contracts/real_estate.sol\":2636:2651  downPaymentMade */\n      0x07\n      0x00\n      swap1\n      sload\n      swap1\n      0x0100\n      exp\n      swap1\n      div\n      0xff\n      and\n        /* \"contracts/real_estate.sol\":2628:2687  require(downPaymentMade, \"Down payment has not been made.\") */\n      tag_73\n      jumpi\n      mload(0x40)\n      0x08c379a000000000000000000000000000000000000000000000000000000000\n      dup2\n      mstore\n      0x04\n      add\n      tag_74\n      swap1\n      tag_75\n      jump\t// in\n    tag_74:\n      mload(0x40)\n      dup1\n      swap2\n      sub\n      swap1\n      revert\n    tag_73:\n        /* \"contracts/real_estate.sol\":2706:2725  propertyTransferred */\n      0x07\n      0x01\n      swap1\n      sload\n      swap1\n      0x0100\n      exp\n      swap1\n      div\n      0xff\n      and\n        /* \"contracts/real_estate.sol\":2698:2764  require(propertyTransferred, \"Property has not been transferred.\") */\n      tag_76\n      jumpi\n      mload(0x40)\n      0x08c379a000000000000000000000000000000000000000000000000000000000\n      dup2\n      mstore\n      0x04\n      add\n      tag_77\n      swap1\n      tag_78\n      jump\t// in\n    tag_77:\n      mload(0x40)\n      dup1\n      swap2\n      sub\n      swap1\n      revert\n    tag_76:\n        /* \"contracts/real_estate.sol\":2793:2799  seller */\n      0x00\n      dup1\n      sload\n      swap1\n      0x0100\n      exp\n      swap1\n      div\n      0xffffffffffffffffffffffffffffffffffffffff\n      and\n        /* \"contracts/real_estate.sol\":2785:2809  payable(seller).transfer */\n      0xffffffffffffffffffffffffffffffffffffffff\n      and\n        /* \"contracts/real_estate.sol\":2785:2835  payable(seller).transfer(finalPrice - downPayment) */\n      0x08fc\n        /* \"contracts/real_estate.sol\":2823:2834  downPayment */\n      sload(0x04)\n        /* \"contracts/real_estate.sol\":2810:2820  finalPrice */\n      sload(0x03)\n        /* \"contracts/real_estate.sol\":2810:2834  finalPrice - downPayment */\n      tag_79\n      swap2\n      swap1\n      tag_80\n      jump\t// in\n    tag_79:\n        /* \"contracts/real_estate.sol\":2785:2835  payable(seller).transfer(finalPrice - downPayment) */\n      swap1\n      dup2\n      iszero\n      mul\n      swap1\n      mload(0x40)\n      0x00\n      mload(0x40)\n      dup1\n      dup4\n      sub\n      dup2\n      dup6\n      dup9\n      dup9\n      call\n      swap4\n      pop\n      pop\n      pop\n      pop\n      iszero\n      dup1\n      iszero\n      tag_82\n      jumpi\n      returndatasize\n      0x00\n      dup1\n      returndatacopy\n      revert(0x00, returndatasize)\n    tag_82:\n      pop\n        /* \"contracts/real_estate.sol\":2576:2843  function finalizeSale() public onlyBuyer {... */\n      jump\t// out\n        /* \"contracts/real_estate.sol\":356:387  bool public propertyTransferred */\n    tag_32:\n      0x07\n      0x01\n      swap1\n      sload\n      swap1\n      0x0100\n      exp\n      swap1\n      div\n      0xff\n      and\n      dup2\n      jump\t// out\n        /* \"contracts/real_estate.sol\":142:171  string public propertyAddress */\n    tag_37:\n      0x02\n      dup1\n      sload\n      tag_83\n      swap1\n      tag_84\n      jump\t// in\n    tag_83:\n      dup1\n      0x1f\n      add\n      0x20\n      dup1\n      swap2\n      div\n      mul\n      0x20\n      add\n      mload(0x40)\n      swap1\n      dup2\n      add\n      0x40\n      mstore\n      dup1\n      swap3\n      swap2\n      swap1\n      dup2\n      dup2\n      mstore\n      0x20\n      add\n      dup3\n      dup1\n      sload\n      tag_85\n      swap1\n      tag_84\n      jump\t// in\n    tag_85:\n      dup1\n      iszero\n      tag_86\n      jumpi\n      dup1\n      0x1f\n      lt\n      tag_87\n      jumpi\n      0x0100\n      dup1\n      dup4\n      sload\n      div\n      mul\n      dup4\n      mstore\n      swap2\n      0x20\n      add\n      swap2\n      jump(tag_86)\n    tag_87:\n      dup3\n      add\n      swap2\n      swap1\n      0x00\n      mstore\n      keccak256(0x00, 0x20)\n      swap1\n    tag_88:\n      dup2\n      sload\n      dup2\n      mstore\n      swap1\n      0x01\n      add\n      swap1\n      0x20\n      add\n      dup1\n      dup4\n      gt\n      tag_88\n      jumpi\n      dup3\n      swap1\n      sub\n      0x1f\n      and\n      dup3\n      add\n      swap2\n    tag_86:\n      pop\n      pop\n      pop\n      pop\n      pop\n      dup2\n      jump\t// out\n        /* \"contracts/real_estate.sol\":1427:1819  function makeDownPayment() public payable onlyBuyer {... */\n    tag_41:\n        /* \"contracts/real_estate.sol\":1218:1223  buyer */\n      0x01\n      0x00\n      swap1\n      sload\n      swap1\n      0x0100\n      exp\n      swap1\n      div\n      0xffffffffffffffffffffffffffffffffffffffff\n      and\n        /* \"contracts/real_estate.sol\":1204:1223  msg.sender == buyer */\n      0xffffffffffffffffffffffffffffffffffffffff\n      and\n        /* \"contracts/real_estate.sol\":1204:1214  msg.sender */\n      caller\n        /* \"contracts/real_estate.sol\":1204:1223  msg.sender == buyer */\n      0xffffffffffffffffffffffffffffffffffffffff\n      and\n      eq\n        /* \"contracts/real_estate.sol\":1196:1266  require(msg.sender == buyer, \"Only the buyer can call this function.\") */\n      tag_90\n      jumpi\n      mload(0x40)\n      0x08c379a000000000000000000000000000000000000000000000000000000000\n      dup2\n      mstore\n      0x04\n      add\n      tag_91\n      swap1\n      tag_71\n      jump\t// in\n    tag_91:\n      mload(0x40)\n      dup1\n      swap2\n      sub\n      swap1\n      revert\n    tag_90:\n        /* \"contracts/real_estate.sol\":1517:1536  downPaymentDeadline */\n      sload(0x05)\n        /* \"contracts/real_estate.sol\":1498:1513  block.timestamp */\n      timestamp\n        /* \"contracts/real_estate.sol\":1498:1536  block.timestamp <= downPaymentDeadline */\n      gt\n      iszero\n        /* \"contracts/real_estate.sol\":1490:1574  require(block.timestamp <= downPaymentDeadline, \"Down payment deadline has passed.\") */\n      tag_93\n      jumpi\n      mload(0x40)\n      0x08c379a000000000000000000000000000000000000000000000000000000000\n      dup2\n      mstore\n      0x04\n      add\n      tag_94\n      swap1\n      tag_95\n      jump\t// in\n    tag_94:\n      mload(0x40)\n      dup1\n      swap2\n      sub\n      swap1\n      revert\n    tag_93:\n        /* \"contracts/real_estate.sol\":1606:1617  downPayment */\n      sload(0x04)\n        /* \"contracts/real_estate.sol\":1593:1602  msg.value */\n      callvalue\n        /* \"contracts/real_estate.sol\":1593:1617  msg.value == downPayment */\n      eq\n        /* \"contracts/real_estate.sol\":1585:1652  require(msg.value == downPayment, \"Incorrect down payment amount.\") */\n      tag_96\n      jumpi\n      mload(0x40)\n      0x08c379a000000000000000000000000000000000000000000000000000000000\n      dup2\n      mstore\n      0x04\n      add\n      tag_97\n      swap1\n      tag_98\n      jump\t// in\n    tag_97:\n      mload(0x40)\n      dup1\n      swap2\n      sub\n      swap1\n      revert\n    tag_96:\n        /* \"contracts/real_estate.sol\":1672:1687  downPaymentMade */\n      0x07\n      0x00\n      swap1\n      sload\n      swap1\n      0x0100\n      exp\n      swap1\n      div\n      0xff\n      and\n        /* \"contracts/real_estate.sol\":1671:1687  !downPaymentMade */\n      iszero\n        /* \"contracts/real_estate.sol\":1663:1727  require(!downPaymentMade, \"Down payment has already been made.\") */\n      tag_99\n      jumpi\n      mload(0x40)\n      0x08c379a000000000000000000000000000000000000000000000000000000000\n      dup2\n      mstore\n      0x04\n      add\n      tag_100\n      swap1\n      tag_101\n      jump\t// in\n    tag_100:\n      mload(0x40)\n      dup1\n      swap2\n      sub\n      swap1\n      revert\n    tag_99:\n        /* \"contracts/real_estate.sol\":1758:1762  true */\n      0x01\n        /* \"contracts/real_estate.sol\":1740:1755  downPaymentMade */\n      0x07\n      0x00\n        /* \"contracts/real_estate.sol\":1740:1762  downPaymentMade = true */\n      0x0100\n      exp\n      dup2\n      sload\n      dup2\n      0xff\n      mul\n      not\n      and\n      swap1\n      dup4\n      iszero\n      iszero\n      mul\n      or\n      swap1\n      sstore\n      pop\n        /* \"contracts/real_estate.sol\":1794:1799  buyer */\n      0x01\n      0x00\n      swap1\n      sload\n      swap1\n      0x0100\n      exp\n      swap1\n      div\n      0xffffffffffffffffffffffffffffffffffffffff\n      and\n        /* \"contracts/real_estate.sol\":1778:1811  DownPaymentMade(buyer, msg.value) */\n      0xffffffffffffffffffffffffffffffffffffffff\n      and\n      0x4385a0767ce15bd0a54ba1d9c29a6a6ea9dce41acdfbffed497a64e76705b8ad\n        /* \"contracts/real_estate.sol\":1801:1810  msg.value */\n      callvalue\n        /* \"contracts/real_estate.sol\":1778:1811  DownPaymentMade(buyer, msg.value) */\n      mload(0x40)\n      tag_102\n      swap2\n      swap1\n      tag_26\n      jump\t// in\n    tag_102:\n      mload(0x40)\n      dup1\n      swap2\n      sub\n      swap1\n      log2\n        /* \"contracts/real_estate.sol\":1427:1819  function makeDownPayment() public payable onlyBuyer {... */\n      jump\t// out\n        /* \"contracts/real_estate.sol\":115:135  address public buyer */\n    tag_44:\n      0x01\n      0x00\n      swap1\n      sload\n      swap1\n      0x0100\n      exp\n      swap1\n      div\n      0xffffffffffffffffffffffffffffffffffffffff\n      and\n      dup2\n      jump\t// out\n        /* \"contracts/real_estate.sol\":2291:2568  function refundDownPayment() public onlySeller {... */\n    tag_48:\n        /* \"contracts/real_estate.sol\":1349:1355  seller */\n      0x00\n      dup1\n      sload\n      swap1\n      0x0100\n      exp\n      swap1\n      div\n      0xffffffffffffffffffffffffffffffffffffffff\n      and\n        /* \"contracts/real_estate.sol\":1335:1355  msg.sender == seller */\n      0xffffffffffffffffffffffffffffffffffffffff\n      and\n        /* \"contracts/real_estate.sol\":1335:1345  msg.sender */\n      caller\n        /* \"contracts/real_estate.sol\":1335:1355  msg.sender == seller */\n      0xffffffffffffffffffffffffffffffffffffffff\n      and\n      eq\n        /* \"contracts/real_estate.sol\":1327:1399  require(msg.sender == seller, \"Only the seller can call this function.\") */\n      tag_104\n      jumpi\n      mload(0x40)\n      0x08c379a000000000000000000000000000000000000000000000000000000000\n      dup2\n      mstore\n      0x04\n      add\n      tag_105\n      swap1\n      tag_106\n      jump\t// in\n    tag_105:\n      mload(0x40)\n      dup1\n      swap2\n      sub\n      swap1\n      revert\n    tag_104:\n        /* \"contracts/real_estate.sol\":2375:2394  downPaymentDeadline */\n      sload(0x05)\n        /* \"contracts/real_estate.sol\":2357:2372  block.timestamp */\n      timestamp\n        /* \"contracts/real_estate.sol\":2357:2394  block.timestamp > downPaymentDeadline */\n      gt\n        /* \"contracts/real_estate.sol\":2349:2436  require(block.timestamp > downPaymentDeadline, \"Down payment deadline has not passed.\") */\n      tag_108\n      jumpi\n      mload(0x40)\n      0x08c379a000000000000000000000000000000000000000000000000000000000\n      dup2\n      mstore\n      0x04\n      add\n      tag_109\n      swap1\n      tag_110\n      jump\t// in\n    tag_109:\n      mload(0x40)\n      dup1\n      swap2\n      sub\n      swap1\n      revert\n    tag_108:\n        /* \"contracts/real_estate.sol\":2456:2471  downPaymentMade */\n      0x07\n      0x00\n      swap1\n      sload\n      swap1\n      0x0100\n      exp\n      swap1\n      div\n      0xff\n      and\n        /* \"contracts/real_estate.sol\":2455:2471  !downPaymentMade */\n      iszero\n        /* \"contracts/real_estate.sol\":2447:2511  require(!downPaymentMade, \"Down payment has already been made.\") */\n      tag_111\n      jumpi\n      mload(0x40)\n      0x08c379a000000000000000000000000000000000000000000000000000000000\n      dup2\n      mstore\n      0x04\n      add\n      tag_112\n      swap1\n      tag_101\n      jump\t// in\n    tag_112:\n      mload(0x40)\n      dup1\n      swap2\n      sub\n      swap1\n      revert\n    tag_111:\n        /* \"contracts/real_estate.sol\":2532:2537  buyer */\n      0x01\n      0x00\n      swap1\n      sload\n      swap1\n      0x0100\n      exp\n      swap1\n      div\n      0xffffffffffffffffffffffffffffffffffffffff\n      and\n        /* \"contracts/real_estate.sol\":2524:2547  payable(buyer).transfer */\n      0xffffffffffffffffffffffffffffffffffffffff\n      and\n        /* \"contracts/real_estate.sol\":2524:2560  payable(buyer).transfer(downPayment) */\n      0x08fc\n        /* \"contracts/real_estate.sol\":2548:2559  downPayment */\n      sload(0x04)\n        /* \"contracts/real_estate.sol\":2524:2560  payable(buyer).transfer(downPayment) */\n      swap1\n      dup2\n      iszero\n      mul\n      swap1\n      mload(0x40)\n      0x00\n      mload(0x40)\n      dup1\n      dup4\n      sub\n      dup2\n      dup6\n      dup9\n      dup9\n      call\n      swap4\n      pop\n      pop\n      pop\n      pop\n      iszero\n      dup1\n      iszero\n      tag_114\n      jumpi\n      returndatasize\n      0x00\n      dup1\n      returndatacopy\n      revert(0x00, returndatasize)\n    tag_114:\n      pop\n        /* \"contracts/real_estate.sol\":2291:2568  function refundDownPayment() public onlySeller {... */\n      jump\t// out\n        /* \"contracts/real_estate.sol\":322:349  bool public downPaymentMade */\n    tag_51:\n      0x07\n      0x00\n      swap1\n      sload\n      swap1\n      0x0100\n      exp\n      swap1\n      div\n      0xff\n      and\n      dup2\n      jump\t// out\n        /* \"contracts/real_estate.sol\":1827:2283  function transferProperty() public onlySeller {... */\n    tag_55:\n        /* \"contracts/real_estate.sol\":1349:1355  seller */\n      0x00\n      dup1\n      sload\n      swap1\n      0x0100\n      exp\n      swap1\n      div\n      0xffffffffffffffffffffffffffffffffffffffff\n      and\n        /* \"contracts/real_estate.sol\":1335:1355  msg.sender == seller */\n      0xffffffffffffffffffffffffffffffffffffffff\n      and\n        /* \"contracts/real_estate.sol\":1335:1345  msg.sender */\n      caller\n        /* \"contracts/real_estate.sol\":1335:1355  msg.sender == seller */\n      0xffffffffffffffffffffffffffffffffffffffff\n      and\n      eq\n        /* \"contracts/real_estate.sol\":1327:1399  require(msg.sender == seller, \"Only the seller can call this function.\") */\n      tag_116\n      jumpi\n      mload(0x40)\n      0x08c379a000000000000000000000000000000000000000000000000000000000\n      dup2\n      mstore\n      0x04\n      add\n      tag_117\n      swap1\n      tag_106\n      jump\t// in\n    tag_117:\n      mload(0x40)\n      dup1\n      swap2\n      sub\n      swap1\n      revert\n    tag_116:\n        /* \"contracts/real_estate.sol\":1892:1907  downPaymentMade */\n      0x07\n      0x00\n      swap1\n      sload\n      swap1\n      0x0100\n      exp\n      swap1\n      div\n      0xff\n      and\n        /* \"contracts/real_estate.sol\":1884:1943  require(downPaymentMade, \"Down payment has not been made.\") */\n      tag_119\n      jumpi\n      mload(0x40)\n      0x08c379a000000000000000000000000000000000000000000000000000000000\n      dup2\n      mstore\n      0x04\n      add\n      tag_120\n      swap1\n      tag_75\n      jump\t// in\n    tag_120:\n      mload(0x40)\n      dup1\n      swap2\n      sub\n      swap1\n      revert\n    tag_119:\n        /* \"contracts/real_estate.sol\":1981:1997  transferDeadline */\n      sload(0x06)\n        /* \"contracts/real_estate.sol\":1962:1977  block.timestamp */\n      timestamp\n        /* \"contracts/real_estate.sol\":1962:1997  block.timestamp <= transferDeadline */\n      gt\n      iszero\n        /* \"contracts/real_estate.sol\":1954:2031  require(block.timestamp <= transferDeadline, \"Transfer deadline has passed.\") */\n      tag_121\n      jumpi\n      mload(0x40)\n      0x08c379a000000000000000000000000000000000000000000000000000000000\n      dup2\n      mstore\n      0x04\n      add\n      tag_122\n      swap1\n      tag_123\n      jump\t// in\n    tag_122:\n      mload(0x40)\n      dup1\n      swap2\n      sub\n      swap1\n      revert\n    tag_121:\n        /* \"contracts/real_estate.sol\":2051:2070  propertyTransferred */\n      0x07\n      0x01\n      swap1\n      sload\n      swap1\n      0x0100\n      exp\n      swap1\n      div\n      0xff\n      and\n        /* \"contracts/real_estate.sol\":2050:2070  !propertyTransferred */\n      iszero\n        /* \"contracts/real_estate.sol\":2042:2113  require(!propertyTransferred, \"Property has already been transferred.\") */\n      tag_124\n      jumpi\n      mload(0x40)\n      0x08c379a000000000000000000000000000000000000000000000000000000000\n      dup2\n      mstore\n      0x04\n      add\n      tag_125\n      swap1\n      tag_126\n      jump\t// in\n    tag_125:\n      mload(0x40)\n      dup1\n      swap2\n      sub\n      swap1\n      revert\n    tag_124:\n        /* \"contracts/real_estate.sol\":2148:2152  true */\n      0x01\n        /* \"contracts/real_estate.sol\":2126:2145  propertyTransferred */\n      0x07\n      0x01\n        /* \"contracts/real_estate.sol\":2126:2152  propertyTransferred = true */\n      0x0100\n      exp\n      dup2\n      sload\n      dup2\n      0xff\n      mul\n      not\n      and\n      swap1\n      dup4\n      iszero\n      iszero\n      mul\n      or\n      swap1\n      sstore\n      pop\n        /* \"contracts/real_estate.sol\":2171:2177  seller */\n      0x00\n      dup1\n      sload\n      swap1\n      0x0100\n      exp\n      swap1\n      div\n      0xffffffffffffffffffffffffffffffffffffffff\n      and\n        /* \"contracts/real_estate.sol\":2163:2187  payable(seller).transfer */\n      0xffffffffffffffffffffffffffffffffffffffff\n      and\n        /* \"contracts/real_estate.sol\":2163:2213  payable(seller).transfer(finalPrice - downPayment) */\n      0x08fc\n        /* \"contracts/real_estate.sol\":2201:2212  downPayment */\n      sload(0x04)\n        /* \"contracts/real_estate.sol\":2188:2198  finalPrice */\n      sload(0x03)\n        /* \"contracts/real_estate.sol\":2188:2212  finalPrice - downPayment */\n      tag_127\n      swap2\n      swap1\n      tag_80\n      jump\t// in\n    tag_127:\n        /* \"contracts/real_estate.sol\":2163:2213  payable(seller).transfer(finalPrice - downPayment) */\n      swap1\n      dup2\n      iszero\n      mul\n      swap1\n      mload(0x40)\n      0x00\n      mload(0x40)\n      dup1\n      dup4\n      sub\n      dup2\n      dup6\n      dup9\n      dup9\n      call\n      swap4\n      pop\n      pop\n      pop\n      pop\n      iszero\n      dup1\n      iszero\n      tag_129\n      jumpi\n      returndatasize\n      0x00\n      dup1\n      returndatacopy\n      revert(0x00, returndatasize)\n    tag_129:\n      pop\n        /* \"contracts/real_estate.sol\":2257:2262  buyer */\n      0x01\n      0x00\n      swap1\n      sload\n      swap1\n      0x0100\n      exp\n      swap1\n      div\n      0xffffffffffffffffffffffffffffffffffffffff\n      and\n        /* \"contracts/real_estate.sol\":2229:2275  PropertyTransferred(seller, buyer, finalPrice) */\n      0xffffffffffffffffffffffffffffffffffffffff\n      and\n        /* \"contracts/real_estate.sol\":2249:2255  seller */\n      0x00\n      dup1\n      sload\n      swap1\n      0x0100\n      exp\n      swap1\n      div\n      0xffffffffffffffffffffffffffffffffffffffff\n      and\n        /* \"contracts/real_estate.sol\":2229:2275  PropertyTransferred(seller, buyer, finalPrice) */\n      0xffffffffffffffffffffffffffffffffffffffff\n      and\n      0xe5894307e8efed03d242bcb85a749c24d96ebf0de331e3437138cccc00d26542\n        /* \"contracts/real_estate.sol\":2264:2274  finalPrice */\n      sload(0x03)\n        /* \"contracts/real_estate.sol\":2229:2275  PropertyTransferred(seller, buyer, finalPrice) */\n      mload(0x40)\n      tag_130\n      swap2\n      swap1\n      tag_26\n      jump\t// in\n    tag_130:\n      mload(0x40)\n      dup1\n      swap2\n      sub\n      swap1\n      log3\n        /* \"contracts/real_estate.sol\":1827:2283  function transferProperty() public onlySeller {... */\n      jump\t// out\n        /* \"contracts/real_estate.sol\":178:203  uint256 public finalPrice */\n    tag_58:\n      sload(0x03)\n      dup2\n      jump\t// out\n        /* \"contracts/real_estate.sol\":243:277  uint256 public downPaymentDeadline */\n    tag_62:\n      sload(0x05)\n      dup2\n      jump\t// out\n        /* \"contracts/real_estate.sol\":284:315  uint256 public transferDeadline */\n    tag_66:\n      sload(0x06)\n      dup2\n      jump\t// out\n        /* \"#utility.yul\":7:133   */\n    tag_131:\n        /* \"#utility.yul\":44:51   */\n      0x00\n        /* \"#utility.yul\":84:126   */\n      0xffffffffffffffffffffffffffffffffffffffff\n        /* \"#utility.yul\":77:82   */\n      dup3\n        /* \"#utility.yul\":73:127   */\n      and\n        /* \"#utility.yul\":62:127   */\n      swap1\n      pop\n        /* \"#utility.yul\":7:133   */\n      swap2\n      swap1\n      pop\n      jump\t// out\n        /* \"#utility.yul\":139:235   */\n    tag_132:\n        /* \"#utility.yul\":176:183   */\n      0x00\n        /* \"#utility.yul\":205:229   */\n      tag_168\n        /* \"#utility.yul\":223:228   */\n      dup3\n        /* \"#utility.yul\":205:229   */\n      tag_131\n      jump\t// in\n    tag_168:\n        /* \"#utility.yul\":194:229   */\n      swap1\n      pop\n        /* \"#utility.yul\":139:235   */\n      swap2\n      swap1\n      pop\n      jump\t// out\n        /* \"#utility.yul\":241:359   */\n    tag_133:\n        /* \"#utility.yul\":328:352   */\n      tag_170\n        /* \"#utility.yul\":346:351   */\n      dup2\n        /* \"#utility.yul\":328:352   */\n      tag_132\n      jump\t// in\n    tag_170:\n        /* \"#utility.yul\":323:326   */\n      dup3\n        /* \"#utility.yul\":316:353   */\n      mstore\n        /* \"#utility.yul\":241:359   */\n      pop\n      pop\n      jump\t// out\n        /* \"#utility.yul\":365:587   */\n    tag_21:\n        /* \"#utility.yul\":458:462   */\n      0x00\n        /* \"#utility.yul\":496:498   */\n      0x20\n        /* \"#utility.yul\":485:494   */\n      dup3\n        /* \"#utility.yul\":481:499   */\n      add\n        /* \"#utility.yul\":473:499   */\n      swap1\n      pop\n        /* \"#utility.yul\":509:580   */\n      tag_172\n        /* \"#utility.yul\":577:578   */\n      0x00\n        /* \"#utility.yul\":566:575   */\n      dup4\n        /* \"#utility.yul\":562:579   */\n      add\n        /* \"#utility.yul\":553:559   */\n      dup5\n        /* \"#utility.yul\":509:580   */\n      tag_133\n      jump\t// in\n    tag_172:\n        /* \"#utility.yul\":365:587   */\n      swap3\n      swap2\n      pop\n      pop\n      jump\t// out\n        /* \"#utility.yul\":593:670   */\n    tag_134:\n        /* \"#utility.yul\":630:637   */\n      0x00\n        /* \"#utility.yul\":659:664   */\n      dup2\n        /* \"#utility.yul\":648:664   */\n      swap1\n      pop\n        /* \"#utility.yul\":593:670   */\n      swap2\n      swap1\n      pop\n      jump\t// out\n        /* \"#utility.yul\":676:794   */\n    tag_135:\n        /* \"#utility.yul\":763:787   */\n      tag_175\n        /* \"#utility.yul\":781:786   */\n      dup2\n        /* \"#utility.yul\":763:787   */\n      tag_134\n      jump\t// in\n    tag_175:\n        /* \"#utility.yul\":758:761   */\n      dup3\n        /* \"#utility.yul\":751:788   */\n      mstore\n        /* \"#utility.yul\":676:794   */\n      pop\n      pop\n      jump\t// out\n        /* \"#utility.yul\":800:1022   */\n    tag_26:\n        /* \"#utility.yul\":893:897   */\n      0x00\n        /* \"#utility.yul\":931:933   */\n      0x20\n        /* \"#utility.yul\":920:929   */\n      dup3\n        /* \"#utility.yul\":916:934   */\n      add\n        /* \"#utility.yul\":908:934   */\n      swap1\n      pop\n        /* \"#utility.yul\":944:1015   */\n      tag_177\n        /* \"#utility.yul\":1012:1013   */\n      0x00\n        /* \"#utility.yul\":1001:1010   */\n      dup4\n        /* \"#utility.yul\":997:1014   */\n      add\n        /* \"#utility.yul\":988:994   */\n      dup5\n        /* \"#utility.yul\":944:1015   */\n      tag_135\n      jump\t// in\n    tag_177:\n        /* \"#utility.yul\":800:1022   */\n      swap3\n      swap2\n      pop\n      pop\n      jump\t// out\n        /* \"#utility.yul\":1028:1118   */\n    tag_136:\n        /* \"#utility.yul\":1062:1069   */\n      0x00\n        /* \"#utility.yul\":1105:1110   */\n      dup2\n        /* \"#utility.yul\":1098:1111   */\n      iszero\n        /* \"#utility.yul\":1091:1112   */\n      iszero\n        /* \"#utility.yul\":1080:1112   */\n      swap1\n      pop\n        /* \"#utility.yul\":1028:1118   */\n      swap2\n      swap1\n      pop\n      jump\t// out\n        /* \"#utility.yul\":1124:1233   */\n    tag_137:\n        /* \"#utility.yul\":1205:1226   */\n      tag_180\n        /* \"#utility.yul\":1220:1225   */\n      dup2\n        /* \"#utility.yul\":1205:1226   */\n      tag_136\n      jump\t// in\n    tag_180:\n        /* \"#utility.yul\":1200:1203   */\n      dup3\n        /* \"#utility.yul\":1193:1227   */\n      mstore\n        /* \"#utility.yul\":1124:1233   */\n      pop\n      pop\n      jump\t// out\n        /* \"#utility.yul\":1239:1449   */\n    tag_34:\n        /* \"#utility.yul\":1326:1330   */\n      0x00\n        /* \"#utility.yul\":1364:1366   */\n      0x20\n        /* \"#utility.yul\":1353:1362   */\n      dup3\n        /* \"#utility.yul\":1349:1367   */\n      add\n        /* \"#utility.yul\":1341:1367   */\n      swap1\n      pop\n        /* \"#utility.yul\":1377:1442   */\n      tag_182\n        /* \"#utility.yul\":1439:1440   */\n      0x00\n        /* \"#utility.yul\":1428:1437   */\n      dup4\n        /* \"#utility.yul\":1424:1441   */\n      add\n        /* \"#utility.yul\":1415:1421   */\n      dup5\n        /* \"#utility.yul\":1377:1442   */\n      tag_137\n      jump\t// in\n    tag_182:\n        /* \"#utility.yul\":1239:1449   */\n      swap3\n      swap2\n      pop\n      pop\n      jump\t// out\n        /* \"#utility.yul\":1455:1554   */\n    tag_138:\n        /* \"#utility.yul\":1507:1513   */\n      0x00\n        /* \"#utility.yul\":1541:1546   */\n      dup2\n        /* \"#utility.yul\":1535:1547   */\n      mload\n        /* \"#utility.yul\":1525:1547   */\n      swap1\n      pop\n        /* \"#utility.yul\":1455:1554   */\n      swap2\n      swap1\n      pop\n      jump\t// out\n        /* \"#utility.yul\":1560:1729   */\n    tag_139:\n        /* \"#utility.yul\":1644:1655   */\n      0x00\n        /* \"#utility.yul\":1678:1684   */\n      dup3\n        /* \"#utility.yul\":1673:1676   */\n      dup3\n        /* \"#utility.yul\":1666:1685   */\n      mstore\n        /* \"#utility.yul\":1718:1722   */\n      0x20\n        /* \"#utility.yul\":1713:1716   */\n      dup3\n        /* \"#utility.yul\":1709:1723   */\n      add\n        /* \"#utility.yul\":1694:1723   */\n      swap1\n      pop\n        /* \"#utility.yul\":1560:1729   */\n      swap3\n      swap2\n      pop\n      pop\n      jump\t// out\n        /* \"#utility.yul\":1735:1874   */\n    tag_140:\n        /* \"#utility.yul\":1824:1830   */\n      dup3\n        /* \"#utility.yul\":1819:1822   */\n      dup2\n        /* \"#utility.yul\":1814:1817   */\n      dup4\n        /* \"#utility.yul\":1808:1831   */\n      mcopy\n        /* \"#utility.yul\":1865:1866   */\n      0x00\n        /* \"#utility.yul\":1856:1862   */\n      dup4\n        /* \"#utility.yul\":1851:1854   */\n      dup4\n        /* \"#utility.yul\":1847:1863   */\n      add\n        /* \"#utility.yul\":1840:1867   */\n      mstore\n        /* \"#utility.yul\":1735:1874   */\n      pop\n      pop\n      pop\n      jump\t// out\n        /* \"#utility.yul\":1880:1982   */\n    tag_141:\n        /* \"#utility.yul\":1921:1927   */\n      0x00\n        /* \"#utility.yul\":1972:1974   */\n      0x1f\n        /* \"#utility.yul\":1968:1975   */\n      not\n        /* \"#utility.yul\":1963:1965   */\n      0x1f\n        /* \"#utility.yul\":1956:1961   */\n      dup4\n        /* \"#utility.yul\":1952:1966   */\n      add\n        /* \"#utility.yul\":1948:1976   */\n      and\n        /* \"#utility.yul\":1938:1976   */\n      swap1\n      pop\n        /* \"#utility.yul\":1880:1982   */\n      swap2\n      swap1\n      pop\n      jump\t// out\n        /* \"#utility.yul\":1988:2365   */\n    tag_142:\n        /* \"#utility.yul\":2076:2079   */\n      0x00\n        /* \"#utility.yul\":2104:2143   */\n      tag_188\n        /* \"#utility.yul\":2137:2142   */\n      dup3\n        /* \"#utility.yul\":2104:2143   */\n      tag_138\n      jump\t// in\n    tag_188:\n        /* \"#utility.yul\":2159:2230   */\n      tag_189\n        /* \"#utility.yul\":2223:2229   */\n      dup2\n        /* \"#utility.yul\":2218:2221   */\n      dup6\n        /* \"#utility.yul\":2159:2230   */\n      tag_139\n      jump\t// in\n    tag_189:\n        /* \"#utility.yul\":2152:2230   */\n      swap4\n      pop\n        /* \"#utility.yul\":2239:2304   */\n      tag_190\n        /* \"#utility.yul\":2297:2303   */\n      dup2\n        /* \"#utility.yul\":2292:2295   */\n      dup6\n        /* \"#utility.yul\":2285:2289   */\n      0x20\n        /* \"#utility.yul\":2278:2283   */\n      dup7\n        /* \"#utility.yul\":2274:2290   */\n      add\n        /* \"#utility.yul\":2239:2304   */\n      tag_140\n      jump\t// in\n    tag_190:\n        /* \"#utility.yul\":2329:2358   */\n      tag_191\n        /* \"#utility.yul\":2351:2357   */\n      dup2\n        /* \"#utility.yul\":2329:2358   */\n      tag_141\n      jump\t// in\n    tag_191:\n        /* \"#utility.yul\":2324:2327   */\n      dup5\n        /* \"#utility.yul\":2320:2359   */\n      add\n        /* \"#utility.yul\":2313:2359   */\n      swap2\n      pop\n        /* \"#utility.yul\":2080:2365   */\n      pop\n        /* \"#utility.yul\":1988:2365   */\n      swap3\n      swap2\n      pop\n      pop\n      jump\t// out\n        /* \"#utility.yul\":2371:2684   */\n    tag_39:\n        /* \"#utility.yul\":2484:2488   */\n      0x00\n        /* \"#utility.yul\":2522:2524   */\n      0x20\n        /* \"#utility.yul\":2511:2520   */\n      dup3\n        /* \"#utility.yul\":2507:2525   */\n      add\n        /* \"#utility.yul\":2499:2525   */\n      swap1\n      pop\n        /* \"#utility.yul\":2571:2580   */\n      dup2\n        /* \"#utility.yul\":2565:2569   */\n      dup2\n        /* \"#utility.yul\":2561:2581   */\n      sub\n        /* \"#utility.yul\":2557:2558   */\n      0x00\n        /* \"#utility.yul\":2546:2555   */\n      dup4\n        /* \"#utility.yul\":2542:2559   */\n      add\n        /* \"#utility.yul\":2535:2582   */\n      mstore\n        /* \"#utility.yul\":2599:2677   */\n      tag_193\n        /* \"#utility.yul\":2672:2676   */\n      dup2\n        /* \"#utility.yul\":2663:2669   */\n      dup5\n        /* \"#utility.yul\":2599:2677   */\n      tag_142\n      jump\t// in\n    tag_193:\n        /* \"#utility.yul\":2591:2677   */\n      swap1\n      pop\n        /* \"#utility.yul\":2371:2684   */\n      swap3\n      swap2\n      pop\n      pop\n      jump\t// out\n        /* \"#utility.yul\":2690:2915   */\n    tag_143:\n        /* \"#utility.yul\":2830:2864   */\n      0x4f6e6c79207468652062757965722063616e2063616c6c20746869732066756e\n        /* \"#utility.yul\":2826:2827   */\n      0x00\n        /* \"#utility.yul\":2818:2824   */\n      dup3\n        /* \"#utility.yul\":2814:2828   */\n      add\n        /* \"#utility.yul\":2807:2865   */\n      mstore\n        /* \"#utility.yul\":2899:2907   */\n      0x6374696f6e2e0000000000000000000000000000000000000000000000000000\n        /* \"#utility.yul\":2894:2896   */\n      0x20\n        /* \"#utility.yul\":2886:2892   */\n      dup3\n        /* \"#utility.yul\":2882:2897   */\n      add\n        /* \"#utility.yul\":2875:2908   */\n      mstore\n        /* \"#utility.yul\":2690:2915   */\n      pop\n      jump\t// out\n        /* \"#utility.yul\":2921:3287   */\n    tag_144:\n        /* \"#utility.yul\":3063:3066   */\n      0x00\n        /* \"#utility.yul\":3084:3151   */\n      tag_196\n        /* \"#utility.yul\":3148:3150   */\n      0x26\n        /* \"#utility.yul\":3143:3146   */\n      dup4\n        /* \"#utility.yul\":3084:3151   */\n      tag_139\n      jump\t// in\n    tag_196:\n        /* \"#utility.yul\":3077:3151   */\n      swap2\n      pop\n        /* \"#utility.yul\":3160:3253   */\n      tag_197\n        /* \"#utility.yul\":3249:3252   */\n      dup3\n        /* \"#utility.yul\":3160:3253   */\n      tag_143\n      jump\t// in\n    tag_197:\n        /* \"#utility.yul\":3278:3280   */\n      0x40\n        /* \"#utility.yul\":3273:3276   */\n      dup3\n        /* \"#utility.yul\":3269:3281   */\n      add\n        /* \"#utility.yul\":3262:3281   */\n      swap1\n      pop\n        /* \"#utility.yul\":2921:3287   */\n      swap2\n      swap1\n      pop\n      jump\t// out\n        /* \"#utility.yul\":3293:3712   */\n    tag_71:\n        /* \"#utility.yul\":3459:3463   */\n      0x00\n        /* \"#utility.yul\":3497:3499   */\n      0x20\n        /* \"#utility.yul\":3486:3495   */\n      dup3\n        /* \"#utility.yul\":3482:3500   */\n      add\n        /* \"#utility.yul\":3474:3500   */\n      swap1\n      pop\n        /* \"#utility.yul\":3546:3555   */\n      dup2\n        /* \"#utility.yul\":3540:3544   */\n      dup2\n        /* \"#utility.yul\":3536:3556   */\n      sub\n        /* \"#utility.yul\":3532:3533   */\n      0x00\n        /* \"#utility.yul\":3521:3530   */\n      dup4\n        /* \"#utility.yul\":3517:3534   */\n      add\n        /* \"#utility.yul\":3510:3557   */\n      mstore\n        /* \"#utility.yul\":3574:3705   */\n      tag_199\n        /* \"#utility.yul\":3700:3704   */\n      dup2\n        /* \"#utility.yul\":3574:3705   */\n      tag_144\n      jump\t// in\n    tag_199:\n        /* \"#utility.yul\":3566:3705   */\n      swap1\n      pop\n        /* \"#utility.yul\":3293:3712   */\n      swap2\n      swap1\n      pop\n      jump\t// out\n        /* \"#utility.yul\":3718:3899   */\n    tag_145:\n        /* \"#utility.yul\":3858:3891   */\n      0x446f776e207061796d656e7420686173206e6f74206265656e206d6164652e00\n        /* \"#utility.yul\":3854:3855   */\n      0x00\n        /* \"#utility.yul\":3846:3852   */\n      dup3\n        /* \"#utility.yul\":3842:3856   */\n      add\n        /* \"#utility.yul\":3835:3892   */\n      mstore\n        /* \"#utility.yul\":3718:3899   */\n      pop\n      jump\t// out\n        /* \"#utility.yul\":3905:4271   */\n    tag_146:\n        /* \"#utility.yul\":4047:4050   */\n      0x00\n        /* \"#utility.yul\":4068:4135   */\n      tag_202\n        /* \"#utility.yul\":4132:4134   */\n      0x1f\n        /* \"#utility.yul\":4127:4130   */\n      dup4\n        /* \"#utility.yul\":4068:4135   */\n      tag_139\n      jump\t// in\n    tag_202:\n        /* \"#utility.yul\":4061:4135   */\n      swap2\n      pop\n        /* \"#utility.yul\":4144:4237   */\n      tag_203\n        /* \"#utility.yul\":4233:4236   */\n      dup3\n        /* \"#utility.yul\":4144:4237   */\n      tag_145\n      jump\t// in\n    tag_203:\n        /* \"#utility.yul\":4262:4264   */\n      0x20\n        /* \"#utility.yul\":4257:4260   */\n      dup3\n        /* \"#utility.yul\":4253:4265   */\n      add\n        /* \"#utility.yul\":4246:4265   */\n      swap1\n      pop\n        /* \"#utility.yul\":3905:4271   */\n      swap2\n      swap1\n      pop\n      jump\t// out\n        /* \"#utility.yul\":4277:4696   */\n    tag_75:\n        /* \"#utility.yul\":4443:4447   */\n      0x00\n        /* \"#utility.yul\":4481:4483   */\n      0x20\n        /* \"#utility.yul\":4470:4479   */\n      dup3\n        /* \"#utility.yul\":4466:4484   */\n      add\n        /* \"#utility.yul\":4458:4484   */\n      swap1\n      pop\n        /* \"#utility.yul\":4530:4539   */\n      dup2\n        /* \"#utility.yul\":4524:4528   */\n      dup2\n        /* \"#utility.yul\":4520:4540   */\n      sub\n        /* \"#utility.yul\":4516:4517   */\n      0x00\n        /* \"#utility.yul\":4505:4514   */\n      dup4\n        /* \"#utility.yul\":4501:4518   */\n      add\n        /* \"#utility.yul\":4494:4541   */\n      mstore\n        /* \"#utility.yul\":4558:4689   */\n      tag_205\n        /* \"#utility.yul\":4684:4688   */\n      dup2\n        /* \"#utility.yul\":4558:4689   */\n      tag_146\n      jump\t// in\n    tag_205:\n        /* \"#utility.yul\":4550:4689   */\n      swap1\n      pop\n        /* \"#utility.yul\":4277:4696   */\n      swap2\n      swap1\n      pop\n      jump\t// out\n        /* \"#utility.yul\":4702:4923   */\n    tag_147:\n        /* \"#utility.yul\":4842:4876   */\n      0x50726f706572747920686173206e6f74206265656e207472616e736665727265\n        /* \"#utility.yul\":4838:4839   */\n      0x00\n        /* \"#utility.yul\":4830:4836   */\n      dup3\n        /* \"#utility.yul\":4826:4840   */\n      add\n        /* \"#utility.yul\":4819:4877   */\n      mstore\n        /* \"#utility.yul\":4911:4915   */\n      0x642e000000000000000000000000000000000000000000000000000000000000\n        /* \"#utility.yul\":4906:4908   */\n      0x20\n        /* \"#utility.yul\":4898:4904   */\n      dup3\n        /* \"#utility.yul\":4894:4909   */\n      add\n        /* \"#utility.yul\":4887:4916   */\n      mstore\n        /* \"#utility.yul\":4702:4923   */\n      pop\n      jump\t// out\n        /* \"#utility.yul\":4929:5295   */\n    tag_148:\n        /* \"#utility.yul\":5071:5074   */\n      0x00\n        /* \"#utility.yul\":5092:5159   */\n      tag_208\n        /* \"#utility.yul\":5156:5158   */\n      0x22\n        /* \"#utility.yul\":5151:5154   */\n      dup4\n        /* \"#utility.yul\":5092:5159   */\n      tag_139\n      jump\t// in\n    tag_208:\n        /* \"#utility.yul\":5085:5159   */\n      swap2\n      pop\n        /* \"#utility.yul\":5168:5261   */\n      tag_209\n        /* \"#utility.yul\":5257:5260   */\n      dup3\n        /* \"#utility.yul\":5168:5261   */\n      tag_147\n      jump\t// in\n    tag_209:\n        /* \"#utility.yul\":5286:5288   */\n      0x40\n        /* \"#utility.yul\":5281:5284   */\n      dup3\n        /* \"#utility.yul\":5277:5289   */\n      add\n        /* \"#utility.yul\":5270:5289   */\n      swap1\n      pop\n        /* \"#utility.yul\":4929:5295   */\n      swap2\n      swap1\n      pop\n      jump\t// out\n        /* \"#utility.yul\":5301:5720   */\n    tag_78:\n        /* \"#utility.yul\":5467:5471   */\n      0x00\n        /* \"#utility.yul\":5505:5507   */\n      0x20\n        /* \"#utility.yul\":5494:5503   */\n      dup3\n        /* \"#utility.yul\":5490:5508   */\n      add\n        /* \"#utility.yul\":5482:5508   */\n      swap1\n      pop\n        /* \"#utility.yul\":5554:5563   */\n      dup2\n        /* \"#utility.yul\":5548:5552   */\n      dup2\n        /* \"#utility.yul\":5544:5564   */\n      sub\n        /* \"#utility.yul\":5540:5541   */\n      0x00\n        /* \"#utility.yul\":5529:5538   */\n      dup4\n        /* \"#utility.yul\":5525:5542   */\n      add\n        /* \"#utility.yul\":5518:5565   */\n      mstore\n        /* \"#utility.yul\":5582:5713   */\n      tag_211\n        /* \"#utility.yul\":5708:5712   */\n      dup2\n        /* \"#utility.yul\":5582:5713   */\n      tag_148\n      jump\t// in\n    tag_211:\n        /* \"#utility.yul\":5574:5713   */\n      swap1\n      pop\n        /* \"#utility.yul\":5301:5720   */\n      swap2\n      swap1\n      pop\n      jump\t// out\n        /* \"#utility.yul\":5726:5906   */\n    tag_149:\n        /* \"#utility.yul\":5774:5851   */\n      0x4e487b7100000000000000000000000000000000000000000000000000000000\n        /* \"#utility.yul\":5771:5772   */\n      0x00\n        /* \"#utility.yul\":5764:5852   */\n      mstore\n        /* \"#utility.yul\":5871:5875   */\n      0x11\n        /* \"#utility.yul\":5868:5869   */\n      0x04\n        /* \"#utility.yul\":5861:5876   */\n      mstore\n        /* \"#utility.yul\":5895:5899   */\n      0x24\n        /* \"#utility.yul\":5892:5893   */\n      0x00\n        /* \"#utility.yul\":5885:5900   */\n      revert\n        /* \"#utility.yul\":5912:6106   */\n    tag_80:\n        /* \"#utility.yul\":5952:5956   */\n      0x00\n        /* \"#utility.yul\":5972:5992   */\n      tag_214\n        /* \"#utility.yul\":5990:5991   */\n      dup3\n        /* \"#utility.yul\":5972:5992   */\n      tag_134\n      jump\t// in\n    tag_214:\n        /* \"#utility.yul\":5967:5992   */\n      swap2\n      pop\n        /* \"#utility.yul\":6006:6026   */\n      tag_215\n        /* \"#utility.yul\":6024:6025   */\n      dup4\n        /* \"#utility.yul\":6006:6026   */\n      tag_134\n      jump\t// in\n    tag_215:\n        /* \"#utility.yul\":6001:6026   */\n      swap3\n      pop\n        /* \"#utility.yul\":6050:6051   */\n      dup3\n        /* \"#utility.yul\":6047:6048   */\n      dup3\n        /* \"#utility.yul\":6043:6052   */\n      sub\n        /* \"#utility.yul\":6035:6052   */\n      swap1\n      pop\n        /* \"#utility.yul\":6074:6075   */\n      dup2\n        /* \"#utility.yul\":6068:6072   */\n      dup2\n        /* \"#utility.yul\":6065:6076   */\n      gt\n        /* \"#utility.yul\":6062:6099   */\n      iszero\n      tag_216\n      jumpi\n        /* \"#utility.yul\":6079:6097   */\n      tag_217\n      tag_149\n      jump\t// in\n    tag_217:\n        /* \"#utility.yul\":6062:6099   */\n    tag_216:\n        /* \"#utility.yul\":5912:6106   */\n      swap3\n      swap2\n      pop\n      pop\n      jump\t// out\n        /* \"#utility.yul\":6112:6292   */\n    tag_150:\n        /* \"#utility.yul\":6160:6237   */\n      0x4e487b7100000000000000000000000000000000000000000000000000000000\n        /* \"#utility.yul\":6157:6158   */\n      0x00\n        /* \"#utility.yul\":6150:6238   */\n      mstore\n        /* \"#utility.yul\":6257:6261   */\n      0x22\n        /* \"#utility.yul\":6254:6255   */\n      0x04\n        /* \"#utility.yul\":6247:6262   */\n      mstore\n        /* \"#utility.yul\":6281:6285   */\n      0x24\n        /* \"#utility.yul\":6278:6279   */\n      0x00\n        /* \"#utility.yul\":6271:6286   */\n      revert\n        /* \"#utility.yul\":6298:6618   */\n    tag_84:\n        /* \"#utility.yul\":6342:6348   */\n      0x00\n        /* \"#utility.yul\":6379:6380   */\n      0x02\n        /* \"#utility.yul\":6373:6377   */\n      dup3\n        /* \"#utility.yul\":6369:6381   */\n      div\n        /* \"#utility.yul\":6359:6381   */\n      swap1\n      pop\n        /* \"#utility.yul\":6426:6427   */\n      0x01\n        /* \"#utility.yul\":6420:6424   */\n      dup3\n        /* \"#utility.yul\":6416:6428   */\n      and\n        /* \"#utility.yul\":6447:6465   */\n      dup1\n        /* \"#utility.yul\":6437:6518   */\n      tag_220\n      jumpi\n        /* \"#utility.yul\":6503:6507   */\n      0x7f\n        /* \"#utility.yul\":6495:6501   */\n      dup3\n        /* \"#utility.yul\":6491:6508   */\n      and\n        /* \"#utility.yul\":6481:6508   */\n      swap2\n      pop\n        /* \"#utility.yul\":6437:6518   */\n    tag_220:\n        /* \"#utility.yul\":6565:6567   */\n      0x20\n        /* \"#utility.yul\":6557:6563   */\n      dup3\n        /* \"#utility.yul\":6554:6568   */\n      lt\n        /* \"#utility.yul\":6534:6552   */\n      dup2\n        /* \"#utility.yul\":6531:6569   */\n      sub\n        /* \"#utility.yul\":6528:6612   */\n      tag_221\n      jumpi\n        /* \"#utility.yul\":6584:6602   */\n      tag_222\n      tag_150\n      jump\t// in\n    tag_222:\n        /* \"#utility.yul\":6528:6612   */\n    tag_221:\n        /* \"#utility.yul\":6349:6618   */\n      pop\n        /* \"#utility.yul\":6298:6618   */\n      swap2\n      swap1\n      pop\n      jump\t// out\n        /* \"#utility.yul\":6624:6844   */\n    tag_151:\n        /* \"#utility.yul\":6764:6798   */\n      0x446f776e207061796d656e7420646561646c696e652068617320706173736564\n        /* \"#utility.yul\":6760:6761   */\n      0x00\n        /* \"#utility.yul\":6752:6758   */\n      dup3\n        /* \"#utility.yul\":6748:6762   */\n      add\n        /* \"#utility.yul\":6741:6799   */\n      mstore\n        /* \"#utility.yul\":6833:6836   */\n      0x2e00000000000000000000000000000000000000000000000000000000000000\n        /* \"#utility.yul\":6828:6830   */\n      0x20\n        /* \"#utility.yul\":6820:6826   */\n      dup3\n        /* \"#utility.yul\":6816:6831   */\n      add\n        /* \"#utility.yul\":6809:6837   */\n      mstore\n        /* \"#utility.yul\":6624:6844   */\n      pop\n      jump\t// out\n        /* \"#utility.yul\":6850:7216   */\n    tag_152:\n        /* \"#utility.yul\":6992:6995   */\n      0x00\n        /* \"#utility.yul\":7013:7080   */\n      tag_225\n        /* \"#utility.yul\":7077:7079   */\n      0x21\n        /* \"#utility.yul\":7072:7075   */\n      dup4\n        /* \"#utility.yul\":7013:7080   */\n      tag_139\n      jump\t// in\n    tag_225:\n        /* \"#utility.yul\":7006:7080   */\n      swap2\n      pop\n        /* \"#utility.yul\":7089:7182   */\n      tag_226\n        /* \"#utility.yul\":7178:7181   */\n      dup3\n        /* \"#utility.yul\":7089:7182   */\n      tag_151\n      jump\t// in\n    tag_226:\n        /* \"#utility.yul\":7207:7209   */\n      0x40\n        /* \"#utility.yul\":7202:7205   */\n      dup3\n        /* \"#utility.yul\":7198:7210   */\n      add\n        /* \"#utility.yul\":7191:7210   */\n      swap1\n      pop\n        /* \"#utility.yul\":6850:7216   */\n      swap2\n      swap1\n      pop\n      jump\t// out\n        /* \"#utility.yul\":7222:7641   */\n    tag_95:\n        /* \"#utility.yul\":7388:7392   */\n      0x00\n        /* \"#utility.yul\":7426:7428   */\n      0x20\n        /* \"#utility.yul\":7415:7424   */\n      dup3\n        /* \"#utility.yul\":7411:7429   */\n      add\n        /* \"#utility.yul\":7403:7429   */\n      swap1\n      pop\n        /* \"#utility.yul\":7475:7484   */\n      dup2\n        /* \"#utility.yul\":7469:7473   */\n      dup2\n        /* \"#utility.yul\":7465:7485   */\n      sub\n        /* \"#utility.yul\":7461:7462   */\n      0x00\n        /* \"#utility.yul\":7450:7459   */\n      dup4\n        /* \"#utility.yul\":7446:7463   */\n      add\n        /* \"#utility.yul\":7439:7486   */\n      mstore\n        /* \"#utility.yul\":7503:7634   */\n      tag_228\n        /* \"#utility.yul\":7629:7633   */\n      dup2\n        /* \"#utility.yul\":7503:7634   */\n      tag_152\n      jump\t// in\n    tag_228:\n        /* \"#utility.yul\":7495:7634   */\n      swap1\n      pop\n        /* \"#utility.yul\":7222:7641   */\n      swap2\n      swap1\n      pop\n      jump\t// out\n        /* \"#utility.yul\":7647:7827   */\n    tag_153:\n        /* \"#utility.yul\":7787:7819   */\n      0x496e636f727265637420646f776e207061796d656e7420616d6f756e742e0000\n        /* \"#utility.yul\":7783:7784   */\n      0x00\n        /* \"#utility.yul\":7775:7781   */\n      dup3\n        /* \"#utility.yul\":7771:7785   */\n      add\n        /* \"#utility.yul\":7764:7820   */\n      mstore\n        /* \"#utility.yul\":7647:7827   */\n      pop\n      jump\t// out\n        /* \"#utility.yul\":7833:8199   */\n    tag_154:\n        /* \"#utility.yul\":7975:7978   */\n      0x00\n        /* \"#utility.yul\":7996:8063   */\n      tag_231\n        /* \"#utility.yul\":8060:8062   */\n      0x1e\n        /* \"#utility.yul\":8055:8058   */\n      dup4\n        /* \"#utility.yul\":7996:8063   */\n      tag_139\n      jump\t// in\n    tag_231:\n        /* \"#utility.yul\":7989:8063   */\n      swap2\n      pop\n        /* \"#utility.yul\":8072:8165   */\n      tag_232\n        /* \"#utility.yul\":8161:8164   */\n      dup3\n        /* \"#utility.yul\":8072:8165   */\n      tag_153\n      jump\t// in\n    tag_232:\n        /* \"#utility.yul\":8190:8192   */\n      0x20\n        /* \"#utility.yul\":8185:8188   */\n      dup3\n        /* \"#utility.yul\":8181:8193   */\n      add\n        /* \"#utility.yul\":8174:8193   */\n      swap1\n      pop\n        /* \"#utility.yul\":7833:8199   */\n      swap2\n      swap1\n      pop\n      jump\t// out\n        /* \"#utility.yul\":8205:8624   */\n    tag_98:\n        /* \"#utility.yul\":8371:8375   */\n      0x00\n        /* \"#utility.yul\":8409:8411   */\n      0x20\n        /* \"#utility.yul\":8398:8407   */\n      dup3\n        /* \"#utility.yul\":8394:8412   */\n      add\n        /* \"#utility.yul\":8386:8412   */\n      swap1\n      pop\n        /* \"#utility.yul\":8458:8467   */\n      dup2\n        /* \"#utility.yul\":8452:8456   */\n      dup2\n        /* \"#utility.yul\":8448:8468   */\n      sub\n        /* \"#utility.yul\":8444:8445   */\n      0x00\n        /* \"#utility.yul\":8433:8442   */\n      dup4\n        /* \"#utility.yul\":8429:8446   */\n      add\n        /* \"#utility.yul\":8422:8469   */\n      mstore\n        /* \"#utility.yul\":8486:8617   */\n      tag_234\n        /* \"#utility.yul\":8612:8616   */\n      dup2\n        /* \"#utility.yul\":8486:8617   */\n      tag_154\n      jump\t// in\n    tag_234:\n        /* \"#utility.yul\":8478:8617   */\n      swap1\n      pop\n        /* \"#utility.yul\":8205:8624   */\n      swap2\n      swap1\n      pop\n      jump\t// out\n        /* \"#utility.yul\":8630:8852   */\n    tag_155:\n        /* \"#utility.yul\":8770:8804   */\n      0x446f776e207061796d656e742068617320616c7265616479206265656e206d61\n        /* \"#utility.yul\":8766:8767   */\n      0x00\n        /* \"#utility.yul\":8758:8764   */\n      dup3\n        /* \"#utility.yul\":8754:8768   */\n      add\n        /* \"#utility.yul\":8747:8805   */\n      mstore\n        /* \"#utility.yul\":8839:8844   */\n      0x64652e0000000000000000000000000000000000000000000000000000000000\n        /* \"#utility.yul\":8834:8836   */\n      0x20\n        /* \"#utility.yul\":8826:8832   */\n      dup3\n        /* \"#utility.yul\":8822:8837   */\n      add\n        /* \"#utility.yul\":8815:8845   */\n      mstore\n        /* \"#utility.yul\":8630:8852   */\n      pop\n      jump\t// out\n        /* \"#utility.yul\":8858:9224   */\n    tag_156:\n        /* \"#utility.yul\":9000:9003   */\n      0x00\n        /* \"#utility.yul\":9021:9088   */\n      tag_237\n        /* \"#utility.yul\":9085:9087   */\n      0x23\n        /* \"#utility.yul\":9080:9083   */\n      dup4\n        /* \"#utility.yul\":9021:9088   */\n      tag_139\n      jump\t// in\n    tag_237:\n        /* \"#utility.yul\":9014:9088   */\n      swap2\n      pop\n        /* \"#utility.yul\":9097:9190   */\n      tag_238\n        /* \"#utility.yul\":9186:9189   */\n      dup3\n        /* \"#utility.yul\":9097:9190   */\n      tag_155\n      jump\t// in\n    tag_238:\n        /* \"#utility.yul\":9215:9217   */\n      0x40\n        /* \"#utility.yul\":9210:9213   */\n      dup3\n        /* \"#utility.yul\":9206:9218   */\n      add\n        /* \"#utility.yul\":9199:9218   */\n      swap1\n      pop\n        /* \"#utility.yul\":8858:9224   */\n      swap2\n      swap1\n      pop\n      jump\t// out\n        /* \"#utility.yul\":9230:9649   */\n    tag_101:\n        /* \"#utility.yul\":9396:9400   */\n      0x00\n        /* \"#utility.yul\":9434:9436   */\n      0x20\n        /* \"#utility.yul\":9423:9432   */\n      dup3\n        /* \"#utility.yul\":9419:9437   */\n      add\n        /* \"#utility.yul\":9411:9437   */\n      swap1\n      pop\n        /* \"#utility.yul\":9483:9492   */\n      dup2\n        /* \"#utility.yul\":9477:9481   */\n      dup2\n        /* \"#utility.yul\":9473:9493   */\n      sub\n        /* \"#utility.yul\":9469:9470   */\n      0x00\n        /* \"#utility.yul\":9458:9467   */\n      dup4\n        /* \"#utility.yul\":9454:9471   */\n      add\n        /* \"#utility.yul\":9447:9494   */\n      mstore\n        /* \"#utility.yul\":9511:9642   */\n      tag_240\n        /* \"#utility.yul\":9637:9641   */\n      dup2\n        /* \"#utility.yul\":9511:9642   */\n      tag_156\n      jump\t// in\n    tag_240:\n        /* \"#utility.yul\":9503:9642   */\n      swap1\n      pop\n        /* \"#utility.yul\":9230:9649   */\n      swap2\n      swap1\n      pop\n      jump\t// out\n        /* \"#utility.yul\":9655:9881   */\n    tag_157:\n        /* \"#utility.yul\":9795:9829   */\n      0x4f6e6c79207468652073656c6c65722063616e2063616c6c2074686973206675\n        /* \"#utility.yul\":9791:9792   */\n      0x00\n        /* \"#utility.yul\":9783:9789   */\n      dup3\n        /* \"#utility.yul\":9779:9793   */\n      add\n        /* \"#utility.yul\":9772:9830   */\n      mstore\n        /* \"#utility.yul\":9864:9873   */\n      0x6e6374696f6e2e00000000000000000000000000000000000000000000000000\n        /* \"#utility.yul\":9859:9861   */\n      0x20\n        /* \"#utility.yul\":9851:9857   */\n      dup3\n        /* \"#utility.yul\":9847:9862   */\n      add\n        /* \"#utility.yul\":9840:9874   */\n      mstore\n        /* \"#utility.yul\":9655:9881   */\n      pop\n      jump\t// out\n        /* \"#utility.yul\":9887:10253   */\n    tag_158:\n        /* \"#utility.yul\":10029:10032   */\n      0x00\n        /* \"#utility.yul\":10050:10117   */\n      tag_243\n        /* \"#utility.yul\":10114:10116   */\n      0x27\n        /* \"#utility.yul\":10109:10112   */\n      dup4\n        /* \"#utility.yul\":10050:10117   */\n      tag_139\n      jump\t// in\n    tag_243:\n        /* \"#utility.yul\":10043:10117   */\n      swap2\n      pop\n        /* \"#utility.yul\":10126:10219   */\n      tag_244\n        /* \"#utility.yul\":10215:10218   */\n      dup3\n        /* \"#utility.yul\":10126:10219   */\n      tag_157\n      jump\t// in\n    tag_244:\n        /* \"#utility.yul\":10244:10246   */\n      0x40\n        /* \"#utility.yul\":10239:10242   */\n      dup3\n        /* \"#utility.yul\":10235:10247   */\n      add\n        /* \"#utility.yul\":10228:10247   */\n      swap1\n      pop\n        /* \"#utility.yul\":9887:10253   */\n      swap2\n      swap1\n      pop\n      jump\t// out\n        /* \"#utility.yul\":10259:10678   */\n    tag_106:\n        /* \"#utility.yul\":10425:10429   */\n      0x00\n        /* \"#utility.yul\":10463:10465   */\n      0x20\n        /* \"#utility.yul\":10452:10461   */\n      dup3\n        /* \"#utility.yul\":10448:10466   */\n      add\n        /* \"#utility.yul\":10440:10466   */\n      swap1\n      pop\n        /* \"#utility.yul\":10512:10521   */\n      dup2\n        /* \"#utility.yul\":10506:10510   */\n      dup2\n        /* \"#utility.yul\":10502:10522   */\n      sub\n        /* \"#utility.yul\":10498:10499   */\n      0x00\n        /* \"#utility.yul\":10487:10496   */\n      dup4\n        /* \"#utility.yul\":10483:10500   */\n      add\n        /* \"#utility.yul\":10476:10523   */\n      mstore\n        /* \"#utility.yul\":10540:10671   */\n      tag_246\n        /* \"#utility.yul\":10666:10670   */\n      dup2\n        /* \"#utility.yul\":10540:10671   */\n      tag_158\n      jump\t// in\n    tag_246:\n        /* \"#utility.yul\":10532:10671   */\n      swap1\n      pop\n        /* \"#utility.yul\":10259:10678   */\n      swap2\n      swap1\n      pop\n      jump\t// out\n        /* \"#utility.yul\":10684:10908   */\n    tag_159:\n        /* \"#utility.yul\":10824:10858   */\n      0x446f776e207061796d656e7420646561646c696e6520686173206e6f74207061\n        /* \"#utility.yul\":10820:10821   */\n      0x00\n        /* \"#utility.yul\":10812:10818   */\n      dup3\n        /* \"#utility.yul\":10808:10822   */\n      add\n        /* \"#utility.yul\":10801:10859   */\n      mstore\n        /* \"#utility.yul\":10893:10900   */\n      0x737365642e000000000000000000000000000000000000000000000000000000\n        /* \"#utility.yul\":10888:10890   */\n      0x20\n        /* \"#utility.yul\":10880:10886   */\n      dup3\n        /* \"#utility.yul\":10876:10891   */\n      add\n        /* \"#utility.yul\":10869:10901   */\n      mstore\n        /* \"#utility.yul\":10684:10908   */\n      pop\n      jump\t// out\n        /* \"#utility.yul\":10914:11280   */\n    tag_160:\n        /* \"#utility.yul\":11056:11059   */\n      0x00\n        /* \"#utility.yul\":11077:11144   */\n      tag_249\n        /* \"#utility.yul\":11141:11143   */\n      0x25\n        /* \"#utility.yul\":11136:11139   */\n      dup4\n        /* \"#utility.yul\":11077:11144   */\n      tag_139\n      jump\t// in\n    tag_249:\n        /* \"#utility.yul\":11070:11144   */\n      swap2\n      pop\n        /* \"#utility.yul\":11153:11246   */\n      tag_250\n        /* \"#utility.yul\":11242:11245   */\n      dup3\n        /* \"#utility.yul\":11153:11246   */\n      tag_159\n      jump\t// in\n    tag_250:\n        /* \"#utility.yul\":11271:11273   */\n      0x40\n        /* \"#utility.yul\":11266:11269   */\n      dup3\n        /* \"#utility.yul\":11262:11274   */\n      add\n        /* \"#utility.yul\":11255:11274   */\n      swap1\n      pop\n        /* \"#utility.yul\":10914:11280   */\n      swap2\n      swap1\n      pop\n      jump\t// out\n        /* \"#utility.yul\":11286:11705   */\n    tag_110:\n        /* \"#utility.yul\":11452:11456   */\n      0x00\n        /* \"#utility.yul\":11490:11492   */\n      0x20\n        /* \"#utility.yul\":11479:11488   */\n      dup3\n        /* \"#utility.yul\":11475:11493   */\n      add\n        /* \"#utility.yul\":11467:11493   */\n      swap1\n      pop\n        /* \"#utility.yul\":11539:11548   */\n      dup2\n        /* \"#utility.yul\":11533:11537   */\n      dup2\n        /* \"#utility.yul\":11529:11549   */\n      sub\n        /* \"#utility.yul\":11525:11526   */\n      0x00\n        /* \"#utility.yul\":11514:11523   */\n      dup4\n        /* \"#utility.yul\":11510:11527   */\n      add\n        /* \"#utility.yul\":11503:11550   */\n      mstore\n        /* \"#utility.yul\":11567:11698   */\n      tag_252\n        /* \"#utility.yul\":11693:11697   */\n      dup2\n        /* \"#utility.yul\":11567:11698   */\n      tag_160\n      jump\t// in\n    tag_252:\n        /* \"#utility.yul\":11559:11698   */\n      swap1\n      pop\n        /* \"#utility.yul\":11286:11705   */\n      swap2\n      swap1\n      pop\n      jump\t// out\n        /* \"#utility.yul\":11711:11890   */\n    tag_161:\n        /* \"#utility.yul\":11851:11882   */\n      0x5472616e7366657220646561646c696e6520686173207061737365642e000000\n        /* \"#utility.yul\":11847:11848   */\n      0x00\n        /* \"#utility.yul\":11839:11845   */\n      dup3\n        /* \"#utility.yul\":11835:11849   */\n      add\n        /* \"#utility.yul\":11828:11883   */\n      mstore\n        /* \"#utility.yul\":11711:11890   */\n      pop\n      jump\t// out\n        /* \"#utility.yul\":11896:12262   */\n    tag_162:\n        /* \"#utility.yul\":12038:12041   */\n      0x00\n        /* \"#utility.yul\":12059:12126   */\n      tag_255\n        /* \"#utility.yul\":12123:12125   */\n      0x1d\n        /* \"#utility.yul\":12118:12121   */\n      dup4\n        /* \"#utility.yul\":12059:12126   */\n      tag_139\n      jump\t// in\n    tag_255:\n        /* \"#utility.yul\":12052:12126   */\n      swap2\n      pop\n        /* \"#utility.yul\":12135:12228   */\n      tag_256\n        /* \"#utility.yul\":12224:12227   */\n      dup3\n        /* \"#utility.yul\":12135:12228   */\n      tag_161\n      jump\t// in\n    tag_256:\n        /* \"#utility.yul\":12253:12255   */\n      0x20\n        /* \"#utility.yul\":12248:12251   */\n      dup3\n        /* \"#utility.yul\":12244:12256   */\n      add\n        /* \"#utility.yul\":12237:12256   */\n      swap1\n      pop\n        /* \"#utility.yul\":11896:12262   */\n      swap2\n      swap1\n      pop\n      jump\t// out\n        /* \"#utility.yul\":12268:12687   */\n    tag_123:\n        /* \"#utility.yul\":12434:12438   */\n      0x00\n        /* \"#utility.yul\":12472:12474   */\n      0x20\n        /* \"#utility.yul\":12461:12470   */\n      dup3\n        /* \"#utility.yul\":12457:12475   */\n      add\n        /* \"#utility.yul\":12449:12475   */\n      swap1\n      pop\n        /* \"#utility.yul\":12521:12530   */\n      dup2\n        /* \"#utility.yul\":12515:12519   */\n      dup2\n        /* \"#utility.yul\":12511:12531   */\n      sub\n        /* \"#utility.yul\":12507:12508   */\n      0x00\n        /* \"#utility.yul\":12496:12505   */\n      dup4\n        /* \"#utility.yul\":12492:12509   */\n      add\n        /* \"#utility.yul\":12485:12532   */\n      mstore\n        /* \"#utility.yul\":12549:12680   */\n      tag_258\n        /* \"#utility.yul\":12675:12679   */\n      dup2\n        /* \"#utility.yul\":12549:12680   */\n      tag_162\n      jump\t// in\n    tag_258:\n        /* \"#utility.yul\":12541:12680   */\n      swap1\n      pop\n        /* \"#utility.yul\":12268:12687   */\n      swap2\n      swap1\n      pop\n      jump\t// out\n        /* \"#utility.yul\":12693:12918   */\n    tag_163:\n        /* \"#utility.yul\":12833:12867   */\n      0x50726f70657274792068617320616c7265616479206265656e207472616e7366\n        /* \"#utility.yul\":12829:12830   */\n      0x00\n        /* \"#utility.yul\":12821:12827   */\n      dup3\n        /* \"#utility.yul\":12817:12831   */\n      add\n        /* \"#utility.yul\":12810:12868   */\n      mstore\n        /* \"#utility.yul\":12902:12910   */\n      0x65727265642e0000000000000000000000000000000000000000000000000000\n        /* \"#utility.yul\":12897:12899   */\n      0x20\n        /* \"#utility.yul\":12889:12895   */\n      dup3\n        /* \"#utility.yul\":12885:12900   */\n      add\n        /* \"#utility.yul\":12878:12911   */\n      mstore\n        /* \"#utility.yul\":12693:12918   */\n      pop\n      jump\t// out\n        /* \"#utility.yul\":12924:13290   */\n    tag_164:\n        /* \"#utility.yul\":13066:13069   */\n      0x00\n        /* \"#utility.yul\":13087:13154   */\n      tag_261\n        /* \"#utility.yul\":13151:13153   */\n      0x26\n        /* \"#utility.yul\":13146:13149   */\n      dup4\n        /* \"#utility.yul\":13087:13154   */\n      tag_139\n      jump\t// in\n    tag_261:\n        /* \"#utility.yul\":13080:13154   */\n      swap2\n      pop\n        /* \"#utility.yul\":13163:13256   */\n      tag_262\n        /* \"#utility.yul\":13252:13255   */\n      dup3\n        /* \"#utility.yul\":13163:13256   */\n      tag_163\n      jump\t// in\n    tag_262:\n        /* \"#utility.yul\":13281:13283   */\n      0x40\n        /* \"#utility.yul\":13276:13279   */\n      dup3\n        /* \"#utility.yul\":13272:13284   */\n      add\n        /* \"#utility.yul\":13265:13284   */\n      swap1\n      pop\n        /* \"#utility.yul\":12924:13290   */\n      swap2\n      swap1\n      pop\n      jump\t// out\n        /* \"#utility.yul\":13296:13715   */\n    tag_126:\n        /* \"#utility.yul\":13462:13466   */\n      0x00\n        /* \"#utility.yul\":13500:13502   */\n      0x20\n        /* \"#utility.yul\":13489:13498   */\n      dup3\n        /* \"#utility.yul\":13485:13503   */\n      add\n        /* \"#utility.yul\":13477:13503   */\n      swap1\n      pop\n        /* \"#utility.yul\":13549:13558   */\n      dup2\n        /* \"#utility.yul\":13543:13547   */\n      dup2\n        /* \"#utility.yul\":13539:13559   */\n      sub\n        /* \"#utility.yul\":13535:13536   */\n      0x00\n        /* \"#utility.yul\":13524:13533   */\n      dup4\n        /* \"#utility.yul\":13520:13537   */\n      add\n        /* \"#utility.yul\":13513:13560   */\n      mstore\n        /* \"#utility.yul\":13577:13708   */\n      tag_264\n        /* \"#utility.yul\":13703:13707   */\n      dup2\n        /* \"#utility.yul\":13577:13708   */\n      tag_164\n      jump\t// in\n    tag_264:\n        /* \"#utility.yul\":13569:13708   */\n      swap1\n      pop\n        /* \"#utility.yul\":13296:13715   */\n      swap2\n      swap1\n      pop\n      jump\t// out\n\n    auxdata: 0xa2646970667358221220acca66d1fa32e35c76281682a75bdefed0cbc8093a5d316a53fa9af1884d47f464736f6c634300081a0033\n}\n",
				"bytecode": {
					"linkReferences": {},
					"object": "608060405234801561000f575f80fd5b50604051611944380380611944833981810160405281019061003191906102f5565b865f806101000a81548173ffffffffffffffffffffffffffffffffffffffff021916908373ffffffffffffffffffffffffffffffffffffffff1602179055508560015f6101000a81548173ffffffffffffffffffffffffffffffffffffffff021916908373ffffffffffffffffffffffffffffffffffffffff16021790555084600290816100bf91906105b2565b50836003819055508260048190555081600581905550806006819055505f60075f6101000a81548160ff0219169083151502179055505f600760016101000a81548160ff02191690831515021790555050505050505050610681565b5f604051905090565b5f80fd5b5f80fd5b5f73ffffffffffffffffffffffffffffffffffffffff82169050919050565b5f6101558261012c565b9050919050565b6101658161014b565b811461016f575f80fd5b50565b5f815190506101808161015c565b92915050565b5f80fd5b5f80fd5b5f601f19601f8301169050919050565b7f4e487b71000000000000000000000000000000000000000000000000000000005f52604160045260245ffd5b6101d48261018e565b810181811067ffffffffffffffff821117156101f3576101f261019e565b5b80604052505050565b5f61020561011b565b905061021182826101cb565b919050565b5f67ffffffffffffffff8211156102305761022f61019e565b5b6102398261018e565b9050602081019050919050565b8281835e5f83830152505050565b5f61026661026184610216565b6101fc565b9050828152602081018484840111156102825761028161018a565b5b61028d848285610246565b509392505050565b5f82601f8301126102a9576102a8610186565b5b81516102b9848260208601610254565b91505092915050565b5f819050919050565b6102d4816102c2565b81146102de575f80fd5b50565b5f815190506102ef816102cb565b92915050565b5f805f805f805f60e0888a0312156103105761030f610124565b5b5f61031d8a828b01610172565b975050602061032e8a828b01610172565b965050604088015167ffffffffffffffff81111561034f5761034e610128565b5b61035b8a828b01610295565b955050606061036c8a828b016102e1565b945050608061037d8a828b016102e1565b93505060a061038e8a828b016102e1565b92505060c061039f8a828b016102e1565b91505092959891949750929550565b5f81519050919050565b7f4e487b71000000000000000000000000000000000000000000000000000000005f52602260045260245ffd5b5f60028204905060018216806103fc57607f821691505b60208210810361040f5761040e6103b8565b5b50919050565b5f819050815f5260205f209050919050565b5f6020601f8301049050919050565b5f82821b905092915050565b5f600883026104717fffffffffffffffffffffffffffffffffffffffffffffffffffffffffffffffff82610436565b61047b8683610436565b95508019841693508086168417925050509392505050565b5f819050919050565b5f6104b66104b16104ac846102c2565b610493565b6102c2565b9050919050565b5f819050919050565b6104cf8361049c565b6104e36104db826104bd565b848454610442565b825550505050565b5f90565b6104f76104eb565b6105028184846104c6565b505050565b5b818110156105255761051a5f826104ef565b600181019050610508565b5050565b601f82111561056a5761053b81610415565b61054484610427565b81016020851015610553578190505b61056761055f85610427565b830182610507565b50505b505050565b5f82821c905092915050565b5f61058a5f198460080261056f565b1980831691505092915050565b5f6105a2838361057b565b9150826002028217905092915050565b6105bb826103ae565b67ffffffffffffffff8111156105d4576105d361019e565b5b6105de82546103e5565b6105e9828285610529565b5f60209050601f83116001811461061a575f8415610608578287015190505b6106128582610597565b865550610679565b601f19841661062886610415565b5f5b8281101561064f5784890151825560018201915060208501945060208101905061062a565b8683101561066c5784890151610668601f89168261057b565b8355505b6001600288020188555050505b505050505050565b6112b68061068e5f395ff3fe6080604052600436106100c1575f3560e01c80637150d8ae1161007e5780639fb2a15f116100585780639fb2a15f146101f7578063a6b513ee1461020d578063b0019c2714610237578063bed6a60214610261576100c1565b80637150d8ae1461018d578063756a85ed146101b7578063850c9f80146101cd576100c1565b806308551a53146100c557806356f50473146100ef57806358a687ec146101195780636548e98a1461012f57806366440d71146101595780636fe4883714610183575b5f80fd5b3480156100d0575f80fd5b506100d961028b565b6040516100e69190610b9c565b60405180910390f35b3480156100fa575f80fd5b506101036102ae565b6040516101109190610bcd565b60405180910390f35b348015610124575f80fd5b5061012d6102b4565b005b34801561013a575f80fd5b50610143610454565b6040516101509190610c00565b60405180910390f35b348015610164575f80fd5b5061016d610467565b60405161017a9190610c89565b60405180910390f35b61018b6104f3565b005b348015610198575f80fd5b506101a16106e5565b6040516101ae9190610b9c565b60405180910390f35b3480156101c2575f80fd5b506101cb61070a565b005b3480156101d8575f80fd5b506101e1610893565b6040516101ee9190610c00565b60405180910390f35b348015610202575f80fd5b5061020b6108a5565b005b348015610218575f80fd5b50610221610b4b565b60405161022e9190610bcd565b60405180910390f35b348015610242575f80fd5b5061024b610b51565b6040516102589190610bcd565b60405180910390f35b34801561026c575f80fd5b50610275610b57565b6040516102829190610bcd565b60405180910390f35b5f8054906101000a900473ffffffffffffffffffffffffffffffffffffffff1681565b60045481565b60015f9054906101000a900473ffffffffffffffffffffffffffffffffffffffff1673ffffffffffffffffffffffffffffffffffffffff163373ffffffffffffffffffffffffffffffffffffffff1614610343576040517f08c379a000000000000000000000000000000000000000000000000000000000815260040161033a90610d19565b60405180910390fd5b60075f9054906101000a900460ff16610391576040517f08c379a000000000000000000000000000000000000000000000000000000000815260040161038890610d81565b60405180910390fd5b600760019054906101000a900460ff166103e0576040517f08c379a00000000000000000000000000000000000000000000000000000000081526004016103d790610e0f565b60405180910390fd5b5f8054906101000a900473ffffffffffffffffffffffffffffffffffffffff1673ffffffffffffffffffffffffffffffffffffffff166108fc6004546003546104299190610e5a565b90811502906040515f60405180830381858888f19350505050158015610451573d5f803e3d5ffd5b50565b600760019054906101000a900460ff1681565b6002805461047490610eba565b80601f01602080910402602001604051908101604052809291908181526020018280546104a090610eba565b80156104eb5780601f106104c2576101008083540402835291602001916104eb565b820191905f5260205f20905b8154815290600101906020018083116104ce57829003601f168201915b505050505081565b60015f9054906101000a900473ffffffffffffffffffffffffffffffffffffffff1673ffffffffffffffffffffffffffffffffffffffff163373ffffffffffffffffffffffffffffffffffffffff1614610582576040517f08c379a000000000000000000000000000000000000000000000000000000000815260040161057990610d19565b60405180910390fd5b6005544211156105c7576040517f08c379a00000000000000000000000000000000000000000000000000000000081526004016105be90610f5a565b60405180910390fd5b600454341461060b576040517f08c379a000000000000000000000000000000000000000000000000000000000815260040161060290610fc2565b60405180910390fd5b60075f9054906101000a900460ff161561065a576040517f08c379a000000000000000000000000000000000000000000000000000000000815260040161065190611050565b60405180910390fd5b600160075f6101000a81548160ff02191690831515021790555060015f9054906101000a900473ffffffffffffffffffffffffffffffffffffffff1673ffffffffffffffffffffffffffffffffffffffff167f4385a0767ce15bd0a54ba1d9c29a6a6ea9dce41acdfbffed497a64e76705b8ad346040516106db9190610bcd565b60405180910390a2565b60015f9054906101000a900473ffffffffffffffffffffffffffffffffffffffff1681565b5f8054906101000a900473ffffffffffffffffffffffffffffffffffffffff1673ffffffffffffffffffffffffffffffffffffffff163373ffffffffffffffffffffffffffffffffffffffff1614610797576040517f08c379a000000000000000000000000000000000000000000000000000000000815260040161078e906110de565b60405180910390fd5b60055442116107db576040517f08c379a00000000000000000000000000000000000000000000000000000000081526004016107d29061116c565b60405180910390fd5b60075f9054906101000a900460ff161561082a576040517f08c379a000000000000000000000000000000000000000000000000000000000815260040161082190611050565b60405180910390fd5b60015f9054906101000a900473ffffffffffffffffffffffffffffffffffffffff1673ffffffffffffffffffffffffffffffffffffffff166108fc60045490811502906040515f60405180830381858888f19350505050158015610890573d5f803e3d5ffd5b50565b60075f9054906101000a900460ff1681565b5f8054906101000a900473ffffffffffffffffffffffffffffffffffffffff1673ffffffffffffffffffffffffffffffffffffffff163373ffffffffffffffffffffffffffffffffffffffff1614610932576040517f08c379a0000000000000000000000000000000000000000000000000000000008152600401610929906110de565b60405180910390fd5b60075f9054906101000a900460ff16610980576040517f08c379a000000000000000000000000000000000000000000000000000000000815260040161097790610d81565b60405180910390fd5b6006544211156109c5576040517f08c379a00000000000000000000000000000000000000000000000000000000081526004016109bc906111d4565b60405180910390fd5b600760019054906101000a900460ff1615610a15576040517f08c379a0000000000000000000000000000000000000000000000000000000008152600401610a0c90611262565b60405180910390fd5b6001600760016101000a81548160ff0219169083151502179055505f8054906101000a900473ffffffffffffffffffffffffffffffffffffffff1673ffffffffffffffffffffffffffffffffffffffff166108fc600454600354610a799190610e5a565b90811502906040515f60405180830381858888f19350505050158015610aa1573d5f803e3d5ffd5b5060015f9054906101000a900473ffffffffffffffffffffffffffffffffffffffff1673ffffffffffffffffffffffffffffffffffffffff165f8054906101000a900473ffffffffffffffffffffffffffffffffffffffff1673ffffffffffffffffffffffffffffffffffffffff167fe5894307e8efed03d242bcb85a749c24d96ebf0de331e3437138cccc00d26542600354604051610b419190610bcd565b60405180910390a3565b60035481565b60055481565b60065481565b5f73ffffffffffffffffffffffffffffffffffffffff82169050919050565b5f610b8682610b5d565b9050919050565b610b9681610b7c565b82525050565b5f602082019050610baf5f830184610b8d565b92915050565b5f819050919050565b610bc781610bb5565b82525050565b5f602082019050610be05f830184610bbe565b92915050565b5f8115159050919050565b610bfa81610be6565b82525050565b5f602082019050610c135f830184610bf1565b92915050565b5f81519050919050565b5f82825260208201905092915050565b8281835e5f83830152505050565b5f601f19601f8301169050919050565b5f610c5b82610c19565b610c658185610c23565b9350610c75818560208601610c33565b610c7e81610c41565b840191505092915050565b5f6020820190508181035f830152610ca18184610c51565b905092915050565b7f4f6e6c79207468652062757965722063616e2063616c6c20746869732066756e5f8201527f6374696f6e2e0000000000000000000000000000000000000000000000000000602082015250565b5f610d03602683610c23565b9150610d0e82610ca9565b604082019050919050565b5f6020820190508181035f830152610d3081610cf7565b9050919050565b7f446f776e207061796d656e7420686173206e6f74206265656e206d6164652e005f82015250565b5f610d6b601f83610c23565b9150610d7682610d37565b602082019050919050565b5f6020820190508181035f830152610d9881610d5f565b9050919050565b7f50726f706572747920686173206e6f74206265656e207472616e7366657272655f8201527f642e000000000000000000000000000000000000000000000000000000000000602082015250565b5f610df9602283610c23565b9150610e0482610d9f565b604082019050919050565b5f6020820190508181035f830152610e2681610ded565b9050919050565b7f4e487b71000000000000000000000000000000000000000000000000000000005f52601160045260245ffd5b5f610e6482610bb5565b9150610e6f83610bb5565b9250828203905081811115610e8757610e86610e2d565b5b92915050565b7f4e487b71000000000000000000000000000000000000000000000000000000005f52602260045260245ffd5b5f6002820490506001821680610ed157607f821691505b602082108103610ee457610ee3610e8d565b5b50919050565b7f446f776e207061796d656e7420646561646c696e6520686173207061737365645f8201527f2e00000000000000000000000000000000000000000000000000000000000000602082015250565b5f610f44602183610c23565b9150610f4f82610eea565b604082019050919050565b5f6020820190508181035f830152610f7181610f38565b9050919050565b7f496e636f727265637420646f776e207061796d656e7420616d6f756e742e00005f82015250565b5f610fac601e83610c23565b9150610fb782610f78565b602082019050919050565b5f6020820190508181035f830152610fd981610fa0565b9050919050565b7f446f776e207061796d656e742068617320616c7265616479206265656e206d615f8201527f64652e0000000000000000000000000000000000000000000000000000000000602082015250565b5f61103a602383610c23565b915061104582610fe0565b604082019050919050565b5f6020820190508181035f8301526110678161102e565b9050919050565b7f4f6e6c79207468652073656c6c65722063616e2063616c6c20746869732066755f8201527f6e6374696f6e2e00000000000000000000000000000000000000000000000000602082015250565b5f6110c8602783610c23565b91506110d38261106e565b604082019050919050565b5f6020820190508181035f8301526110f5816110bc565b9050919050565b7f446f776e207061796d656e7420646561646c696e6520686173206e6f742070615f8201527f737365642e000000000000000000000000000000000000000000000000000000602082015250565b5f611156602583610c23565b9150611161826110fc565b604082019050919050565b5f6020820190508181035f8301526111838161114a565b9050919050565b7f5472616e7366657220646561646c696e6520686173207061737365642e0000005f82015250565b5f6111be601d83610c23565b91506111c98261118a565b602082019050919050565b5f6020820190508181035f8301526111eb816111b2565b9050919050565b7f50726f70657274792068617320616c7265616479206265656e207472616e73665f8201527f65727265642e0000000000000000000000000000000000000000000000000000602082015250565b5f61124c602683610c23565b9150611257826111f2565b604082019050919050565b5f6020820190508181035f83015261127981611240565b905091905056fea2646970667358221220acca66d1fa32e35c76281682a75bdefed0cbc8093a5d316a53fa9af1884d47f464736f6c634300081a0033",
					"opcodes": "PUSH1 0x80 PUSH1 0x40 MSTORE CALLVALUE DUP1 ISZERO PUSH2 0xF JUMPI PUSH0 DUP1 REVERT JUMPDEST POP PUSH1 0x40 MLOAD PUSH2 0x1944 CODESIZE SUB DUP1 PUSH2 0x1944 DUP4 CODECOPY DUP2 DUP2 ADD PUSH1 0x40 MSTORE DUP2 ADD SWAP1 PUSH2 0x31 SWAP2 SWAP1 PUSH2 0x2F5 JUMP JUMPDEST DUP7 PUSH0 DUP1 PUSH2 0x100 EXP DUP2 SLOAD DUP2 PUSH20 0xFFFFFFFFFFFFFFFFFFFFFFFFFFFFFFFFFFFFFFFF MUL NOT AND SWAP1 DUP4 PUSH20 0xFFFFFFFFFFFFFFFFFFFFFFFFFFFFFFFFFFFFFFFF AND MUL OR SWAP1 SSTORE POP DUP6 PUSH1 0x1 PUSH0 PUSH2 0x100 EXP DUP2 SLOAD DUP2 PUSH20 0xFFFFFFFFFFFFFFFFFFFFFFFFFFFFFFFFFFFFFFFF MUL NOT AND SWAP1 DUP4 PUSH20 0xFFFFFFFFFFFFFFFFFFFFFFFFFFFFFFFFFFFFFFFF AND MUL OR SWAP1 SSTORE POP DUP5 PUSH1 0x2 SWAP1 DUP2 PUSH2 0xBF SWAP2 SWAP1 PUSH2 0x5B2 JUMP JUMPDEST POP DUP4 PUSH1 0x3 DUP2 SWAP1 SSTORE POP DUP3 PUSH1 0x4 DUP2 SWAP1 SSTORE POP DUP2 PUSH1 0x5 DUP2 SWAP1 SSTORE POP DUP1 PUSH1 0x6 DUP2 SWAP1 SSTORE POP PUSH0 PUSH1 0x7 PUSH0 PUSH2 0x100 EXP DUP2 SLOAD DUP2 PUSH1 0xFF MUL NOT AND SWAP1 DUP4 ISZERO ISZERO MUL OR SWAP1 SSTORE POP PUSH0 PUSH1 0x7 PUSH1 0x1 PUSH2 0x100 EXP DUP2 SLOAD DUP2 PUSH1 0xFF MUL NOT AND SWAP1 DUP4 ISZERO ISZERO MUL OR SWAP1 SSTORE POP POP POP POP POP POP POP POP PUSH2 0x681 JUMP JUMPDEST PUSH0 PUSH1 0x40 MLOAD SWAP1 POP SWAP1 JUMP JUMPDEST PUSH0 DUP1 REVERT JUMPDEST PUSH0 DUP1 REVERT JUMPDEST PUSH0 PUSH20 0xFFFFFFFFFFFFFFFFFFFFFFFFFFFFFFFFFFFFFFFF DUP3 AND SWAP1 POP SWAP2 SWAP1 POP JUMP JUMPDEST PUSH0 PUSH2 0x155 DUP3 PUSH2 0x12C JUMP JUMPDEST SWAP1 POP SWAP2 SWAP1 POP JUMP JUMPDEST PUSH2 0x165 DUP2 PUSH2 0x14B JUMP JUMPDEST DUP2 EQ PUSH2 0x16F JUMPI PUSH0 DUP1 REVERT JUMPDEST POP JUMP JUMPDEST PUSH0 DUP2 MLOAD SWAP1 POP PUSH2 0x180 DUP2 PUSH2 0x15C JUMP JUMPDEST SWAP3 SWAP2 POP POP JUMP JUMPDEST PUSH0 DUP1 REVERT JUMPDEST PUSH0 DUP1 REVERT JUMPDEST PUSH0 PUSH1 0x1F NOT PUSH1 0x1F DUP4 ADD AND SWAP1 POP SWAP2 SWAP1 POP JUMP JUMPDEST PUSH32 0x4E487B7100000000000000000000000000000000000000000000000000000000 PUSH0 MSTORE PUSH1 0x41 PUSH1 0x4 MSTORE PUSH1 0x24 PUSH0 REVERT JUMPDEST PUSH2 0x1D4 DUP3 PUSH2 0x18E JUMP JUMPDEST DUP2 ADD DUP2 DUP2 LT PUSH8 0xFFFFFFFFFFFFFFFF DUP3 GT OR ISZERO PUSH2 0x1F3 JUMPI PUSH2 0x1F2 PUSH2 0x19E JUMP JUMPDEST JUMPDEST DUP1 PUSH1 0x40 MSTORE POP POP POP JUMP JUMPDEST PUSH0 PUSH2 0x205 PUSH2 0x11B JUMP JUMPDEST SWAP1 POP PUSH2 0x211 DUP3 DUP3 PUSH2 0x1CB JUMP JUMPDEST SWAP2 SWAP1 POP JUMP JUMPDEST PUSH0 PUSH8 0xFFFFFFFFFFFFFFFF DUP3 GT ISZERO PUSH2 0x230 JUMPI PUSH2 0x22F PUSH2 0x19E JUMP JUMPDEST JUMPDEST PUSH2 0x239 DUP3 PUSH2 0x18E JUMP JUMPDEST SWAP1 POP PUSH1 0x20 DUP2 ADD SWAP1 POP SWAP2 SWAP1 POP JUMP JUMPDEST DUP3 DUP2 DUP4 MCOPY PUSH0 DUP4 DUP4 ADD MSTORE POP POP POP JUMP JUMPDEST PUSH0 PUSH2 0x266 PUSH2 0x261 DUP5 PUSH2 0x216 JUMP JUMPDEST PUSH2 0x1FC JUMP JUMPDEST SWAP1 POP DUP3 DUP2 MSTORE PUSH1 0x20 DUP2 ADD DUP5 DUP5 DUP5 ADD GT ISZERO PUSH2 0x282 JUMPI PUSH2 0x281 PUSH2 0x18A JUMP JUMPDEST JUMPDEST PUSH2 0x28D DUP5 DUP3 DUP6 PUSH2 0x246 JUMP JUMPDEST POP SWAP4 SWAP3 POP POP POP JUMP JUMPDEST PUSH0 DUP3 PUSH1 0x1F DUP4 ADD SLT PUSH2 0x2A9 JUMPI PUSH2 0x2A8 PUSH2 0x186 JUMP JUMPDEST JUMPDEST DUP2 MLOAD PUSH2 0x2B9 DUP5 DUP3 PUSH1 0x20 DUP7 ADD PUSH2 0x254 JUMP JUMPDEST SWAP2 POP POP SWAP3 SWAP2 POP POP JUMP JUMPDEST PUSH0 DUP2 SWAP1 POP SWAP2 SWAP1 POP JUMP JUMPDEST PUSH2 0x2D4 DUP2 PUSH2 0x2C2 JUMP JUMPDEST DUP2 EQ PUSH2 0x2DE JUMPI PUSH0 DUP1 REVERT JUMPDEST POP JUMP JUMPDEST PUSH0 DUP2 MLOAD SWAP1 POP PUSH2 0x2EF DUP2 PUSH2 0x2CB JUMP JUMPDEST SWAP3 SWAP2 POP POP JUMP JUMPDEST PUSH0 DUP1 PUSH0 DUP1 PUSH0 DUP1 PUSH0 PUSH1 0xE0 DUP9 DUP11 SUB SLT ISZERO PUSH2 0x310 JUMPI PUSH2 0x30F PUSH2 0x124 JUMP JUMPDEST JUMPDEST PUSH0 PUSH2 0x31D DUP11 DUP3 DUP12 ADD PUSH2 0x172 JUMP JUMPDEST SWAP8 POP POP PUSH1 0x20 PUSH2 0x32E DUP11 DUP3 DUP12 ADD PUSH2 0x172 JUMP JUMPDEST SWAP7 POP POP PUSH1 0x40 DUP9 ADD MLOAD PUSH8 0xFFFFFFFFFFFFFFFF DUP2 GT ISZERO PUSH2 0x34F JUMPI PUSH2 0x34E PUSH2 0x128 JUMP JUMPDEST JUMPDEST PUSH2 0x35B DUP11 DUP3 DUP12 ADD PUSH2 0x295 JUMP JUMPDEST SWAP6 POP POP PUSH1 0x60 PUSH2 0x36C DUP11 DUP3 DUP12 ADD PUSH2 0x2E1 JUMP JUMPDEST SWAP5 POP POP PUSH1 0x80 PUSH2 0x37D DUP11 DUP3 DUP12 ADD PUSH2 0x2E1 JUMP JUMPDEST SWAP4 POP POP PUSH1 0xA0 PUSH2 0x38E DUP11 DUP3 DUP12 ADD PUSH2 0x2E1 JUMP JUMPDEST SWAP3 POP POP PUSH1 0xC0 PUSH2 0x39F DUP11 DUP3 DUP12 ADD PUSH2 0x2E1 JUMP JUMPDEST SWAP2 POP POP SWAP3 SWAP6 SWAP9 SWAP2 SWAP5 SWAP8 POP SWAP3 SWAP6 POP JUMP JUMPDEST PUSH0 DUP2 MLOAD SWAP1 POP SWAP2 SWAP1 POP JUMP JUMPDEST PUSH32 0x4E487B7100000000000000000000000000000000000000000000000000000000 PUSH0 MSTORE PUSH1 0x22 PUSH1 0x4 MSTORE PUSH1 0x24 PUSH0 REVERT JUMPDEST PUSH0 PUSH1 0x2 DUP3 DIV SWAP1 POP PUSH1 0x1 DUP3 AND DUP1 PUSH2 0x3FC JUMPI PUSH1 0x7F DUP3 AND SWAP2 POP JUMPDEST PUSH1 0x20 DUP3 LT DUP2 SUB PUSH2 0x40F JUMPI PUSH2 0x40E PUSH2 0x3B8 JUMP JUMPDEST JUMPDEST POP SWAP2 SWAP1 POP JUMP JUMPDEST PUSH0 DUP2 SWAP1 POP DUP2 PUSH0 MSTORE PUSH1 0x20 PUSH0 KECCAK256 SWAP1 POP SWAP2 SWAP1 POP JUMP JUMPDEST PUSH0 PUSH1 0x20 PUSH1 0x1F DUP4 ADD DIV SWAP1 POP SWAP2 SWAP1 POP JUMP JUMPDEST PUSH0 DUP3 DUP3 SHL SWAP1 POP SWAP3 SWAP2 POP POP JUMP JUMPDEST PUSH0 PUSH1 0x8 DUP4 MUL PUSH2 0x471 PUSH32 0xFFFFFFFFFFFFFFFFFFFFFFFFFFFFFFFFFFFFFFFFFFFFFFFFFFFFFFFFFFFFFFFF DUP3 PUSH2 0x436 JUMP JUMPDEST PUSH2 0x47B DUP7 DUP4 PUSH2 0x436 JUMP JUMPDEST SWAP6 POP DUP1 NOT DUP5 AND SWAP4 POP DUP1 DUP7 AND DUP5 OR SWAP3 POP POP POP SWAP4 SWAP3 POP POP POP JUMP JUMPDEST PUSH0 DUP2 SWAP1 POP SWAP2 SWAP1 POP JUMP JUMPDEST PUSH0 PUSH2 0x4B6 PUSH2 0x4B1 PUSH2 0x4AC DUP5 PUSH2 0x2C2 JUMP JUMPDEST PUSH2 0x493 JUMP JUMPDEST PUSH2 0x2C2 JUMP JUMPDEST SWAP1 POP SWAP2 SWAP1 POP JUMP JUMPDEST PUSH0 DUP2 SWAP1 POP SWAP2 SWAP1 POP JUMP JUMPDEST PUSH2 0x4CF DUP4 PUSH2 0x49C JUMP JUMPDEST PUSH2 0x4E3 PUSH2 0x4DB DUP3 PUSH2 0x4BD JUMP JUMPDEST DUP5 DUP5 SLOAD PUSH2 0x442 JUMP JUMPDEST DUP3 SSTORE POP POP POP POP JUMP JUMPDEST PUSH0 SWAP1 JUMP JUMPDEST PUSH2 0x4F7 PUSH2 0x4EB JUMP JUMPDEST PUSH2 0x502 DUP2 DUP5 DUP5 PUSH2 0x4C6 JUMP JUMPDEST POP POP POP JUMP JUMPDEST JUMPDEST DUP2 DUP2 LT ISZERO PUSH2 0x525 JUMPI PUSH2 0x51A PUSH0 DUP3 PUSH2 0x4EF JUMP JUMPDEST PUSH1 0x1 DUP2 ADD SWAP1 POP PUSH2 0x508 JUMP JUMPDEST POP POP JUMP JUMPDEST PUSH1 0x1F DUP3 GT ISZERO PUSH2 0x56A JUMPI PUSH2 0x53B DUP2 PUSH2 0x415 JUMP JUMPDEST PUSH2 0x544 DUP5 PUSH2 0x427 JUMP JUMPDEST DUP2 ADD PUSH1 0x20 DUP6 LT ISZERO PUSH2 0x553 JUMPI DUP2 SWAP1 POP JUMPDEST PUSH2 0x567 PUSH2 0x55F DUP6 PUSH2 0x427 JUMP JUMPDEST DUP4 ADD DUP3 PUSH2 0x507 JUMP JUMPDEST POP POP JUMPDEST POP POP POP JUMP JUMPDEST PUSH0 DUP3 DUP3 SHR SWAP1 POP SWAP3 SWAP2 POP POP JUMP JUMPDEST PUSH0 PUSH2 0x58A PUSH0 NOT DUP5 PUSH1 0x8 MUL PUSH2 0x56F JUMP JUMPDEST NOT DUP1 DUP4 AND SWAP2 POP POP SWAP3 SWAP2 POP POP JUMP JUMPDEST PUSH0 PUSH2 0x5A2 DUP4 DUP4 PUSH2 0x57B JUMP JUMPDEST SWAP2 POP DUP3 PUSH1 0x2 MUL DUP3 OR SWAP1 POP SWAP3 SWAP2 POP POP JUMP JUMPDEST PUSH2 0x5BB DUP3 PUSH2 0x3AE JUMP JUMPDEST PUSH8 0xFFFFFFFFFFFFFFFF DUP2 GT ISZERO PUSH2 0x5D4 JUMPI PUSH2 0x5D3 PUSH2 0x19E JUMP JUMPDEST JUMPDEST PUSH2 0x5DE DUP3 SLOAD PUSH2 0x3E5 JUMP JUMPDEST PUSH2 0x5E9 DUP3 DUP3 DUP6 PUSH2 0x529 JUMP JUMPDEST PUSH0 PUSH1 0x20 SWAP1 POP PUSH1 0x1F DUP4 GT PUSH1 0x1 DUP2 EQ PUSH2 0x61A JUMPI PUSH0 DUP5 ISZERO PUSH2 0x608 JUMPI DUP3 DUP8 ADD MLOAD SWAP1 POP JUMPDEST PUSH2 0x612 DUP6 DUP3 PUSH2 0x597 JUMP JUMPDEST DUP7 SSTORE POP PUSH2 0x679 JUMP JUMPDEST PUSH1 0x1F NOT DUP5 AND PUSH2 0x628 DUP7 PUSH2 0x415 JUMP JUMPDEST PUSH0 JUMPDEST DUP3 DUP2 LT ISZERO PUSH2 0x64F JUMPI DUP5 DUP10 ADD MLOAD DUP3 SSTORE PUSH1 0x1 DUP3 ADD SWAP2 POP PUSH1 0x20 DUP6 ADD SWAP5 POP PUSH1 0x20 DUP2 ADD SWAP1 POP PUSH2 0x62A JUMP JUMPDEST DUP7 DUP4 LT ISZERO PUSH2 0x66C JUMPI DUP5 DUP10 ADD MLOAD PUSH2 0x668 PUSH1 0x1F DUP10 AND DUP3 PUSH2 0x57B JUMP JUMPDEST DUP4 SSTORE POP JUMPDEST PUSH1 0x1 PUSH1 0x2 DUP9 MUL ADD DUP9 SSTORE POP POP POP JUMPDEST POP POP POP POP POP POP JUMP JUMPDEST PUSH2 0x12B6 DUP1 PUSH2 0x68E PUSH0 CODECOPY PUSH0 RETURN INVALID PUSH1 0x80 PUSH1 0x40 MSTORE PUSH1 0x4 CALLDATASIZE LT PUSH2 0xC1 JUMPI PUSH0 CALLDATALOAD PUSH1 0xE0 SHR DUP1 PUSH4 0x7150D8AE GT PUSH2 0x7E JUMPI DUP1 PUSH4 0x9FB2A15F GT PUSH2 0x58 JUMPI DUP1 PUSH4 0x9FB2A15F EQ PUSH2 0x1F7 JUMPI DUP1 PUSH4 0xA6B513EE EQ PUSH2 0x20D JUMPI DUP1 PUSH4 0xB0019C27 EQ PUSH2 0x237 JUMPI DUP1 PUSH4 0xBED6A602 EQ PUSH2 0x261 JUMPI PUSH2 0xC1 JUMP JUMPDEST DUP1 PUSH4 0x7150D8AE EQ PUSH2 0x18D JUMPI DUP1 PUSH4 0x756A85ED EQ PUSH2 0x1B7 JUMPI DUP1 PUSH4 0x850C9F80 EQ PUSH2 0x1CD JUMPI PUSH2 0xC1 JUMP JUMPDEST DUP1 PUSH4 0x8551A53 EQ PUSH2 0xC5 JUMPI DUP1 PUSH4 0x56F50473 EQ PUSH2 0xEF JUMPI DUP1 PUSH4 0x58A687EC EQ PUSH2 0x119 JUMPI DUP1 PUSH4 0x6548E98A EQ PUSH2 0x12F JUMPI DUP1 PUSH4 0x66440D71 EQ PUSH2 0x159 JUMPI DUP1 PUSH4 0x6FE48837 EQ PUSH2 0x183 JUMPI JUMPDEST PUSH0 DUP1 REVERT JUMPDEST CALLVALUE DUP1 ISZERO PUSH2 0xD0 JUMPI PUSH0 DUP1 REVERT JUMPDEST POP PUSH2 0xD9 PUSH2 0x28B JUMP JUMPDEST PUSH1 0x40 MLOAD PUSH2 0xE6 SWAP2 SWAP1 PUSH2 0xB9C JUMP JUMPDEST PUSH1 0x40 MLOAD DUP1 SWAP2 SUB SWAP1 RETURN JUMPDEST CALLVALUE DUP1 ISZERO PUSH2 0xFA JUMPI PUSH0 DUP1 REVERT JUMPDEST POP PUSH2 0x103 PUSH2 0x2AE JUMP JUMPDEST PUSH1 0x40 MLOAD PUSH2 0x110 SWAP2 SWAP1 PUSH2 0xBCD JUMP JUMPDEST PUSH1 0x40 MLOAD DUP1 SWAP2 SUB SWAP1 RETURN JUMPDEST CALLVALUE DUP1 ISZERO PUSH2 0x124 JUMPI PUSH0 DUP1 REVERT JUMPDEST POP PUSH2 0x12D PUSH2 0x2B4 JUMP JUMPDEST STOP JUMPDEST CALLVALUE DUP1 ISZERO PUSH2 0x13A JUMPI PUSH0 DUP1 REVERT JUMPDEST POP PUSH2 0x143 PUSH2 0x454 JUMP JUMPDEST PUSH1 0x40 MLOAD PUSH2 0x150 SWAP2 SWAP1 PUSH2 0xC00 JUMP JUMPDEST PUSH1 0x40 MLOAD DUP1 SWAP2 SUB SWAP1 RETURN JUMPDEST CALLVALUE DUP1 ISZERO PUSH2 0x164 JUMPI PUSH0 DUP1 REVERT JUMPDEST POP PUSH2 0x16D PUSH2 0x467 JUMP JUMPDEST PUSH1 0x40 MLOAD PUSH2 0x17A SWAP2 SWAP1 PUSH2 0xC89 JUMP JUMPDEST PUSH1 0x40 MLOAD DUP1 SWAP2 SUB SWAP1 RETURN JUMPDEST PUSH2 0x18B PUSH2 0x4F3 JUMP JUMPDEST STOP JUMPDEST CALLVALUE DUP1 ISZERO PUSH2 0x198 JUMPI PUSH0 DUP1 REVERT JUMPDEST POP PUSH2 0x1A1 PUSH2 0x6E5 JUMP JUMPDEST PUSH1 0x40 MLOAD PUSH2 0x1AE SWAP2 SWAP1 PUSH2 0xB9C JUMP JUMPDEST PUSH1 0x40 MLOAD DUP1 SWAP2 SUB SWAP1 RETURN JUMPDEST CALLVALUE DUP1 ISZERO PUSH2 0x1C2 JUMPI PUSH0 DUP1 REVERT JUMPDEST POP PUSH2 0x1CB PUSH2 0x70A JUMP JUMPDEST STOP JUMPDEST CALLVALUE DUP1 ISZERO PUSH2 0x1D8 JUMPI PUSH0 DUP1 REVERT JUMPDEST POP PUSH2 0x1E1 PUSH2 0x893 JUMP JUMPDEST PUSH1 0x40 MLOAD PUSH2 0x1EE SWAP2 SWAP1 PUSH2 0xC00 JUMP JUMPDEST PUSH1 0x40 MLOAD DUP1 SWAP2 SUB SWAP1 RETURN JUMPDEST CALLVALUE DUP1 ISZERO PUSH2 0x202 JUMPI PUSH0 DUP1 REVERT JUMPDEST POP PUSH2 0x20B PUSH2 0x8A5 JUMP JUMPDEST STOP JUMPDEST CALLVALUE DUP1 ISZERO PUSH2 0x218 JUMPI PUSH0 DUP1 REVERT JUMPDEST POP PUSH2 0x221 PUSH2 0xB4B JUMP JUMPDEST PUSH1 0x40 MLOAD PUSH2 0x22E SWAP2 SWAP1 PUSH2 0xBCD JUMP JUMPDEST PUSH1 0x40 MLOAD DUP1 SWAP2 SUB SWAP1 RETURN JUMPDEST CALLVALUE DUP1 ISZERO PUSH2 0x242 JUMPI PUSH0 DUP1 REVERT JUMPDEST POP PUSH2 0x24B PUSH2 0xB51 JUMP JUMPDEST PUSH1 0x40 MLOAD PUSH2 0x258 SWAP2 SWAP1 PUSH2 0xBCD JUMP JUMPDEST PUSH1 0x40 MLOAD DUP1 SWAP2 SUB SWAP1 RETURN JUMPDEST CALLVALUE DUP1 ISZERO PUSH2 0x26C JUMPI PUSH0 DUP1 REVERT JUMPDEST POP PUSH2 0x275 PUSH2 0xB57 JUMP JUMPDEST PUSH1 0x40 MLOAD PUSH2 0x282 SWAP2 SWAP1 PUSH2 0xBCD JUMP JUMPDEST PUSH1 0x40 MLOAD DUP1 SWAP2 SUB SWAP1 RETURN JUMPDEST PUSH0 DUP1 SLOAD SWAP1 PUSH2 0x100 EXP SWAP1 DIV PUSH20 0xFFFFFFFFFFFFFFFFFFFFFFFFFFFFFFFFFFFFFFFF AND DUP2 JUMP JUMPDEST PUSH1 0x4 SLOAD DUP2 JUMP JUMPDEST PUSH1 0x1 PUSH0 SWAP1 SLOAD SWAP1 PUSH2 0x100 EXP SWAP1 DIV PUSH20 0xFFFFFFFFFFFFFFFFFFFFFFFFFFFFFFFFFFFFFFFF AND PUSH20 0xFFFFFFFFFFFFFFFFFFFFFFFFFFFFFFFFFFFFFFFF AND CALLER PUSH20 0xFFFFFFFFFFFFFFFFFFFFFFFFFFFFFFFFFFFFFFFF AND EQ PUSH2 0x343 JUMPI PUSH1 0x40 MLOAD PUSH32 0x8C379A000000000000000000000000000000000000000000000000000000000 DUP2 MSTORE PUSH1 0x4 ADD PUSH2 0x33A SWAP1 PUSH2 0xD19 JUMP JUMPDEST PUSH1 0x40 MLOAD DUP1 SWAP2 SUB SWAP1 REVERT JUMPDEST PUSH1 0x7 PUSH0 SWAP1 SLOAD SWAP1 PUSH2 0x100 EXP SWAP1 DIV PUSH1 0xFF AND PUSH2 0x391 JUMPI PUSH1 0x40 MLOAD PUSH32 0x8C379A000000000000000000000000000000000000000000000000000000000 DUP2 MSTORE PUSH1 0x4 ADD PUSH2 0x388 SWAP1 PUSH2 0xD81 JUMP JUMPDEST PUSH1 0x40 MLOAD DUP1 SWAP2 SUB SWAP1 REVERT JUMPDEST PUSH1 0x7 PUSH1 0x1 SWAP1 SLOAD SWAP1 PUSH2 0x100 EXP SWAP1 DIV PUSH1 0xFF AND PUSH2 0x3E0 JUMPI PUSH1 0x40 MLOAD PUSH32 0x8C379A000000000000000000000000000000000000000000000000000000000 DUP2 MSTORE PUSH1 0x4 ADD PUSH2 0x3D7 SWAP1 PUSH2 0xE0F JUMP JUMPDEST PUSH1 0x40 MLOAD DUP1 SWAP2 SUB SWAP1 REVERT JUMPDEST PUSH0 DUP1 SLOAD SWAP1 PUSH2 0x100 EXP SWAP1 DIV PUSH20 0xFFFFFFFFFFFFFFFFFFFFFFFFFFFFFFFFFFFFFFFF AND PUSH20 0xFFFFFFFFFFFFFFFFFFFFFFFFFFFFFFFFFFFFFFFF AND PUSH2 0x8FC PUSH1 0x4 SLOAD PUSH1 0x3 SLOAD PUSH2 0x429 SWAP2 SWAP1 PUSH2 0xE5A JUMP JUMPDEST SWAP1 DUP2 ISZERO MUL SWAP1 PUSH1 0x40 MLOAD PUSH0 PUSH1 0x40 MLOAD DUP1 DUP4 SUB DUP2 DUP6 DUP9 DUP9 CALL SWAP4 POP POP POP POP ISZERO DUP1 ISZERO PUSH2 0x451 JUMPI RETURNDATASIZE PUSH0 DUP1 RETURNDATACOPY RETURNDATASIZE PUSH0 REVERT JUMPDEST POP JUMP JUMPDEST PUSH1 0x7 PUSH1 0x1 SWAP1 SLOAD SWAP1 PUSH2 0x100 EXP SWAP1 DIV PUSH1 0xFF AND DUP2 JUMP JUMPDEST PUSH1 0x2 DUP1 SLOAD PUSH2 0x474 SWAP1 PUSH2 0xEBA JUMP JUMPDEST DUP1 PUSH1 0x1F ADD PUSH1 0x20 DUP1 SWAP2 DIV MUL PUSH1 0x20 ADD PUSH1 0x40 MLOAD SWAP1 DUP2 ADD PUSH1 0x40 MSTORE DUP1 SWAP3 SWAP2 SWAP1 DUP2 DUP2 MSTORE PUSH1 0x20 ADD DUP3 DUP1 SLOAD PUSH2 0x4A0 SWAP1 PUSH2 0xEBA JUMP JUMPDEST DUP1 ISZERO PUSH2 0x4EB JUMPI DUP1 PUSH1 0x1F LT PUSH2 0x4C2 JUMPI PUSH2 0x100 DUP1 DUP4 SLOAD DIV MUL DUP4 MSTORE SWAP2 PUSH1 0x20 ADD SWAP2 PUSH2 0x4EB JUMP JUMPDEST DUP3 ADD SWAP2 SWAP1 PUSH0 MSTORE PUSH1 0x20 PUSH0 KECCAK256 SWAP1 JUMPDEST DUP2 SLOAD DUP2 MSTORE SWAP1 PUSH1 0x1 ADD SWAP1 PUSH1 0x20 ADD DUP1 DUP4 GT PUSH2 0x4CE JUMPI DUP3 SWAP1 SUB PUSH1 0x1F AND DUP3 ADD SWAP2 JUMPDEST POP POP POP POP POP DUP2 JUMP JUMPDEST PUSH1 0x1 PUSH0 SWAP1 SLOAD SWAP1 PUSH2 0x100 EXP SWAP1 DIV PUSH20 0xFFFFFFFFFFFFFFFFFFFFFFFFFFFFFFFFFFFFFFFF AND PUSH20 0xFFFFFFFFFFFFFFFFFFFFFFFFFFFFFFFFFFFFFFFF AND CALLER PUSH20 0xFFFFFFFFFFFFFFFFFFFFFFFFFFFFFFFFFFFFFFFF AND EQ PUSH2 0x582 JUMPI PUSH1 0x40 MLOAD PUSH32 0x8C379A000000000000000000000000000000000000000000000000000000000 DUP2 MSTORE PUSH1 0x4 ADD PUSH2 0x579 SWAP1 PUSH2 0xD19 JUMP JUMPDEST PUSH1 0x40 MLOAD DUP1 SWAP2 SUB SWAP1 REVERT JUMPDEST PUSH1 0x5 SLOAD TIMESTAMP GT ISZERO PUSH2 0x5C7 JUMPI PUSH1 0x40 MLOAD PUSH32 0x8C379A000000000000000000000000000000000000000000000000000000000 DUP2 MSTORE PUSH1 0x4 ADD PUSH2 0x5BE SWAP1 PUSH2 0xF5A JUMP JUMPDEST PUSH1 0x40 MLOAD DUP1 SWAP2 SUB SWAP1 REVERT JUMPDEST PUSH1 0x4 SLOAD CALLVALUE EQ PUSH2 0x60B JUMPI PUSH1 0x40 MLOAD PUSH32 0x8C379A000000000000000000000000000000000000000000000000000000000 DUP2 MSTORE PUSH1 0x4 ADD PUSH2 0x602 SWAP1 PUSH2 0xFC2 JUMP JUMPDEST PUSH1 0x40 MLOAD DUP1 SWAP2 SUB SWAP1 REVERT JUMPDEST PUSH1 0x7 PUSH0 SWAP1 SLOAD SWAP1 PUSH2 0x100 EXP SWAP1 DIV PUSH1 0xFF AND ISZERO PUSH2 0x65A JUMPI PUSH1 0x40 MLOAD PUSH32 0x8C379A000000000000000000000000000000000000000000000000000000000 DUP2 MSTORE PUSH1 0x4 ADD PUSH2 0x651 SWAP1 PUSH2 0x1050 JUMP JUMPDEST PUSH1 0x40 MLOAD DUP1 SWAP2 SUB SWAP1 REVERT JUMPDEST PUSH1 0x1 PUSH1 0x7 PUSH0 PUSH2 0x100 EXP DUP2 SLOAD DUP2 PUSH1 0xFF MUL NOT AND SWAP1 DUP4 ISZERO ISZERO MUL OR SWAP1 SSTORE POP PUSH1 0x1 PUSH0 SWAP1 SLOAD SWAP1 PUSH2 0x100 EXP SWAP1 DIV PUSH20 0xFFFFFFFFFFFFFFFFFFFFFFFFFFFFFFFFFFFFFFFF AND PUSH20 0xFFFFFFFFFFFFFFFFFFFFFFFFFFFFFFFFFFFFFFFF AND PUSH32 0x4385A0767CE15BD0A54BA1D9C29A6A6EA9DCE41ACDFBFFED497A64E76705B8AD CALLVALUE PUSH1 0x40 MLOAD PUSH2 0x6DB SWAP2 SWAP1 PUSH2 0xBCD JUMP JUMPDEST PUSH1 0x40 MLOAD DUP1 SWAP2 SUB SWAP1 LOG2 JUMP JUMPDEST PUSH1 0x1 PUSH0 SWAP1 SLOAD SWAP1 PUSH2 0x100 EXP SWAP1 DIV PUSH20 0xFFFFFFFFFFFFFFFFFFFFFFFFFFFFFFFFFFFFFFFF AND DUP2 JUMP JUMPDEST PUSH0 DUP1 SLOAD SWAP1 PUSH2 0x100 EXP SWAP1 DIV PUSH20 0xFFFFFFFFFFFFFFFFFFFFFFFFFFFFFFFFFFFFFFFF AND PUSH20 0xFFFFFFFFFFFFFFFFFFFFFFFFFFFFFFFFFFFFFFFF AND CALLER PUSH20 0xFFFFFFFFFFFFFFFFFFFFFFFFFFFFFFFFFFFFFFFF AND EQ PUSH2 0x797 JUMPI PUSH1 0x40 MLOAD PUSH32 0x8C379A000000000000000000000000000000000000000000000000000000000 DUP2 MSTORE PUSH1 0x4 ADD PUSH2 0x78E SWAP1 PUSH2 0x10DE JUMP JUMPDEST PUSH1 0x40 MLOAD DUP1 SWAP2 SUB SWAP1 REVERT JUMPDEST PUSH1 0x5 SLOAD TIMESTAMP GT PUSH2 0x7DB JUMPI PUSH1 0x40 MLOAD PUSH32 0x8C379A000000000000000000000000000000000000000000000000000000000 DUP2 MSTORE PUSH1 0x4 ADD PUSH2 0x7D2 SWAP1 PUSH2 0x116C JUMP JUMPDEST PUSH1 0x40 MLOAD DUP1 SWAP2 SUB SWAP1 REVERT JUMPDEST PUSH1 0x7 PUSH0 SWAP1 SLOAD SWAP1 PUSH2 0x100 EXP SWAP1 DIV PUSH1 0xFF AND ISZERO PUSH2 0x82A JUMPI PUSH1 0x40 MLOAD PUSH32 0x8C379A000000000000000000000000000000000000000000000000000000000 DUP2 MSTORE PUSH1 0x4 ADD PUSH2 0x821 SWAP1 PUSH2 0x1050 JUMP JUMPDEST PUSH1 0x40 MLOAD DUP1 SWAP2 SUB SWAP1 REVERT JUMPDEST PUSH1 0x1 PUSH0 SWAP1 SLOAD SWAP1 PUSH2 0x100 EXP SWAP1 DIV PUSH20 0xFFFFFFFFFFFFFFFFFFFFFFFFFFFFFFFFFFFFFFFF AND PUSH20 0xFFFFFFFFFFFFFFFFFFFFFFFFFFFFFFFFFFFFFFFF AND PUSH2 0x8FC PUSH1 0x4 SLOAD SWAP1 DUP2 ISZERO MUL SWAP1 PUSH1 0x40 MLOAD PUSH0 PUSH1 0x40 MLOAD DUP1 DUP4 SUB DUP2 DUP6 DUP9 DUP9 CALL SWAP4 POP POP POP POP ISZERO DUP1 ISZERO PUSH2 0x890 JUMPI RETURNDATASIZE PUSH0 DUP1 RETURNDATACOPY RETURNDATASIZE PUSH0 REVERT JUMPDEST POP JUMP JUMPDEST PUSH1 0x7 PUSH0 SWAP1 SLOAD SWAP1 PUSH2 0x100 EXP SWAP1 DIV PUSH1 0xFF AND DUP2 JUMP JUMPDEST PUSH0 DUP1 SLOAD SWAP1 PUSH2 0x100 EXP SWAP1 DIV PUSH20 0xFFFFFFFFFFFFFFFFFFFFFFFFFFFFFFFFFFFFFFFF AND PUSH20 0xFFFFFFFFFFFFFFFFFFFFFFFFFFFFFFFFFFFFFFFF AND CALLER PUSH20 0xFFFFFFFFFFFFFFFFFFFFFFFFFFFFFFFFFFFFFFFF AND EQ PUSH2 0x932 JUMPI PUSH1 0x40 MLOAD PUSH32 0x8C379A000000000000000000000000000000000000000000000000000000000 DUP2 MSTORE PUSH1 0x4 ADD PUSH2 0x929 SWAP1 PUSH2 0x10DE JUMP JUMPDEST PUSH1 0x40 MLOAD DUP1 SWAP2 SUB SWAP1 REVERT JUMPDEST PUSH1 0x7 PUSH0 SWAP1 SLOAD SWAP1 PUSH2 0x100 EXP SWAP1 DIV PUSH1 0xFF AND PUSH2 0x980 JUMPI PUSH1 0x40 MLOAD PUSH32 0x8C379A000000000000000000000000000000000000000000000000000000000 DUP2 MSTORE PUSH1 0x4 ADD PUSH2 0x977 SWAP1 PUSH2 0xD81 JUMP JUMPDEST PUSH1 0x40 MLOAD DUP1 SWAP2 SUB SWAP1 REVERT JUMPDEST PUSH1 0x6 SLOAD TIMESTAMP GT ISZERO PUSH2 0x9C5 JUMPI PUSH1 0x40 MLOAD PUSH32 0x8C379A000000000000000000000000000000000000000000000000000000000 DUP2 MSTORE PUSH1 0x4 ADD PUSH2 0x9BC SWAP1 PUSH2 0x11D4 JUMP JUMPDEST PUSH1 0x40 MLOAD DUP1 SWAP2 SUB SWAP1 REVERT JUMPDEST PUSH1 0x7 PUSH1 0x1 SWAP1 SLOAD SWAP1 PUSH2 0x100 EXP SWAP1 DIV PUSH1 0xFF AND ISZERO PUSH2 0xA15 JUMPI PUSH1 0x40 MLOAD PUSH32 0x8C379A000000000000000000000000000000000000000000000000000000000 DUP2 MSTORE PUSH1 0x4 ADD PUSH2 0xA0C SWAP1 PUSH2 0x1262 JUMP JUMPDEST PUSH1 0x40 MLOAD DUP1 SWAP2 SUB SWAP1 REVERT JUMPDEST PUSH1 0x1 PUSH1 0x7 PUSH1 0x1 PUSH2 0x100 EXP DUP2 SLOAD DUP2 PUSH1 0xFF MUL NOT AND SWAP1 DUP4 ISZERO ISZERO MUL OR SWAP1 SSTORE POP PUSH0 DUP1 SLOAD SWAP1 PUSH2 0x100 EXP SWAP1 DIV PUSH20 0xFFFFFFFFFFFFFFFFFFFFFFFFFFFFFFFFFFFFFFFF AND PUSH20 0xFFFFFFFFFFFFFFFFFFFFFFFFFFFFFFFFFFFFFFFF AND PUSH2 0x8FC PUSH1 0x4 SLOAD PUSH1 0x3 SLOAD PUSH2 0xA79 SWAP2 SWAP1 PUSH2 0xE5A JUMP JUMPDEST SWAP1 DUP2 ISZERO MUL SWAP1 PUSH1 0x40 MLOAD PUSH0 PUSH1 0x40 MLOAD DUP1 DUP4 SUB DUP2 DUP6 DUP9 DUP9 CALL SWAP4 POP POP POP POP ISZERO DUP1 ISZERO PUSH2 0xAA1 JUMPI RETURNDATASIZE PUSH0 DUP1 RETURNDATACOPY RETURNDATASIZE PUSH0 REVERT JUMPDEST POP PUSH1 0x1 PUSH0 SWAP1 SLOAD SWAP1 PUSH2 0x100 EXP SWAP1 DIV PUSH20 0xFFFFFFFFFFFFFFFFFFFFFFFFFFFFFFFFFFFFFFFF AND PUSH20 0xFFFFFFFFFFFFFFFFFFFFFFFFFFFFFFFFFFFFFFFF AND PUSH0 DUP1 SLOAD SWAP1 PUSH2 0x100 EXP SWAP1 DIV PUSH20 0xFFFFFFFFFFFFFFFFFFFFFFFFFFFFFFFFFFFFFFFF AND PUSH20 0xFFFFFFFFFFFFFFFFFFFFFFFFFFFFFFFFFFFFFFFF AND PUSH32 0xE5894307E8EFED03D242BCB85A749C24D96EBF0DE331E3437138CCCC00D26542 PUSH1 0x3 SLOAD PUSH1 0x40 MLOAD PUSH2 0xB41 SWAP2 SWAP1 PUSH2 0xBCD JUMP JUMPDEST PUSH1 0x40 MLOAD DUP1 SWAP2 SUB SWAP1 LOG3 JUMP JUMPDEST PUSH1 0x3 SLOAD DUP2 JUMP JUMPDEST PUSH1 0x5 SLOAD DUP2 JUMP JUMPDEST PUSH1 0x6 SLOAD DUP2 JUMP JUMPDEST PUSH0 PUSH20 0xFFFFFFFFFFFFFFFFFFFFFFFFFFFFFFFFFFFFFFFF DUP3 AND SWAP1 POP SWAP2 SWAP1 POP JUMP JUMPDEST PUSH0 PUSH2 0xB86 DUP3 PUSH2 0xB5D JUMP JUMPDEST SWAP1 POP SWAP2 SWAP1 POP JUMP JUMPDEST PUSH2 0xB96 DUP2 PUSH2 0xB7C JUMP JUMPDEST DUP3 MSTORE POP POP JUMP JUMPDEST PUSH0 PUSH1 0x20 DUP3 ADD SWAP1 POP PUSH2 0xBAF PUSH0 DUP4 ADD DUP5 PUSH2 0xB8D JUMP JUMPDEST SWAP3 SWAP2 POP POP JUMP JUMPDEST PUSH0 DUP2 SWAP1 POP SWAP2 SWAP1 POP JUMP JUMPDEST PUSH2 0xBC7 DUP2 PUSH2 0xBB5 JUMP JUMPDEST DUP3 MSTORE POP POP JUMP JUMPDEST PUSH0 PUSH1 0x20 DUP3 ADD SWAP1 POP PUSH2 0xBE0 PUSH0 DUP4 ADD DUP5 PUSH2 0xBBE JUMP JUMPDEST SWAP3 SWAP2 POP POP JUMP JUMPDEST PUSH0 DUP2 ISZERO ISZERO SWAP1 POP SWAP2 SWAP1 POP JUMP JUMPDEST PUSH2 0xBFA DUP2 PUSH2 0xBE6 JUMP JUMPDEST DUP3 MSTORE POP POP JUMP JUMPDEST PUSH0 PUSH1 0x20 DUP3 ADD SWAP1 POP PUSH2 0xC13 PUSH0 DUP4 ADD DUP5 PUSH2 0xBF1 JUMP JUMPDEST SWAP3 SWAP2 POP POP JUMP JUMPDEST PUSH0 DUP2 MLOAD SWAP1 POP SWAP2 SWAP1 POP JUMP JUMPDEST PUSH0 DUP3 DUP3 MSTORE PUSH1 0x20 DUP3 ADD SWAP1 POP SWAP3 SWAP2 POP POP JUMP JUMPDEST DUP3 DUP2 DUP4 MCOPY PUSH0 DUP4 DUP4 ADD MSTORE POP POP POP JUMP JUMPDEST PUSH0 PUSH1 0x1F NOT PUSH1 0x1F DUP4 ADD AND SWAP1 POP SWAP2 SWAP1 POP JUMP JUMPDEST PUSH0 PUSH2 0xC5B DUP3 PUSH2 0xC19 JUMP JUMPDEST PUSH2 0xC65 DUP2 DUP6 PUSH2 0xC23 JUMP JUMPDEST SWAP4 POP PUSH2 0xC75 DUP2 DUP6 PUSH1 0x20 DUP7 ADD PUSH2 0xC33 JUMP JUMPDEST PUSH2 0xC7E DUP2 PUSH2 0xC41 JUMP JUMPDEST DUP5 ADD SWAP2 POP POP SWAP3 SWAP2 POP POP JUMP JUMPDEST PUSH0 PUSH1 0x20 DUP3 ADD SWAP1 POP DUP2 DUP2 SUB PUSH0 DUP4 ADD MSTORE PUSH2 0xCA1 DUP2 DUP5 PUSH2 0xC51 JUMP JUMPDEST SWAP1 POP SWAP3 SWAP2 POP POP JUMP JUMPDEST PUSH32 0x4F6E6C79207468652062757965722063616E2063616C6C20746869732066756E PUSH0 DUP3 ADD MSTORE PUSH32 0x6374696F6E2E0000000000000000000000000000000000000000000000000000 PUSH1 0x20 DUP3 ADD MSTORE POP JUMP JUMPDEST PUSH0 PUSH2 0xD03 PUSH1 0x26 DUP4 PUSH2 0xC23 JUMP JUMPDEST SWAP2 POP PUSH2 0xD0E DUP3 PUSH2 0xCA9 JUMP JUMPDEST PUSH1 0x40 DUP3 ADD SWAP1 POP SWAP2 SWAP1 POP JUMP JUMPDEST PUSH0 PUSH1 0x20 DUP3 ADD SWAP1 POP DUP2 DUP2 SUB PUSH0 DUP4 ADD MSTORE PUSH2 0xD30 DUP2 PUSH2 0xCF7 JUMP JUMPDEST SWAP1 POP SWAP2 SWAP1 POP JUMP JUMPDEST PUSH32 0x446F776E207061796D656E7420686173206E6F74206265656E206D6164652E00 PUSH0 DUP3 ADD MSTORE POP JUMP JUMPDEST PUSH0 PUSH2 0xD6B PUSH1 0x1F DUP4 PUSH2 0xC23 JUMP JUMPDEST SWAP2 POP PUSH2 0xD76 DUP3 PUSH2 0xD37 JUMP JUMPDEST PUSH1 0x20 DUP3 ADD SWAP1 POP SWAP2 SWAP1 POP JUMP JUMPDEST PUSH0 PUSH1 0x20 DUP3 ADD SWAP1 POP DUP2 DUP2 SUB PUSH0 DUP4 ADD MSTORE PUSH2 0xD98 DUP2 PUSH2 0xD5F JUMP JUMPDEST SWAP1 POP SWAP2 SWAP1 POP JUMP JUMPDEST PUSH32 0x50726F706572747920686173206E6F74206265656E207472616E736665727265 PUSH0 DUP3 ADD MSTORE PUSH32 0x642E000000000000000000000000000000000000000000000000000000000000 PUSH1 0x20 DUP3 ADD MSTORE POP JUMP JUMPDEST PUSH0 PUSH2 0xDF9 PUSH1 0x22 DUP4 PUSH2 0xC23 JUMP JUMPDEST SWAP2 POP PUSH2 0xE04 DUP3 PUSH2 0xD9F JUMP JUMPDEST PUSH1 0x40 DUP3 ADD SWAP1 POP SWAP2 SWAP1 POP JUMP JUMPDEST PUSH0 PUSH1 0x20 DUP3 ADD SWAP1 POP DUP2 DUP2 SUB PUSH0 DUP4 ADD MSTORE PUSH2 0xE26 DUP2 PUSH2 0xDED JUMP JUMPDEST SWAP1 POP SWAP2 SWAP1 POP JUMP JUMPDEST PUSH32 0x4E487B7100000000000000000000000000000000000000000000000000000000 PUSH0 MSTORE PUSH1 0x11 PUSH1 0x4 MSTORE PUSH1 0x24 PUSH0 REVERT JUMPDEST PUSH0 PUSH2 0xE64 DUP3 PUSH2 0xBB5 JUMP JUMPDEST SWAP2 POP PUSH2 0xE6F DUP4 PUSH2 0xBB5 JUMP JUMPDEST SWAP3 POP DUP3 DUP3 SUB SWAP1 POP DUP2 DUP2 GT ISZERO PUSH2 0xE87 JUMPI PUSH2 0xE86 PUSH2 0xE2D JUMP JUMPDEST JUMPDEST SWAP3 SWAP2 POP POP JUMP JUMPDEST PUSH32 0x4E487B7100000000000000000000000000000000000000000000000000000000 PUSH0 MSTORE PUSH1 0x22 PUSH1 0x4 MSTORE PUSH1 0x24 PUSH0 REVERT JUMPDEST PUSH0 PUSH1 0x2 DUP3 DIV SWAP1 POP PUSH1 0x1 DUP3 AND DUP1 PUSH2 0xED1 JUMPI PUSH1 0x7F DUP3 AND SWAP2 POP JUMPDEST PUSH1 0x20 DUP3 LT DUP2 SUB PUSH2 0xEE4 JUMPI PUSH2 0xEE3 PUSH2 0xE8D JUMP JUMPDEST JUMPDEST POP SWAP2 SWAP1 POP JUMP JUMPDEST PUSH32 0x446F776E207061796D656E7420646561646C696E652068617320706173736564 PUSH0 DUP3 ADD MSTORE PUSH32 0x2E00000000000000000000000000000000000000000000000000000000000000 PUSH1 0x20 DUP3 ADD MSTORE POP JUMP JUMPDEST PUSH0 PUSH2 0xF44 PUSH1 0x21 DUP4 PUSH2 0xC23 JUMP JUMPDEST SWAP2 POP PUSH2 0xF4F DUP3 PUSH2 0xEEA JUMP JUMPDEST PUSH1 0x40 DUP3 ADD SWAP1 POP SWAP2 SWAP1 POP JUMP JUMPDEST PUSH0 PUSH1 0x20 DUP3 ADD SWAP1 POP DUP2 DUP2 SUB PUSH0 DUP4 ADD MSTORE PUSH2 0xF71 DUP2 PUSH2 0xF38 JUMP JUMPDEST SWAP1 POP SWAP2 SWAP1 POP JUMP JUMPDEST PUSH32 0x496E636F727265637420646F776E207061796D656E7420616D6F756E742E0000 PUSH0 DUP3 ADD MSTORE POP JUMP JUMPDEST PUSH0 PUSH2 0xFAC PUSH1 0x1E DUP4 PUSH2 0xC23 JUMP JUMPDEST SWAP2 POP PUSH2 0xFB7 DUP3 PUSH2 0xF78 JUMP JUMPDEST PUSH1 0x20 DUP3 ADD SWAP1 POP SWAP2 SWAP1 POP JUMP JUMPDEST PUSH0 PUSH1 0x20 DUP3 ADD SWAP1 POP DUP2 DUP2 SUB PUSH0 DUP4 ADD MSTORE PUSH2 0xFD9 DUP2 PUSH2 0xFA0 JUMP JUMPDEST SWAP1 POP SWAP2 SWAP1 POP JUMP JUMPDEST PUSH32 0x446F776E207061796D656E742068617320616C7265616479206265656E206D61 PUSH0 DUP3 ADD MSTORE PUSH32 0x64652E0000000000000000000000000000000000000000000000000000000000 PUSH1 0x20 DUP3 ADD MSTORE POP JUMP JUMPDEST PUSH0 PUSH2 0x103A PUSH1 0x23 DUP4 PUSH2 0xC23 JUMP JUMPDEST SWAP2 POP PUSH2 0x1045 DUP3 PUSH2 0xFE0 JUMP JUMPDEST PUSH1 0x40 DUP3 ADD SWAP1 POP SWAP2 SWAP1 POP JUMP JUMPDEST PUSH0 PUSH1 0x20 DUP3 ADD SWAP1 POP DUP2 DUP2 SUB PUSH0 DUP4 ADD MSTORE PUSH2 0x1067 DUP2 PUSH2 0x102E JUMP JUMPDEST SWAP1 POP SWAP2 SWAP1 POP JUMP JUMPDEST PUSH32 0x4F6E6C79207468652073656C6C65722063616E2063616C6C2074686973206675 PUSH0 DUP3 ADD MSTORE PUSH32 0x6E6374696F6E2E00000000000000000000000000000000000000000000000000 PUSH1 0x20 DUP3 ADD MSTORE POP JUMP JUMPDEST PUSH0 PUSH2 0x10C8 PUSH1 0x27 DUP4 PUSH2 0xC23 JUMP JUMPDEST SWAP2 POP PUSH2 0x10D3 DUP3 PUSH2 0x106E JUMP JUMPDEST PUSH1 0x40 DUP3 ADD SWAP1 POP SWAP2 SWAP1 POP JUMP JUMPDEST PUSH0 PUSH1 0x20 DUP3 ADD SWAP1 POP DUP2 DUP2 SUB PUSH0 DUP4 ADD MSTORE PUSH2 0x10F5 DUP2 PUSH2 0x10BC JUMP JUMPDEST SWAP1 POP SWAP2 SWAP1 POP JUMP JUMPDEST PUSH32 0x446F776E207061796D656E7420646561646C696E6520686173206E6F74207061 PUSH0 DUP3 ADD MSTORE PUSH32 0x737365642E000000000000000000000000000000000000000000000000000000 PUSH1 0x20 DUP3 ADD MSTORE POP JUMP JUMPDEST PUSH0 PUSH2 0x1156 PUSH1 0x25 DUP4 PUSH2 0xC23 JUMP JUMPDEST SWAP2 POP PUSH2 0x1161 DUP3 PUSH2 0x10FC JUMP JUMPDEST PUSH1 0x40 DUP3 ADD SWAP1 POP SWAP2 SWAP1 POP JUMP JUMPDEST PUSH0 PUSH1 0x20 DUP3 ADD SWAP1 POP DUP2 DUP2 SUB PUSH0 DUP4 ADD MSTORE PUSH2 0x1183 DUP2 PUSH2 0x114A JUMP JUMPDEST SWAP1 POP SWAP2 SWAP1 POP JUMP JUMPDEST PUSH32 0x5472616E7366657220646561646C696E6520686173207061737365642E000000 PUSH0 DUP3 ADD MSTORE POP JUMP JUMPDEST PUSH0 PUSH2 0x11BE PUSH1 0x1D DUP4 PUSH2 0xC23 JUMP JUMPDEST SWAP2 POP PUSH2 0x11C9 DUP3 PUSH2 0x118A JUMP JUMPDEST PUSH1 0x20 DUP3 ADD SWAP1 POP SWAP2 SWAP1 POP JUMP JUMPDEST PUSH0 PUSH1 0x20 DUP3 ADD SWAP1 POP DUP2 DUP2 SUB PUSH0 DUP4 ADD MSTORE PUSH2 0x11EB DUP2 PUSH2 0x11B2 JUMP JUMPDEST SWAP1 POP SWAP2 SWAP1 POP JUMP JUMPDEST PUSH32 0x50726F70657274792068617320616C7265616479206265656E207472616E7366 PUSH0 DUP3 ADD MSTORE PUSH32 0x65727265642E0000000000000000000000000000000000000000000000000000 PUSH1 0x20 DUP3 ADD MSTORE POP JUMP JUMPDEST PUSH0 PUSH2 0x124C PUSH1 0x26 DUP4 PUSH2 0xC23 JUMP JUMPDEST SWAP2 POP PUSH2 0x1257 DUP3 PUSH2 0x11F2 JUMP JUMPDEST PUSH1 0x40 DUP3 ADD SWAP1 POP SWAP2 SWAP1 POP JUMP JUMPDEST PUSH0 PUSH1 0x20 DUP3 ADD SWAP1 POP DUP2 DUP2 SUB PUSH0 DUP4 ADD MSTORE PUSH2 0x1279 DUP2 PUSH2 0x1240 JUMP JUMPDEST SWAP1 POP SWAP2 SWAP1 POP JUMP INVALID LOG2 PUSH5 0x6970667358 0x22 SLT KECCAK256 0xAC 0xCA PUSH7 0xD1FA32E35C7628 AND DUP3 0xA7 JUMPDEST 0xDE INVALID 0xD0 0xCB 0xC8 MULMOD GASPRICE TSTORE BALANCE PUSH11 0x53FA9AF1884D47F464736F PUSH13 0x634300081A0033000000000000 "
				},
				"gasEstimates": {
					"creation": {
						"codeDepositCost": "958000",
						"executionCost": "infinite",
						"totalCost": "infinite"
					},
					"external": {
						"buyer()": "2531",
						"downPayment()": "2448",
						"downPaymentDeadline()": "2491",
						"downPaymentMade()": "2533",
						"finalPrice()": "2469",
						"finalizeSale()": "infinite",
						"makeDownPayment()": "36773",
						"propertyAddress()": "infinite",
						"propertyTransferred()": "2584",
						"refundDownPayment()": "infinite",
						"seller()": "2506",
						"transferDeadline()": "2513",
						"transferProperty()": "infinite"
					}
				},
				"methodIdentifiers": {
					"buyer()": "7150d8ae",
					"downPayment()": "56f50473",
					"downPaymentDeadline()": "b0019c27",
					"downPaymentMade()": "850c9f80",
					"finalPrice()": "a6b513ee",
					"finalizeSale()": "58a687ec",
					"makeDownPayment()": "6fe48837",
					"propertyAddress()": "66440d71",
					"propertyTransferred()": "6548e98a",
					"refundDownPayment()": "756a85ed",
					"seller()": "08551a53",
					"transferDeadline()": "bed6a602",
					"transferProperty()": "9fb2a15f"
				}
			},
			"storageLayout": {
				"storage": [
					{
						"astId": 3,
						"contract": "contracts/real_estate.sol:RealEstate",
						"label": "seller",
						"offset": 0,
						"slot": "0",
						"type": "t_address"
					},
					{
						"astId": 5,
						"contract": "contracts/real_estate.sol:RealEstate",
						"label": "buyer",
						"offset": 0,
						"slot": "1",
						"type": "t_address"
					},
					{
						"astId": 7,
						"contract": "contracts/real_estate.sol:RealEstate",
						"label": "propertyAddress",
						"offset": 0,
						"slot": "2",
						"type": "t_string_storage"
					},
					{
						"astId": 9,
						"contract": "contracts/real_estate.sol:RealEstate",
						"label": "finalPrice",
						"offset": 0,
						"slot": "3",
						"type": "t_uint256"
					},
					{
						"astId": 11,
						"contract": "contracts/real_estate.sol:RealEstate",
						"label": "downPayment",
						"offset": 0,
						"slot": "4",
						"type": "t_uint256"
					},
					{
						"astId": 13,
						"contract": "contracts/real_estate.sol:RealEstate",
						"label": "downPaymentDeadline",
						"offset": 0,
						"slot": "5",
						"type": "t_uint256"
					},
					{
						"astId": 15,
						"contract": "contracts/real_estate.sol:RealEstate",
						"label": "transferDeadline",
						"offset": 0,
						"slot": "6",
						"type": "t_uint256"
					},
					{
						"astId": 17,
						"contract": "contracts/real_estate.sol:RealEstate",
						"label": "downPaymentMade",
						"offset": 0,
						"slot": "7",
						"type": "t_bool"
					},
					{
						"astId": 19,
						"contract": "contracts/real_estate.sol:RealEstate",
						"label": "propertyTransferred",
						"offset": 1,
						"slot": "7",
						"type": "t_bool"
					}
				],
				"types": {
					"t_address": {
						"encoding": "inplace",
						"label": "address",
						"numberOfBytes": "20"
					},
					"t_bool": {
						"encoding": "inplace",
						"label": "bool",
						"numberOfBytes": "1"
					},
					"t_string_storage": {
						"encoding": "bytes",
						"label": "string",
						"numberOfBytes": "32"
					},
					"t_uint256": {
						"encoding": "inplace",
						"label": "uint256",
						"numberOfBytes": "32"
					}
				}
			},
			"userdoc": {
				"kind": "user",
				"methods": {},
				"version": 1
			}
		}
	}
}